:10000000DFC600000C94DC2B0C94B12B0C94862BD7
:100010000C945B2B0C94302B0C94052B0C94DA2A4B
:100020000C94AF2AFEC60000FCC60000FAC6000011
:10003000F8C60000F6C60000F4C60000F2C60000D4
:10004000F0C60000EEC60000ECC60000EAC60000E4
:10005000E8C60000E6C60000E4C600000C94652A6D
:10006000E0C600000C942F2A0C94052ADAC6000082
:10007000D8C60000D6C60000D4C60000D2C6000014
:10008000D0C60000CEC60000CCC60000CAC6000024
:10009000C8C60000C6C60000C4C600000C94072CE9
:1000A000C0C60000BEC60000BCC60000BAC6000044
:1000B000B8C60000B6C60000B4C60000B2C6000054
:1000C000B0C60000AEC60000ACC60000AAC6000064
:1000D000A8C60000A6C60000A4C60000A2C6000074
:1000E000A0C6000000407A10F35A00A0724E180912
:1000F0000010A5D4E80000E87648170000E40B548F
:10010000020000CA9A3B000000E1F505000080965D
:100110009800000040420F000000A086010000008F
:10012000102700000000E803000000006400000049
:1001300000000A00000000000100000000002C7612
:10014000D888DC674F0823DFC1DFAE59E1B1B7962D
:10015000E5E3E453C63AE651997696E8E6C284268A
:10016000EB898C9B62ED407C6FFCEFBC9C9F40F266
:10017000BAA56FA5F490055A2AF75C936B6CF967E2
:100180006DC11BFCE0E40D47FEF520E6B500D0EDA7
:10019000902E0300943577050080841E080000200F
:1001A0004E0A000000C80C333333330F986E1283AD
:1001B0001141EF8D2114893BE65516CFFEE6DB1881
:1001C000D1844B381BF77C1D901DA4BBE424203246
:1001D00084725E228100C9F124ECA1E53D27DB4059
:1001E000A4A62EAF2000A1C8D300408DAED580A814
:1001F000000060000000000000000000000000009F
:1002000000E000000000000000000000000000010D
:10021000E00000000000000000000000000001F00D
:100220000000000000000000000000000003F000DB
:1002300000000000000000000000000007F00000C7
:10024000000000000000000000000007F8000000AF
:10025000000000000000000000000FF80000000394
:10026000C0007E000001E0007F0FF800000003C026
:1002700000FE000001E000FFEFF800000003C000F6
:10028000FE000001E000FFFFF800000003C000F0E6
:100290000000000F007FFE7FC0000003C000F000E0
:1002A00000000F003FFE7FF83FF1FBCFFCFEF3BCE8
:1002B0003DEFE01FFE7FFF7FFBFFDFFEFEFFBC3D4B
:1002C000EFE01FC6FFFF7FFBFFDFFEFEFFBC3DEF41
:1002D000E00FE3C7FE787BC3DE1EF0FFBC3DEF00FE
:1002E00007FF87FC787BC3DE1EF0F83C3DEF000182
:1002F000FFFFF0007BC3C01EF0F03C3DEF0001F3B8
:100300007FE03FFBC3CFFEF0F03C3DEF0003E33F57
:10031000807FFBC3DFFEF0F03C3DEF0007E73C00D1
:10032000787BC3DE1EF0F03C3DEF0007FFBE007897
:100330007BC3DE1EF0F03C3DEF0007FFFE00787B44
:10034000C3DE1EF0F03C3DEF000FFFFE007FFBFF21
:10035000DFFEF0F03FFDEFE00FFFFF007FFBFFDF70
:10036000FEF0F03FFDEFE00FF9FF003E79F9CF9E80
:10037000F0F01F3DE7E01FF1FF000000000000006B
:1003800000000000001F80FF007FFFFFFFFFFFFF56
:10039000FFFFFFE01C007F007FFFFFFFFEB46D88C2
:1003A0008D18E000001F007FFFFFFFFE95AD7DB5BB
:1003B00077E000000F007FFFFFFFFEA5AD9D8D19C8
:1003C000E0000006007FFFFFFFFEB5ADEDB57EE06B
:1003D000000000000001800000000000000000009C
:1003E000038000000000000000000007C0000000C3
:1003F00000000000000007C0000000000000000036
:10040000000FC00000000000000000001FE000001E
:10041000000000000000001FE000000000000000DD
:1004200000003FE00000000000000000003FF0007E
:1004300000000000000000007FF00000000000004D
:10044000001FF87FF0000000000000003FFE7FF07A
:10045000000000000000003FFF7FF00000000000EF
:1004600000001FFFFBE0000000000000000FFFF98C
:10047000FFC00000000000000FFFF9FFF8000000BF
:1004800000000007FFF1FFFF00000000000003FC78
:1004900073FFFF80000000000001FE3FFFFF8000AF
:1004A0000000000000FF1E0FFF0000000000000021
:1004B0007FFE1FFC000000000000003FFFFFF8006F
:1004C0000000000000000FDFFFE00000000000005F
:1004D000001F19FFC0000000000000003F3CFF00AB
:1004E000000000000000007E7CF80000000000001A
:1004F00000007FFE7C0000000000000000FFFFFC09
:100500000000000000000000FFFFFE0000000000EF
:10051000000000FFFFFE0000000000000001FFEFF0
:10052000FE0000000000000001FFCFFE0000000000
:1005300000000003FF07FE0000000000000003FCB5
:1005400007FE0000000000000003F003FE000000B2
:1005500000000000018000FE00000000000000001C
:1005600000007E000000000000000000003E0000CF
:1005700000000000000000000C0000000000000768
:100580008000FC000003C0000000078001FC0000A8
:1005900003C0000000078001FC000003C000000051
:1005A000078001E00000001E000000078001E0005D
:1005B00000001E007FE3F79FF9FDE7787BDFC0FFB7
:1005C000F7FFBFFDFDFF787BDFC0FFF7FFBFFDFD3D
:1005D000FF787BDFC0F0F787BC3DE1FF787BDE0072
:1005E000F0F787BC3DE1F0787BDE0000F787803DC7
:1005F000E1E0787BDE007FF7879FFDE1E0787BDE3E
:1006000000FFF787BFFDE1E0787BDE00F0F787BCF5
:100610003DE1E0787BDE00F0F787BC3DE1E0787BF0
:10062000DE00F0F787BC3DE1E0787BDE00FFF7FFFE
:10063000BFFDE1E07FFBDFC0FFF7FFBFFDE1E07F33
:10064000FBDFC07CF3F39F3DE1E03E7BCFC00000C9
:10065000000000000000000000FFFFFFFFFFFFFFA1
:10066000FFFFFFC0FFFFFFFFFD68DB111A31C0FF76
:10067000FFFFFFFD2B5AFB6AEFC0FFFFFFFFFD4BA3
:100680005B3B1A33C0FFFFFFFFFD6B5BDB6AFDC006
:100690005353443133303620616C6C6F636174693D
:1006A0006F6E206661696C6564002200FF210000A6
:1006B0000103070F1F3F7F0080C0E0F0F8FCFE0041
:1006C000000000003E5B4F5B3E3E6B4F6B3E1C3EAE
:1006D0007C3E1C183C7E3C181C577D571C1C5E7FC2
:1006E0005E1C00183C1800FFE7C3E7FF0018241841
:1006F00000FFE7DBE7FF30483A060E262979292676
:10070000407F050507407F05253F5A3CE73C5A7F5F
:100710003E1C1C08081C1C3E7F14227F22145F5FB5
:10072000005F5F06097F017F006689956A606060EF
:10073000606094A2FFA29408047E040810207E202A
:100740001008082A1C08081C2A08081E101010107F
:100750000C1E0C1E0C30383E3830060E3E0E0600C5
:100760000000000000005F00000007000700147F89
:10077000147F14242A7F2A122313086462364956F0
:1007800020500008070300001C2241000041221CE9
:10079000002A1C7F1C2A08083E08080080703000D0
:1007A0000808080808000060600020100804023EE5
:1007B0005149453E00427F40007249494946214126
:1007C000494D331814127F1027454545393C4A4995
:1007D00049314121110907364949493646494929D4
:1007E0001E000014000000403400000008142241E4
:1007F0001414141414004122140802015909063E6D
:10080000415D594E7C1211127C7F494949363E4167
:100810004141227F4141413E7F494949417F090988
:1008200009013E414151737F0808087F00417F4123
:10083000002040413F017F081422417F404040405A
:100840007F021C027F7F0408107F3E4141413E7FB2
:10085000090909063E4151215E7F091929462649A9
:1008600049493203017F01033F4040403F1F204080
:10087000201F3F4038403F6314081463030478048A
:10088000036159494D43007F414141020408102052
:10089000004141417F0402010204404040404000C9
:1008A0000307080020545478407F284444383844D3
:1008B000444428384444287F385454541800087E4F
:1008C000090218A4A49C787F0804047800447D40A1
:1008D000002040403D007F1028440000417F400040
:1008E0007C047804787C080404783844444438FC58
:1008F0001824241818242418FC7C080404084854DC
:1009000054542404043F44243C4040207C1C204098
:10091000201C3C4030403C44281028444C9090908F
:100920007C4464544C4400083641000000770000C9
:10093000004136080002010204023C2623263C1E28
:10094000A1A161123A4040207A385454555921559A
:1009500055794122545478422155547840205455B9
:1009600079400C1E52721239555555593954545408
:100970005939555454580000457C410002457D4288
:100980000001457C407D1211127DF0282528F07C65
:10099000545545002054547C547C0A097F493249FF
:1009A0004949323A4444443A324A4848303A41414B
:1009B000217A3A42402078009DA0A07D3D424242EB
:1009C0003D3D4040403D3C24FF2424487E49436651
:1009D0002B2FFC2F2BFF0929F620C0887E0903202E
:1009E000545479410000447D413048484A323840EF
:1009F00040227A007A0A0A727D0D19317D26292952
:100A00002F28262929292630484D40203808080853
:100A10000808080808382F10C8ACBA2F102834FA74
:100A200000007B000008142A142222142A140855FE
:100A300000550055AA55AA55AAFF55FF55FF0000BD
:100A400000FF00101010FF00141414FF001010FF1E
:100A500000FF1010F010F0141414FC001414F70030
:100A6000FF0000FF00FF1414F404FC141417101FFF
:100A700010101F101F1414141F00101010F000008D
:100A800000001F101010101F10101010F0100000A8
:100A900000FF101010101010101010FF10000000B8
:100AA000FF140000FF00FF00001F10170000FC04EF
:100AB000F414141710171414F404F40000FF00F7D2
:100AC00014141414141414F700F714141417141035
:100AD000101F101F141414F4141010F010F0000064
:100AE0001F101F0000001F14000000FC140000F085
:100AF00010F01010FF10FF141414FF141010101F2A
:100B000000000000F010FFFFFFFFFFF0F0F0F0F03A
:100B1000FFFFFF0000000000FFFF0F0F0F0F0F3857
:100B200044443844FC4A4A4A347E02020606027EA5
:100B3000027E0263554941633844443C04407E20B0
:100B40001E2006027E020299A5E7A5991C2A492AC1
:100B50001C4C7201724C304A4D4D30304878483050
:100B6000BC625A463D3E494949007E0101017E2A48
:100B70002A2A2A2A44445F444440514A444040447B
:100B80004A51400000FF0103E080FF000008086BAD
:100B90006B083612362436060F090F0600001818A7
:100BA0000000001010003040FF0101001F01011E75
:100BB00000191D1712003C3C3C3C000000000000E6
:100BC000002100240027002A002D003000330001FE
:100BD000010000040107010A01000022002500288D
:100BE000002B002E00310034000201000005010836
:100BF000010B01000020002300260029002C002FFB
:100C0000003200000100000301060109010505058D
:100C100005070508080808020202020A0A08080473
:100C200004040401010101010101010303030303A1
:100C3000030303040707070C0C0C0C0C0C0C0C0230
:100C400002020206060606060606060B0B0B0B0B37
:100C50000B0B0B0102102020080810204010204030
:100C60008002010201080402010102040810204070
:100C7000808040201008040201800402018040208E
:100C800010080402010804020101020408102040B7
:100C900080010204081020408000000A0B02090CA9
:100CA0000D0E080703040100000000000000000012
:100CB0000000000000000000000000000000000034
:100CC00000000000001211100000000000000000F1
:100CD0000000000000000000000000000000000014
:100CE000008000000003E000000007F00000000F9B
:100CF000F80000001F7C0000003E3E0000007C1F4A
:100D0000000000F80F800000F007800001E003C041
:100D10000003C001E00007C001F000078000F00000
:100D20000F000078001E01C03C001E01C03C003CCA
:100D300001C01E003C01C01E007801C70F007801F1
:100D4000CF0F007001FE07007001FC0700F001F8F2
:100D50000780F001F00780E001E00780F001C003A8
:100D600080E001C20380F001C70780F001CF078057
:100D7000F001FF07007801FE0F007801F80F003C3A
:100D800001F01E003C01E01E001E01C03C000F01EE
:100D9000C0780007C1C1F00003E1C3E00001F1CF5A
:100DA000C00000F1FF80000061FF00000001FC00B6
:100DB000000001F000000001C00000000A2F2A3BE3
:100DC00011241FBECFEFD1E2DEBFCDBF00E00CBFCC
:100DD00014E0A0E0B2E0E2E3F7E800E00BBF02C0FD
:100DE00007900D92A63DB107D9F728E0A6EDB4E033
:100DF00001C01D92A433B207E1F716E0CFEDD6E0B3
:100E000000E006C021970109802FFE010E944E429A
:100E1000CE3DD10780E00807A9F70E9413310C945A
:100E20008843EEC81F93CF93DF93182FC091A90575
:100E3000D091AA058A3041F4E881F9810190F081CE
:100E4000E02D6DE0CE011995E881F9810190F081E6
:100E5000E02D612FCE01199521E030E0019711F4CA
:100E600030E020E0C901DF91CF911F910895CF9329
:100E7000DF93C091A905D091AA05E881F98100848A
:100E8000F185E02DCE011995892BB9F3E881F9811F
:100E90000284F385E02DCE01DF91CF91199408955E
:100EA0000895DC01ED91FC910190F081E02D199401
:100EB000AF92BF92CF92DF92EF92FF920F931F9368
:100EC000CF93DF936C017B018B01040F151FEB01A6
:100ED0005E01AE18BF08C017D10759F06991D6015D
:100EE000ED91FC910190F081E02DC6011995892BBF
:100EF00079F7C501DF91CF911F910F91FF90EF908E
:100F0000DF90CF90BF90AF900895FC01538D448D3A
:100F1000252F30E0842F90E0821B930B541710F0A4
:100F2000CF96089501970895FC01918D828D9817B1
:100F300061F0A28DAE0FBF2FB11D5D968C91928D89
:100F40009F5F9F73928F90E008958FEF9FEF0895BA
:100F5000FC01918D828D981731F0828DE80FF11D83
:100F6000858D90E008958FEF9FEF0895FC01918D9E
:100F7000228D892F90E0805C9F4F821B91098F7397
:100F8000992708958DEA95E0F1DF21E0892B09F496
:100F900020E0822F0895FC01A48DA80FB92FB11D68
:100FA000A35ABF4F2C91848D90E001968F7399279F
:100FB000848FA689B7892C93A089B1898C9183707D
:100FC00080648C93938D848D981306C00288F38976
:100FD000E02D80818F7D80830895EF92FF920F93A3
:100FE0001F93CF93DF93EC0181E0888F9B8D8C8DD5
:100FF00098131AC0E889F989808185FF15C09FB7C9
:10100000F894EE89FF896083E889F989808183708B
:10101000806480839FBF81E090E0DF91CF911F913A
:101020000F91FF90EF900895F62E0B8D10E00F5F5B
:101030001F4F0F731127E02E8C8D8E110BC00FB632
:1010400007FCFACFE889F989808185FFF5CFCE01C9
:10105000A2DFF2CFEB8DEC0FFD2FF11DE35AFF4F16
:10106000F0829FB7F8940B8FEA89FB8980818062B8
:10107000D0CFCF93DF93EC01888D8823B1F0AA897C
:10108000BB89E889F9898C9185FD03C0808186FD43
:101090000CC00FB607FCF7CF8C9185FFF2CF808193
:1010A00085FFEDCFCE0177DFEACFDF91CF910895B5
:1010B00080E090E0892B21F065DF81110E94000023
:1010C00080E090E0892B49F080E090E0892B29F0C6
:1010D0000E94000081110E94000080E090E0892BB6
:1010E00049F080E090E0892B29F00E9400008111F6
:1010F0000E94000080E090E0892B49F080E090E0C1
:10110000892B29F00E94000081110C9400000895A1
:101110008150823108F05AC0E82FF0E08827EC5661
:10112000F74F8F4F0C944E42B408B808A608AC088D
:10113000B008E608BB08C108C508CB08CF08D3082B
:10114000D908DD08E608E108E708EB08809180008F
:101150008F77809380000895809180008F7DF9CFF4
:1011600080918000877FF5CF84B58F7784BD089507
:1011700084B58F7DFBCF8091B0008F778093B000D6
:1011800008958091B0008F7DF9CF809190008F7786
:10119000809390000895809190008F7DF9CF809189
:1011A0009000877FF5CF8091A0008F778093A0007B
:1011B00008958091A0008F7DF9CF8091A000877F56
:1011C000F5CF809120018F77809320010895809141
:1011D00020018F7DF9CF80912001877FF5CFCF93BC
:1011E000DF93282F30E0F901E756F34F8491F9019E
:1011F000ED5AF34FD491F901E35FF34FC491CC233F
:1012000099F0811185DFEC2FF0E0EE0FFF1FED501C
:10121000F44FA591B491EC91ED2381E090E009F4B5
:1012200080E0DF91CF91089580E090E0FACF1F93A6
:10123000CF93DF93282F30E0F901E756F34F8491E5
:10124000F901ED5AF34FD491F901E35FF34FC491E3
:10125000CC23A1F0162F81115BDFEC2FF0E0EE0F15
:10126000FF1FE752F44FA591B4918FB7F894EC911A
:10127000111108C0D095DE23DC938FBFDF91CF9191
:101280001F910895DE2BF8CFCF93DF9390E0FC0100
:10129000ED5AF34F2491835F934FFC01849188238F
:1012A000D1F090E0880F991FFC01E154F44FA59113
:1012B000B491FC01E752F44FC591D49161110EC075
:1012C0009FB7F8948C91E22FE0958E238C93288120
:1012D000E223E8839FBFDF91CF9108958FB7F89401
:1012E000EC91E22BEC938FBFF6CF3FB7F89480914F
:1012F000900590919105A0919205B091930526B526
:10130000A89B05C02F3F19F00196A11DB11D3FBF3D
:10131000BA2FA92F982F8827BC01CD01620F711D0C
:10132000811D911D42E0660F771F881F991F4A9506
:10133000D1F708958F929F92AF92BF92CF92DF9292
:10134000EF92FF924B015C01D0DF6B017C01CDDF9E
:101350006C197D098E099F09683E734081059105CE
:10136000B0F321E0821A9108A108B10888EEC80EF6
:1013700083E0D81EE11CF11C81149104A104B10486
:1013800031F7FF90EF90DF90CF90BF90AF909F909C
:101390008F900895E82FF0E0DF01AA0FBB1FA05047
:1013A000BE4F11967C936E93883008F069C08827F1
:1013B000E352F64F8F4F0C944E42130A1B0AE50975
:1013C000ED09F909060A270A340A809169008C7F21
:1013D000482B40936900E89A089580916900837FC3
:1013E000440F551F440F551F482B40936900E99A3D
:1013F0000895809169008F7C74E0440F551F7A95A1
:10140000E1F7482B40936900EA9A089580916900BA
:101410008F7366E0440F551F6A95E1F7482B4093A0
:101420006900EB9A089580916A008C7F482B409365
:101430006A00EC9A089580916A00837F440F551FDB
:10144000440F551F482B40936A00ED9A08958091F0
:101450006A008F7C24E0440F551F2A95E1F7482B42
:1014600040936A00EE9A089580916A008F7396E027
:10147000440F551F9A95E1F7482B40936A00EF9A65
:10148000089508956F927F928F929F92AF92BF922C
:10149000CF92DF92EF92FF920F931F93CF93DF9340
:1014A000EC01FC01E852FF4FE08001E010E0812CEC
:1014B000912C5401F12C84E6E80EF11C24E6C22E96
:1014C000D12CC701801B910BB6010E94FD41FC018C
:1014D0003896EE0FFF1FEC0FFD1F60817181072E04
:1014E000000C880B990B0E94A43F9B01AC01C50125
:1014F000B4010E94DD404B015C010F5F1F4F0031C2
:101500001105F9F67E01EFE5EE1AEEEFFE0AF7019E
:10151000008110E03801660C771C6C0E7D1EF9ED21
:101520006F0E711C20E030E040E751E4C501B401CA
:101530000E9441410E94A941F30171836083C80167
:101540008B599F4FB6010E94FD41F7018083C4551E
:10155000DE4F6091A5057091A6058091A705909139
:10156000A8050E94A23F688379838A839B83DF91C9
:10157000CF911F910F91FF90EF90DF90CF90BF9090
:10158000AF909F908F907F906F900895CB010895BA
:101590004F925F926F927F92BF92CF92DF92EF92C3
:1015A000FF920F931F93CF93DF93EC0129013A0130
:1015B0008B01C12CD12C7601C414D504E604F704A8
:1015C0000CF03FC0F801B1908F018F8580FF0BC0F8
:1015D000E881F9810084F185E02D20E144E070E0AC
:1015E00060E0CE011995EB85FC858D859E85E81719
:1015F000F90760F4B0828B859C8501969C878B8768
:101600002FEFC21AD20AE20AF20AD6CF6B2D70E08F
:10161000E881F981028CF38DE02DCE0119950196B8
:1016200079F7C701B601DF91CF911F910F91FF901C
:10163000EF90DF90CF90BF907F906F905F904F9032
:10164000089573016201EDCFCF93DF93EC01E88140
:10165000F9810288F389E02D19958F3F980731F0C1
:101660002D813E812F5F3F4F3E832D83DF91CF91B0
:1016700008958FEF9FEF089560E070E0CB0108952B
:1016800090E080E00895FF920F931F93CF93DF9334
:101690008C01EB016F3F7607A9F0F62EEAE06E139E
:1016A00005C06DE0F80180899189FBDB6F2DF801A1
:1016B00080899189F6DBCE01DF91CF911F910F9147
:1016C000FF900895D0E0C0E0F6CF7F928F929F9276
:1016D000AF92BF92CF92DF92EF92FF920F931F9340
:1016E000CF93DF938C0149015A01EB01C12CD12C1E
:1016F0007601C814D904EA04FB04A4F479908AE0C2
:10170000781205C06DE0F80180899189CADB672DE8
:10171000F80180899189C5DBFFEFCF1ADF0AEF0A54
:10172000FF0AE7CFC501B401DF91CF911F910F915F
:10173000FF90EF90DF90CF90BF90AF909F908F90F1
:101740007F900895CF93DF93EC0188899989DC011C
:10175000ED91FC910084F185E02D1995892BA9F379
:1017600088899989DC01ED91FC910284F385E02D53
:10177000DF91CF911994CF93DF93EC0188899989F8
:10178000DC01ED91FC910084F185E02D1995892B08
:10179000A9F388899989DC01ED91FC910484F58590
:1017A000E02DDF91CF9119948F929F92AF92BF92CB
:1017B000CF92DF92EF92FF920F931F93CF93DF931D
:1017C0008C0149015A01EB01C12CD12C7601D801C1
:1017D00050968D919C91DC01ED91FC910284F385F2
:1017E000E02D19958F3F61F0C814D904EA04FB0479
:1017F0003CF48993BFEFCB1ADB0AEB0AFB0AE7CF75
:10180000C701B601DF91CF911F910F91FF90EF902B
:10181000DF90CF90BF90AF909F908F900895DC01A4
:1018200050968D919C91DC01ED91FC910084F185A5
:10183000E02D199490E080E0089590E080E0089514
:1018400090E080E0089508950895DC01ED91FC9109
:1018500036970190F081E02DE80FF91F80E992E0C2
:10186000918380838AE992E097838683089520E9B3
:1018700032E0FC01318320832AE932E0378326837A
:101880000895FB0120813181FC0131832083FB011C
:101890004281538126503109F90120813181820F23
:1018A000931FFC015183408308952CEA32E0FC0130
:1018B0003183208326EB32E0318F208F60EA72E0A3
:1018C000E0CFDC01ED91FC91369720813181820FD0
:1018D000931FEBCF0895DC01ED91FC9136970190B9
:1018E000F081E02DE80FF91F8CE792E0918380836F
:1018F00086E892E09383828308952CE732E0FC012E
:101900003183208326E832E0338322830895FB016C
:1019100020813181FC0131832083FB01428153818D
:1019200026503109F90120813181820F931FFC017A
:1019300051834083089528EC32E0FC0131832083F9
:1019400022ED32E0358B248B6CEB72E0E0CFDC01D2
:10195000ED91FC91369720813181820F931FEBCF5F
:1019600008950895FC016370668B848195812681BA
:101970003781613039F0633029F091878087338770
:1019800022870895318720879387828708952F9231
:101990003F924F925F926F927F928F929F92AF92FF
:1019A000BF92CF92DF92EF92FF920F931F93CF934C
:1019B000DF93CDB7DEB76A970FB6F894DEBF0FBEE0
:1019C000CDBF9A8F898F7A8369834A01D22E188777
:1019D0000F833701BC2CDC0159962D913C915A970D
:1019E0002115310509F015C118968D919C91199713
:1019F000681779070CF0D7C11A968D919C914817FA
:101A000059070CF0D0C14C2C512CB6E0CB9E600D88
:101A1000711D11247C876B87161617060CF0C3C145
:101A2000EA2DF0E0FA87E98793E0EE0FFF1F9A9521
:101A3000E1F7F88BEF87CF01840F951F1816190671
:101A40000CF0B1C1A98DBA8D58968C91811104C04A
:101A5000BFEABD1508F4D394A98DBA8DED91FC9120
:101A600011970284F385E02DCD011995B5E0DB9E39
:101A7000C0011124E981FA81FC83EB83312C212CF4
:101A80009C012154394F388F2F8B4A2D50E05E8BAB
:101A90004D8BEF89F88DE20DF31D44919E828D826E
:101AA000D12CC12C69817A81620D731D7A8B698B6F
:101AB000842F90E09C8B8B8BE98DFA8DA081B18176
:101AC00040FF82C0F1E0BF126FC0AF126DC01C9624
:101AD000ED91FC912F813885A4014C0D5D1D698924
:101AE0007A89898D9A8D1995EB89FC89F595E79509
:101AF0004E2F5FEFC51AD50A6D817E818D899E8933
:101B0000680F791F7E836D8398E0C916D10481F632
:101B1000AFEF2A1A3A0AEB81FC81E40DF51DFC8334
:101B2000EB83F5E02F16310409F0B3CF2F81388510
:101B300026153705B9F0A98DBA8DED91FC91B1E06C
:101B4000BB1257C0AB1255C069817A816B5F7F4F62
:101B50000088F189E02D830128E030E0A401898D1F
:101B60009A8D1995A98DBA8DED91FC9111970688E2
:101B7000F789E02DCD016A960FB6F894DEBF0FBE4F
:101B8000CDBFDF91CF911F910F91FF90EF90DF902C
:101B9000CF90BF90AF909F908F907F906F905F900D
:101BA0004F903F902F9019941E96ED91FC91EF80ED
:101BB000F88409851A8592014D815E816B817C8153
:101BC000898D9A8D199590CF2F81388526153705E7
:101BD00009F48ACF31E0B31207C0A31205C01C96E6
:101BE000ED91FC91930178CF1E96ED91FC917301DC
:101BF000E0CF6B857C85641975090684F785E02D37
:101C000073010F8518899201A401898D9A8D199508
:101C1000A9CFF90134969491329745915491D91AEC
:101C2000B7E0DB9E400D511D1124F901259134913F
:101C30003C8B2B8BFA0125903490FA0132967490EC
:101C400031963491398B329664903196449041E0CC
:101C50004C1518F04A1508F07FC0662D062C000CB4
:101C6000770B7C836B83842D042C000C990B9E8353
:101C70008D83A98DBA8DED91FC9111970284F38526
:101C8000E02DCD011995512CD12CC12CEA2DF0E07D
:101C9000FA87E9872B2D30E03C872B87A401440D80
:101CA000511D47FC5A95588F4F8B69817A81660D7B
:101CB000711D67FC7A957E876D877989C71608F054
:101CC00051CF2C2D30E04D815E81420F531FA985ED
:101CD000BA854A9FC0014B9F900D5A9F900D1124C9
:101CE000FC01E80DF91DF88BEF87852D612C4F89DC
:101CF000588D420F531F5E8B4D8B671408F050C0F8
:101D000044244394480E877041F4C1010196EB8945
:101D1000FC89E20DF31DD4901C01D7FE19C0A98DDA
:101D2000BA8DED91FC91662D70E0B1E0BB1219C047
:101D3000AB1217C02D853E85620F731F0484F58595
:101D4000E02D2F8138854D895E89898D9A8D199571
:101D5000DD0C6394842DD1CF1E821D821C821B82D8
:101D600088CF4B815C81640F751FAB85BC856A9FF2
:101D7000C0016B9F900D7A9F900D112469817A812B
:101D8000680F791F0684F785E02DEF80F8840985B8
:101D90001A859D014F855889898D9A8D1995D8CFBF
:101DA000570CC3948ACF6A960FB6F894DEBF0FBE65
:101DB000CDBFDF91CF911F910F91FF90EF90DF90FA
:101DC000CF90BF90AF909F908F907F906F905F90DB
:101DD0004F903F902F9008958F929F92AF92CF9205
:101DE000EF92FF920F931F93CF93DF93EC01262F77
:101DF000898D9A8D009709F050C06A30D1F41D8604
:101E00001C868D8948E0849F900111248E859F85D2
:101E1000820F931F9F878E8781E090E0DF91CF91A3
:101E20001F910F91FF90EF90CF90AF909F908F9068
:101E300008956D3089F3CC88AD888F898823C1F0EF
:101E40008C859D8536E0C39E800D911D11244885AB
:101E500059854817590764F44E855F851D861C8691
:101E600038E0A39EC0011124840F951F9F878E87A1
:101E7000EA88FB88088919894E855F856C857D8590
:101E8000CE0185DD2C898C859D8546E0249F800DC3
:101E9000911D11249D878C87BFCF6A3069F41D8600
:101EA0001C86FC013896E4912D898E859F85E29FE2
:101EB000800D911D1124AECF6D3009F4ADCFFC0122
:101EC00034963491631708F4A7CF3296E491E6175D
:101ED00008F4A2CFFC01329685909490462F431BC4
:101EE000342F47E0349F800C911C1124F40132966A
:101EF00034913196E4913323A1F1EE2391F1CC8812
:101F0000F4013596E491AD884F89442301F10E2EFA
:101F1000000CFF0BE30FF11DCE9EA001CF9E500DD4
:101F200011246C857D85460F571F68857985641758
:101F300075076CF44E855F851D861C86FC013896FE
:101F4000E491AE9E400D511D11245F874E87EA88B3
:101F5000FB88088919894E855F856C857D85CE0152
:101F600016DDF4013496E4912C898C859D85E29FE1
:101F7000800D911D11248ECF6F927F928F929F9230
:101F8000AF92BF92CF92DF92EF92FF920F931F9387
:101F9000CF93DF93EC016B015A0139014801E881CD
:101FA000F9810284F385E02D1995E881F981028891
:101FB000F389E02D87019301A501B601CE011995A2
:101FC000A501480D591D41505109E881F981028848
:101FD000F389E02D9301B601CE011995E881F981CD
:101FE0000088F189E02D9401A501B601CE01199573
:101FF000C60CD71CB60161507109E881F9810088CF
:10200000F189E02D9401A501CE011995E881F981AE
:102010000688F789E02DCE01DF91CF911F910F91B6
:10202000FF90EF90DF90CF90BF90AF909F908F90F8
:102030007F906F9019946F927F928F929F92AF9240
:10204000BF92CF92DF92EF92FF920F931F93CF93A5
:10205000DF935C01EB016A01490138018701DC0172
:10206000ED91FC916217730719F5641675062CF053
:10207000962D872D3A01C92ED82E9601261937099B
:102080002F5F3F4F048CF58DE02DA301BE01C501EC
:102090001995DF91CF911F910F91FF90EF90DF90F5
:1020A000CF90BF90AF909F908F907F906F9008954A
:1020B0004615570591F42617370724F0892D4B0153
:1020C000C22FD82F9E01281939092F5F3F4F068C48
:1020D000F78DE02DA601B401DACF0284F385E02D5F
:1020E0001995D501ED91FC910488F589E02D8301C6
:1020F0009401A601BE01C5011995D501ED91FC9190
:102100000688F789E02DC501DF91CF911F910F91CE
:10211000FF90EF90DF90CF90BF90AF909F908F9007
:102120007F906F901994EF92FF920F931F93DC01B1
:102130001A960D911C911B9718962D913C91199709
:10214000ED91FC9100A0F1A1E02D7B0150E040E079
:1021500070E060E019951F910F91FF90EF90089546
:102160004F925F926F927F928F929F92AF92BF92A7
:10217000CF92DF92EF92FF920F931F93CF93DF9353
:102180006C012B015A0139014801DC01ED91FC91F0
:102190000284F385E02D1995E201640C751CD601CB
:1021A000ED91FC91C615D7055CF40088F189E02D0E
:1021B00087019401A501BE01C60119952196EFCFB3
:1021C0000688F789E02DC601DF91CF911F910F910D
:1021D000FF90EF90DF90CF90BF90AF909F908F9047
:1021E0007F906F905F904F9019948F929F92AF92D3
:1021F000BF92CF92DF92EF92FF920F931F93CF93F4
:10220000DF93EC015B014A016901E881F9810284F5
:10221000F385E02D199595012C0D3D1D21503109B7
:10222000E881F9810488F589E02D78018401A40111
:10223000B501CE011995E881F9810688F789E02D6D
:10224000CE01DF91CF911F910F91FF90EF90DF9022
:10225000CF90BF90AF909F908F9019948F929F9244
:10226000AF92BF92CF92DF92EF92FF920F931F93A4
:10227000CF93DF93EC015B014A0169017801E881AA
:10228000F9810284F385E02D1995C80CD91C8601CB
:1022900001501109E881F9810488F589E02D950143
:1022A000A401B501CE011995E881F9810688F78965
:1022B000E02DCE01DF91CF911F910F91FF90EF9014
:1022C000DF90CF90BF90AF909F908F901994EF9236
:1022D000FF920F931F93DC01ED91FC9100A0F1A1FF
:1022E000E02D19951F910F91FF90EF9008950F9396
:1022F0001F93DC01ED91FC91068CF78DE02D199573
:102300001F910F9108950F931F93DC01ED91FC91A4
:10231000048CF58DE02D19951F910F910895DC0126
:10232000ED91FC910084F185E02D19943F924F923C
:102330005F926F927F928F929F92AF92BF92CF9255
:10234000DF92EF92FF920F931F93CF93DF9300D012
:102350001F92CDB7DEB75C013B016A01490128013C
:1023600087E0480E511C93E0559447949A95E1F705
:10237000CA018E0D9F1D9A838983F12CE12C312C8B
:102380001C821B828B819C8187709927330C892B3F
:1023900061F4EB81FC8183E0F595E7958A95E1F79F
:1023A000EE0DFF1DE80DF91D349037FE09C021E048
:1023B00030E0A6016B817C81660D771DC501AFDF22
:1023C0008B819C8101969C838B8308171907D1F61A
:1023D0009FEFC91AD90AE40CF51C89819A81C816A5
:1023E000D90671F60F900F900F900F90DF91CF915B
:1023F0001F910F91FF90EF90DF90CF90BF90AF9023
:102400009F908F907F906F905F904F903F90089536
:102410002F923F924F925F926F927F928F929F92F4
:10242000AF92BF92CF92DF92EF92FF920F931F93E2
:10243000CF93DF9300D000D0CDB7DEB73C016A0167
:102440003E832D83FC82EB825801A41AB50AB7FEA5
:1024500003C0B194A194B1088D809E80861A970A1A
:1024600097FE03C09194819491088A149B045CF0B8
:10247000902F812F0D811E819D838E839C2D8D2D0C
:102480006B01692F782F0C151D055CF09D818E81E5
:102490007E836D83692F782F902F812F8601C92E1F
:1024A000D82E1601201A310A2B012D813E81421AA5
:1024B000530A57FE03C0519441945108710137FEED
:1024C00003C03FEFE31AF30AF594E7948D819E81F0
:1024D000861797075CF5A1E0B0E0BA83A983C01620
:1024E000D1064CF1D301ED91FC910484F585E02DEA
:1024F0002B813C81A8016D817E818A149B041CF094
:102500004D815E81B801C3011995E418F508F7FE05
:102510000AC02D813E8189819A81280F391F3E830F
:102520002D83E20CF31C0F5F1F4FD9CF2FEF3FEF2E
:102530003A832983D4CF26960FB6F894DEBF0FBE18
:10254000CDBFDF91CF911F910F91FF90EF90DF9062
:10255000CF90BF90AF909F908F907F906F905F9043
:102560004F903F902F90089585ED8093BC0080910F
:10257000BC0084FDFCCF10926905089520914305AD
:10258000260F3327331F21323105ECF420916905E2
:10259000FC0190E080E0243069F082E00895A09191
:1025A00043052191AC014F5D5A4FA40FB52FB11DCA
:1025B0002C930196861798F380914305680F6093DA
:1025C000430580E0089581E0089508950895E0911D
:1025D0001E0580911D05E81730F4F0E0E350FB4F35
:1025E000808190E008958FEF9FEF089590911E05F0
:1025F00080911D052FEF3FEF981748F4E92FF0E089
:10260000E350FB4F208130E09F5F90931E05C9018E
:10261000089580911D0590911E05891B990B0895C1
:10262000CF92DF92EF92FF920F931F93CF93DF939E
:102630007C01CB018A012091FC04222389F0EB016B
:102640006B01C40ED51ECC15DD0561F06991D70173
:10265000ED91FC910190F081E02DC7011995F3CF28
:10266000642F8CDFC801DF91CF911F910F91FF90F4
:10267000EF90DF90CF900895CF93DF931F92CDB767
:10268000DEB769832091FC042223F9F020911F0515
:10269000203258F021E030E0FC013383228390E0C7
:1026A00080E00F90DF91CF91089580912005E82F71
:1026B000F0E0E452FB4F998190838F5F8093200577
:1026C00080931F0581E090E0ECCF61E0CE010196A0
:1026D00055DFF8CF20911F0581E0213208F044C07A
:1026E000809169058111FCCF8091DB0492E0909389
:1026F000690591E090936B059FEF909368051092A8
:102700008D0520938C05ACEDB4E0ECE6F5E090E0AF
:10271000291331C010928E0590918E05880F892B58
:1027200080938E0580916A05813049F510926A0583
:1027300080918E058093BB008091BC0083FDF8CF13
:1027400085EC8093BC00809169058230E1F3809133
:1027500068058F3FB1F0809168058032A1F08091CB
:102760006805803391F084E01092200510921F05D7
:102770001092FC0408953D9131939F5FC9CF85EE7F
:10278000E0CF80E0F1CF82E0EFCF83E0EDCFEF92BA
:10279000FF920F931F93CF93DF93EC01EC80FD80AA
:1027A0006E157F050CF070C057FF04C0240F351F55
:1027B00050E040E08E819F81FA01E20FF31F8E17F7
:1027C0009F071CF49C01241B350B121613060CF0FA
:1027D0005BC0922F842F8695869586958E9DD0011D
:1027E0008F9DB00D11246A0F7B1FAF8DB8A1A60F6E
:1027F000B71F477049F188E0841B482F682F70E0AD
:10280000FB01E954F94FE491281708F063C0621BFB
:1028100071092FEF30E002C0359527956A95E2F7F0
:10282000E2230130110539F0B0F10230110561F5F4
:102830008C91E82702C08C91E82BEC93941720F13F
:102840002C813D81A20FB31FE92FE41BE83078F003
:102850000230110521F58E2F9C9190959C932C812F
:102860003D81A20FB31F88508830B0F7E770EE2388
:1028700059F0F0E0E155F94FE49101301105F9F01C
:1028800010F10230110519F1DF91CF911F910F91D5
:10289000FF90EF900895E0958C91E823CECF81E0F2
:1028A0000115110509F480E081959E2F8C932C81F0
:1028B0003D81A20FB31F98509830C0F7D7CF8C91AD
:1028C000E82BEC93E1CFE0958C91E823FACF8C9143
:1028D000E827F7CF0130110509F4ADCFE0F202305F
:1028E000110509F4A5CFAE0DBF1DAECF0F931F93F9
:1028F000CF93DF9377FF04C0260F371F70E060E0AF
:10290000DC011496CD91DC91FB01E20FF31FCE1791
:10291000DF071CF49E01261B370B121613064CF51D
:10292000FA0157FD3796A3E0F595E795AA95E1F7EB
:10293000EC9FD001ED9FB00DFC9FB00D11246A0FEC
:102940007B1FDC015F96ED91FC91E60FF71F47704E
:10295000552781E090E001C0880F4A95EAF7482F9B
:102960000130110559F0A8F02E0F3F1F023011055C
:10297000E1F0DF91CF911F910F9108952E0F3F1F2E
:10298000E217F307B1F38191DF011197842B8C9348
:10299000F7CF80952E0F3F1FE217F30751F3919168
:1029A000DF01119798239C93F7CFE217F30709F300
:1029B0008191DF01119784278C93F7CF0F931F9399
:1029C000FA01DC0156964C9156974230E1F04330C3
:1029D00091F1413059F514964D915C91DA01AE1B9D
:1029E000BF0BFD01E21BF30B77FD0AC0DC0116965D
:1029F0004D915C91641775071CF4AB01BF0176DF44
:102A00001F910F91089514964D915C91DA01A61BC8
:102A1000B70BBD0161507109DC0116964D915C91B7
:102A2000DA01AE1BBF0BFD01E21BF30B77FDE8CF14
:102A3000AF01ADDEE5CF16964D915C91DA01A61B94
:102A4000B70BBD0161507109CFCF0F931F93FA01EE
:102A5000DC0156964C9156974230A1F0433081F1FB
:102A6000413011F514964D915C91DA01AE1BBF0B0C
:102A7000FD013197F7FD03C0AB01BF0188DE1F9157
:102A80000F91089514964D915C91DA01A61BB70B36
:102A9000BD01DC0116964D915C91DA01AE1BBF0BB6
:102AA000FD013197621B730BF7FDE9CFDC01169630
:102AB0004D915C91E417F50714F7AF0117DFDFCFF5
:102AC00016964D915C91DA01A61BB70BBD01621BF6
:102AD000730BD0CFFC0177FD64C0808591856817AA
:102AE00079070CF05EC057FD5CC08285938548175E
:102AF00059070CF056C086898230B1F0833029F135
:102B0000813041F484819581841B950BAB01BC011C
:102B1000615071092130310509F108F443C02230B8
:102B2000310509F463C0089584819581DC01A61BF9
:102B3000B70BBD016150710986819781DC01A41B2F
:102B4000B50BAD0141505109E5CF86819781861BB8
:102B5000970BBA01AC0141505109DCCFCA0157FDB6
:102B60000796A3E095958795AA95E1F7A481B5818D
:102B70008A9F90018B9F300D9A9F300D1124620F18
:102B8000731F078CF0A1E02DE60FF71F4770552744
:102B900021E030E001C0220F4A95EAF78081822BC4
:102BA00080830895CA0157FD079633E09595879570
:102BB0003A95E1F7A481B5818A9F90018B9F300DF2
:102BC0009A9F300D1124620F731F078CF0A1E02D26
:102BD000E60FF71F4770552781E090E001C0880F8E
:102BE0004A95EAF7809590818923DACFCA0157FD8B
:102BF000079623E0959587952A95E1F7A481B581FD
:102C00008A9F90018B9F300D9A9F300D1124620F87
:102C1000731F078CF0A1E02DE60FF71F47705527B3
:102C200021E030E001C0220F4A95EAF78081822737
:102C3000B7CF08958EBD00000DB407FEFDCF8EB551
:102C40000895DF92EF92FF920F931F93CF93DF933C
:102C5000EC01D62E072F142F8D8D9E8D009709F431
:102C60004BC029A131E03093FC042093DB04109287
:102C7000200510921F05DC01ED91FC910190F0817F
:102C8000E02D60E01995ED2CF02E01E0DD24D394C9
:102C900011508D8D9E8D1F3F39F10032A8F01ADD45
:102CA0008D8D9E8D29A1D092FC042093DB0410927F
:102CB000200510921F05DC01ED91FC910190F0813F
:102CC000E02D60E0199501E08D8D9E8DF7016491F6
:102CD000DC01ED91FC910190F081E02D19950F5FE1
:102CE000BFEFEB1AFB0AD4CFDF91CF911F910F9169
:102CF000FF90EF90DF90EECCEDA5FEA590818BA923
:102D0000809589238083E62EF72E115068F1F70114
:102D100084912B8D3C8D232B29F08CDFEFEFEE1A65
:102D2000FE0AF3CF28E030E040E8E9A5FAA599A92A
:102D3000582F5423A9F05081952B9083EBA5FCA527
:102D400090815AA9952B9083EBA5FCA550819AA957
:102D500090959523908346952150310931F7DECF28
:102D6000508190959523E9CFDF91CF911F910F91DD
:102D7000FF90EF90DF9008951F93CF93DF93EC01C6
:102D80008D8D9E8D009719F1162F29A131E030937A
:102D9000FC042093DB041092200510921F05DC0137
:102DA000ED91FC910190F081E02D60E019958D8D01
:102DB0009E8DDC01ED91FC910190F081E02D612F61
:102DC00019958D8D9E8DDF91CF911F9183CCADA5EF
:102DD000BEA59C918BA9809589238C938B8D9C8D0E
:102DE000892B29F0862FDF91CF911F9123CF28E0E7
:102DF00030E080E8A9A5BAA599A9462F4823C1F0DB
:102E00004C91942B9C93ABA5BCA59C914AA9942B67
:102E10009C93ABA5BCA54C919AA9909594239C93A7
:102E200086952150310931F7DF91CF911F91089597
:102E30004C9190959423E6CF8CBD9DBD08951F9332
:102E4000CF93DF93EC01162F8D8D9E8D892BA9F1E9
:102E50002DA93EA94FA958AD60E074E284EF90E03F
:102E60000E94104220513109410951095695479558
:102E7000379527952093B80066EA111167EACE01CD
:102E80007BDF8D8D9E8D892B39F129AD3AAD4BAD10
:102E90005CAD60E074E284EF90E00E94104220514B
:102EA0003109410951095695479537952795209342
:102EB000B800DF91CF911F9108958B8D9C8D892B48
:102EC00019F08EAD9FADB8DFEFA5F8A990818CA960
:102ED000809589238083D0CFEFA5F8A980819CA914
:102EE000892B8083E6CFCF92DF92EF92FF920F93F0
:102EF0001F93CF93DF93EC018D8D9E8D892B09F469
:102F00007CC02DA93EA94FA958AD60E074E284EFC2
:102F100090E00E9410422051310941095109569513
:102F20004795379527952093B80045E06AEA76E003
:102F3000CE0187DE6C816150CE011EDF2E813F8184
:102F4000C901079697FD079623E0959587952A95E1
:102F5000E1F72C813D81829F7001839FF00C929F4D
:102F6000F00C11240F8D18A18D8D9E8DE00EF11E99
:102F7000009709F474C029A131E03093FC04209338
:102F8000DB041092200510921F05DC01ED91FC91ED
:102F90000190F081E02D60E41995DD24D394CC24D8
:102FA000C3948D8D9E8DE016F106B1F1BFE1BD1584
:102FB000B0F490DB8D8D9E8D29A1C092FC042093EE
:102FC000DB041092200510921F05DC01ED91FC91AD
:102FD0000190F081E02D60E41995DD24D3948D8D6E
:102FE0009E8DF80161918F01DC01ED91FC910190C2
:102FF000F081E02D1995D394D4CF8B8D9C8D892BA6
:1030000019F08EAD9FAD18DFEFA5F8A990818CA9BE
:1030100080958923808389CF5DDB8D8D9E8D892B63
:1030200009F451C029AD3AAD4BAD5CAD60E074E23E
:1030300084EF90E00E94104220513109410951096A
:1030400056954795379527952093B800DF91CF91F6
:103050001F910F91FF90EF90DF90CF900895EDA515
:10306000FEA580819BA9892B8083E016F106A9F239
:10307000F80181918F012B8D3C8D232B11F0DADD2E
:10308000F4CF28E030E040E8E9A5FAA599A9582F47
:103090005423A9F05081952B9083EBA5FCA590813A
:1030A0005AA9952B9083EBA5FCA550819AA99095E0
:1030B0009523908346952150310931F7D6CF508121
:1030C00090959523E9CFEFA5F8A980819CA9892B3C
:1030D0008083BCCF86E090E0909315028093140229
:1030E000089585E090E0909315028093140208956E
:1030F00084E090E0909315028093140208958091EB
:103100005A070E94EF0821E0019709F020E0209380
:103110005E0780915E07882369F080915F078823AE
:1031200049F0809160079091610701979093610742
:103130008093600710925F0781E080936207089593
:1031400080915C070E94EF0821E0019709F020E0E0
:1031500020935F0780915E0781110DC080915F070A
:10316000811109C080916007909161070196909349
:1031700061078093600781E080935E078093620718
:10318000089582E090E0909315028093140285E206
:1031900097E090939F0580939E050895CF93DF93CA
:1031A000EC010E949B0CCE01DF91CF910C94263E46
:1031B000DC01ED91FC91369720813181820F931FC4
:1031C000EDCFCF93DF93EC0188819981009711F0C7
:1031D0000E94263E198218821D821C821B821A823E
:1031E000DF91CF910895FC0180819181009711F0CA
:1031F0000C94263E0895CF92DF92EF92FF920F93A8
:103200001F93CF93DF93FC012481358162177307ED
:10321000D8F46B01EC0186E0869F8001879F100D3A
:1032200011247B018C819D81E816F90658F4888170
:103230009981800F911FD7DFFFEFEF1AFF0A0A5F16
:103240001F4FF0CFDD82CC82DF91CF911F910F9184
:10325000FF90EF90DF90CF900895CF93DF93EC0134
:103260000E94550CCE01DF91CF910C94263EDC01DB
:10327000ED91FC91369720813181820F931FEDCF24
:103280000C94263E0C94263EDC01ED91FC91369781
:1032900020813181820F931FF5CF0C94263E0C9430
:1032A000263EDC01ED91FC91369720813181820F21
:1032B000931FF5CF0C94263EEF92FF920F931F932E
:1032C000CF93DF937C01D0E0C0E010E000E0F70195
:1032D00080819181248135810217130738F48C0F86
:1032E0009D1F81DF0F5F1F4F2696F1CFDF91CF919A
:1032F0001F910F91FF90EF900C94263ECF93DF9398
:10330000EC018EA59FA50E94263E8FA198A50E9444
:10331000263ECE018096D0DFCE014896DF91CF9138
:1033200062CF0F931F93CF93DF93EC010881198134
:103330007B836A83CB01880F991F0E948A3D888313
:1033400099832C813D81FC01D80190E080E0281711
:10335000390759F0309729F04D915C9111975183BD
:103360004083019632961296F2CFC801DF91CF9139
:103370001F910F910C94263EEF92FF920F931F9393
:10338000CF93DF93EC018B017A018A819B818617B1
:10339000970738F4685F7F4F8617970710F4CE01C0
:1033A000C0DF8C819D819C01220F331F8017910704
:1033B00078F4E881F981E20FF31F309729F0D70103
:1033C0004D915C915183408301962E5F3F4FEECF2C
:1033D0001D830C83DF91CF911F910F91FF90EF9090
:1033E00008950F931F93CF93DF93EC010881198108
:1033F0007B836A83CB01880F991F0E948A3D888353
:1034000099832C813D81FC01D80190E080E0281750
:10341000390759F0309729F04D915C9111975183FC
:103420004083019632961296F2CFC801DF91CF9178
:103430001F910F910C94263E0F931F93CF93DF9310
:10344000EC018B0180914E0790914F078C179D07DF
:1034500048F4BE01685F7F4F8617970718F48CE425
:1034600097E0BFDF80915007909151079C01220F98
:10347000331FE0914C07F0914D07E20FF31F8C17BB
:103480009D0750F4309729F0D8012D913C9131835C
:10349000208301963296F3CFD0935107C093500703
:1034A000DF91CF911F910F910895FC0126893789F3
:1034B00082A993A92817390760F4220F331F86A524
:1034C00097A5280F391F81E0F90120813181232B35
:1034D00009F480E0089520914E0630914F0682173E
:1034E0009307B8F4FC01EE0FFF1F8E0F9F1FE091B2
:1034F0004A06F0914B06E80FF91F808192819923CB
:1035000021F0128260E00C94170991E0928361E04F
:10351000FACF08950F931F93CF93DF938C01D0E0E0
:10352000C0E080914E0690914F06C817D907A8F4C5
:10353000C017D10781F0CE01880F991F8C0F9D1FF6
:10354000E0914A06F0914B06E80FF91F128260E005
:1035500080810E9417092196E4CFDF91CF911F91BE
:103560000F91089584E090E0D5DF84E090E0B3CF40
:1035700083E090E0CFDF83E090E0ADCF82E090E0A9
:10358000C9DF82E090E0A7CF81E090E0C3DF81E077
:1035900090E0A1CF90E080E0BDDF90E080E09BCFA5
:1035A00020918307309184078217930710F00E94BF
:1035B000524340EB51E0849F9001859F300D949FD2
:1035C000300D112480917F0790918007820F931F07
:1035D00008958F929F92AF92BF92CF92DF92EF9217
:1035E000FF920F931F93CF93DF93CDB7DEB7C05BEE
:1035F000D1400FB6F894DEBF0FBECDBF10929F072B
:1036000010929E0784E190E09093A1078093A00719
:1036100090E080E0C5DF20EB31E0FC01DE01119697
:1036200001900D9221503040D9F7C0909C07D09066
:103630009D07E0909A07F0909B07FC01228133815F
:1036400084819581A901481B590BCA0160E370E090
:103650000E94FD414B015E0151E1A50EB11C8701A5
:1036600004561109F501819191915F01B4010E9405
:10367000FD41A601461B570B21E030E0B80182E96D
:1036800097E028DA0F5F1F4F0E151F0559F7C05539
:10369000DE4F0FB6F894DEBF0FBECDBFDF91CF91E6
:1036A0001F910F91FF90EF90DF90CF90BF90AF9060
:1036B0009F908F90089540914A0650914B066091DB
:1036C0004E0670914F0630E020E02617370751F084
:1036D0004D5F5F4FFA0131978081811104C02F5FE8
:1036E0003F4FF3CF80E00895CF93DF93D0E0C0E069
:1036F00080914E0690914F06C817D90790F4CE01DD
:10370000880F991F8C0F9D1FE0914A06F0914B0680
:10371000E80FF91F128260E080810E94170921964C
:10372000E7CFDF91CF9108950E94524320919807EF
:1037300030919907C901079697FD079623E0959563
:1037400087952A95E1F72091960730919707829FF8
:10375000A001839F500D929F500D112470E060E0F6
:103760008091B1079091B2070C94873FFB010190C3
:103770000020E9F73197AF01461B570BDC01ED91B3
:10378000FC910280F381E02D19940F931F93CF9346
:10379000DF93EC01FB014481558160817181E881F7
:1037A000F9810280F381E02D19958C0166E273E0C6
:1037B000CE01DCDF800F911FDF91CF911F910F9120
:1037C0000895BC01E2E9F7E092E0948B958B21E04B
:1037D00030E0338B228B318B208B15861486178635
:1037E0001686CF01D2CFEF92FF920F931F93CF9304
:1037F000DF938091B1079091B207892B31F196DF69
:10380000809198079091990760919607709197071A
:10381000813291050CF04EC0AC014052510957FF66
:1038200002C04F5F5F4F559547956357710977FF0A
:1038300002C06F5F7F4F75956795F0E2EF2EF12C18
:1038400003E710E020EF31E04DC020919807309160
:103850009907C901079697FD079613E095958795F7
:103860001A95E1F72091960730919707AC01429F96
:10387000C001439F900D529F900D11240E948A3DDC
:103880009093B2078093B107892B09F0B8CFC0E9B4
:10389000D6E0FE016491662339F08DEA95E00E943E
:1038A000ED072196892BA9F766E273E08DEA95E092
:1038B0005DDFFFCFAC014054510957FF02C04F5F9D
:1038C0005F4F559547956255710977FF02C06F5F4D
:1038D0007F4F75956795C0E4EC2EF12C02E510E062
:1038E00020ED33E082E997E00E94961182E0809318
:1038F000B4078091AF079091B007892B09F401C1FB
:103900008CE38093B30710921E0510921D05109250
:10391000200510921F051092690581E080936B05C8
:1039200010926A0561E084E10E94170961E085E177
:103930000E9417098091B9008E7F8093B900809111
:10394000B9008D7F8093B90088E48093B80085E446
:103950008093BC0085EE92E19093420580934105EF
:1039600086EE92E190934605809345058091BA07D3
:1039700087FD1EC061E00E94440961E08091BA07A2
:103980000E94170961E070E080E090E00E949A09CF
:1039900060E08091BA070E9417096AE070E080E059
:1039A00090E00E949A0961E08091BA070E9417098D
:1039B0008091AF079091B007892B09F461C12091E4
:1039C000C7073091C8074091C9075091CA0760E006
:1039D00074E284EF90E00E941042205131094109C5
:1039E000510956954795379527952093B80044E09F
:1039F0006CEE71E082E997E024D9609198076150FC
:103A000082E997E0B9D944E068EE71E082E997E095
:103A100018D98091B40764E1813009F460E182E94A
:103A200097E0AAD944E064EE71E082E997E009D911
:103A30008FE88093CF078091960790919707803801
:103A4000910509F035C180919807909199078034CC
:103A5000910509F03DC18091B407813009F426C178
:103A60008FEC8093CF07C2E16AED82E997E084D9B9
:103A70006C2F82E997E080D961E882E997E07CD9F0
:103A80006091CF0782E997E077D969ED82E997E005
:103A900073D98091B40761EF813009F462E282E961
:103AA00097E06AD946E06EED71E082E997E0C9D807
:103AB0008091AF079091B007892B09F40DC1209137
:103AC000CB073091CC074091CD075091CE0760E0F5
:103AD00074E284EF90E00E941042205131094109C4
:103AE000510956954795379527952093B80081E061
:103AF0008093A305DF91CF911F910F91FF90EF90DD
:103B0000089561E08091B8070E94440961E08091C6
:103B1000B9070E9444098091B807082E000C990B40
:103B2000FC01E35FF34FE491F0E0EE0FFF1FE7527B
:103B3000F44F259134913093C0072093BF07FC01C7
:103B4000ED5AF34FE491E093C5078091B907082E31
:103B5000000C990BFC01E35FF34FE491F0E0EE0FF2
:103B6000FF1FE752F44FA591B491B093C207A09301
:103B7000C107FC01ED5AF34FE491E093C6078C9125
:103B8000E82BEC938091AD079091AE07892B09F457
:103B900034C0CFB7F8948091DA04811127C0E2E4F1
:103BA000FCE08491E8E8FCE09491E82FF0E0EE0F6F
:103BB000FF1FE154F44FA591B491EC91E92321F456
:103BC00061E085E30E94170961E085E30E944409F2
:103BD0008CB580618CBD8CB580648CBD61E084E364
:103BE0000E94440961E083E30E9444098091DA0461
:103BF0008F5F8093DA04CFBFB9CE61E08091B607C2
:103C00000E94440961E08091B7070E9444098091B5
:103C1000B607082E000C990BFC01E35FF34FE4910B
:103C2000F0E0EE0FFF1FE752F44F259134913093EF
:103C3000BC072093BB07FC01ED5AF34FE491E093DE
:103C4000C3078091B707082E000C990BFC01E35FB6
:103C5000F34FE491F0E0EE0FFF1FE752F44FA59110
:103C6000B491B093BE07A093BD07FC01ED5AF34F8A
:103C7000E491E093C4078C91E095E823EC9376CE31
:103C80008091AD079091AE07892B29F08091D007E4
:103C90009091D107D1D8E091C107F091C2079081EE
:103CA0008091C607809589238083A1CE8FE9D9CEE4
:103CB0008036910569F48091980790919907409713
:103CC00039F48091B407813029F08FEA8093CF07CF
:103CD000C2E0CACE80E1FACFE091C107F091C207FD
:103CE00080819091C607892B808301CFCF93DF938A
:103CF000DC0114962D913C911597232B79F0FB0153
:103D0000CD91DC9160817181CE010E946E4300975C
:103D100029F08C1B9D0BDF91CF9108958FEF9FEFC2
:103D2000FACF0F931F93CF93DF93EC018881998192
:103D3000009759F02A813B812617370730F081E040
:103D4000DF91CF911F910F9108958B016F5F7F4F8E
:103D50000E947642009759F0998388831B830A83D7
:103D60002C813D81232B59F7FC011082E8CF80E0A4
:103D7000E7CFEF92FF920F931F93CF93DF936115DD
:103D8000710541F480E0DF91CF911F910F91FF9079
:103D9000EF90089541155105A9F07B01EC010C81CC
:103DA0001D81040F151FB801BCDF882359F328813A
:103DB00039818C819D81B701820F931F0E946743D7
:103DC0001D830C8381E0DFCFCF93DF93EC01FB01F8
:103DD00001900020E9F73197AF01461B570BC9DF6F
:103DE000811102C0CE01EDD9CE01DF91CF910895AE
:103DF000CF93DF93EC01FB01448155816081718198
:103E0000B8DF811102C0CE01DCD9CE01DF91CF91A4
:103E10000895EF92FF920F931F93CF93DF93EC01DE
:103E20007B018A01BA017DDF81110AC0CE01C9D9A7
:103E3000CE01DF91CF911F910F91FF90EF900895E8
:103E40001D830C83B701888199810E946743F0CF5D
:103E5000FB0101900020E9F73197AF01461B570B9A
:103E6000D8CFEF92FF920F931F93CF93DF93CDB7ED
:103E7000DEB7A1970FB6F894DEBF0FBECDBF7C01B1
:103E8000CB01BA01F70111821082138212821582CE
:103E900014828E010F5F1F4F22E044E00E946E3BB0
:103EA000009781F0BC01C701D3DFA1960FB6F8944B
:103EB000DEBF0FBECDBFDF91CF911F910F91FF905D
:103EC000EF900895C7017DD9F0CF0F931F93CF9343
:103ED000DF9300D000D000D0CDB7DEB78C01862FA5
:103EE000F8011182108213821282158214824AE034
:103EF000BE016F5F7F4F90E00E94953BBE016F5FF8
:103F00007F4FC801A5DF29960FB6F894DEBF0FBE1C
:103F1000CDBFDF91CF911F910F9108950F931F9304
:103F2000CF93DF93CDB7DEB762970FB6F894DEBFBD
:103F30000FBECDBF8C01CB01F8011182108213821C
:103F40001282158214824AE0BE016F5F7F4F0E9489
:103F50008B3BBE016F5F7F4FC8017ADF62960FB661
:103F6000F894DEBF0FBECDBFDF91CF911F910F91AF
:103F700008950F931F93CF93DF93CDB7DEB761976B
:103F80000FB6F894DEBF0FBECDBF8C01CB01F80198
:103F90001182108213821282158214824AE0BE01BD
:103FA0006F5F7F4F0E94953BBE016F5F7F4FC801DF
:103FB0004FDF61960FB6F894DEBF0FBECDBFDF9125
:103FC000CF911F910F910895CF93DF93EC01FB01E7
:103FD0008617970741F0608171816115710539F08D
:103FE0004481558116DFCE01DF91CF910895E9D844
:103FF000FACFFC0111821082138212821582148280
:10400000E3CFCF92DF92EF92FF920F931F93CF9364
:10401000DF938C01FC01E080F1807383628386E092
:10402000F82FF69FC001F79F900D11240E948A3D42
:10403000F80191838083E701D12CC12CF8018481A0
:104040009581C816D90690F4808191819E012E1920
:104050003F09820F931F009711F0BE01CADFCE0106
:10406000C2D8FFEFCF1ADF0A2696E8CFC701DF914B
:10407000CF911F910F91FF90EF90DF90CF900C9414
:10408000263EAF92BF92CF92DF92EF92FF920F93B4
:104090001F93CF93DF93EC018B016A018A819B818F
:1040A0008617970738F4685F7F4F8617970710F4D5
:1040B000CE01A7DFEC80FD8086E08E9D50018F9DB4
:1040C000B00C1124E016F10678F4888199818A0DEC
:1040D0009B1D009711F0B6018CDF8FEFE81AF80AEC
:1040E00086E0A80EB11CEECF1D830C83DF91CF912B
:1040F0001F910F91FF90EF90DF90CF90BF90AF9006
:104100000895EF92FF920F931F93CF93DF931F9227
:104110001F92CDB7DEB78B012091490730914A0736
:10412000B9016F5F7F4F2617370708F04CC0AC010D
:1041300085E497E0A6DF20915007309151078091E8
:10414000490790914A07A9014F5F5F4F48175907E8
:1041500050F41A821982019728173907D0F5BE0149
:104160006F5F7F4F69D920915007309151071A83B3
:1041700009838901000F111F0E5F1F4F7801F5940D
:10418000E794C90101962817390758F5BE016F5FFA
:104190007F4F52D9209150073091510780914C07A1
:1041A00090914D07F901EE0FFF1FE80FF91F215005
:1041B0003109E216F306D0F4DF0114974D915C91BA
:1041C00052934293F4CF70E060E085E497E013D817
:1041D000B2CF8217930738F6909351078093500718
:1041E000C2CF1092510710925007D4CF29813A8143
:1041F000800F911FFC01318320830F900F90DF917E
:10420000CF911F910F91FF90EF900895AF92BF92C1
:10421000CF92DF92EF92FF920F931F93CF93DF9392
:1042200000D01F92CDB7DEB78C015C834B838096A4
:10423000F80144A155A19A012F5F3F4F4217530740
:1042400008F054C0AB01B9011CDFF80182A993A9A1
:1042500064A175A15801FEE2AF0EB11C9C012F5F55
:104260003F4F2617370768F41A8219826150710987
:104270008617970708F03FC0AE014F5F5F4FC5013B
:104280007BD8F80122A933A97901EE0CFF1CF2E0DA
:10429000EF0EF11C6701D594C794B9016F5F7F4F92
:1042A0002617370778F5AE014D5F5F4FC50164D81B
:1042B000F80142A953A99A01220F331FF80186A5DC
:1042C00097A541505109B90162507109C416D5062C
:1042D000E8F4280F391FF901349720813181860FC6
:1042E000971FFC01318320839B01E8CF70E060E0E1
:1042F0000E94FB18AACF6817790718F6F80173AB6C
:1043000062ABBFCFF80113AA12AAD2CF2B813C8196
:104310008E0D9F1DFC01318320830F900F900F9015
:104320000F90DF91CF911F910F91FF90EF90DF9051
:10433000CF90BF90AF900895AF92BF92CF92DF928F
:10434000EF92FF920F931F93CF93DF93EC018B01BA
:104350006817790709F461C0FB01648175818A815E
:104360009B818617970710F4CE014BDE8C819D81CF
:10437000F801A480B5808A159B0508F45C01F12C36
:10438000E12CD12CC12CCA14DB0489F0F801608126
:1043900071816E0D7F1D888199818E0D9F1D14DEA8
:1043A000FFEFCF1ADF0A86E0E80EF11CECCFEC80BD
:1043B000FD80F80184819581E816F90618F586E0FC
:1043C0008E9D60018F9DD00C1124F8018481958110
:1043D000E816F906B8F4888199818C0D9D1D009727
:1043E00029F0608171816C0D7D1D03DE8C819D81C2
:1043F00001969D838C83FFEFEF1AFF0A86E0C80EBB
:10440000D11CE3CFF801648175818C819D8168178F
:10441000790718F4CE010E94FB18CE01DF91CF91ED
:104420001F910F91FF90EF90DF90CF90BF90AF90D2
:104430000895EF92FF920F931F93CF93DF93EC01B8
:104440008B01DB018D919C91119799838883129642
:104450008D919C9113979B838A8314968D919C9147
:1044600015979D838C8316968D919C9117979F83AA
:104470008E8318968D919C911997998788871A96A3
:104480008D919C911B979B878A871C968D919C91FF
:104490001D979D878C871E968D919C911F979F8756
:1044A0008E8750968D919C915197998B888B5296BF
:1044B0008D919C9153979B8B8A8B54968D919C9157
:1044C00055979D8B8C8B56968D919C9157979F8B72
:1044D0008E8B6C177D07F9F0888D998D009709F404
:1044E0005EC058966D917C9159976115710509F4DC
:1044F00054C04A8D5B8D5C962D913C9142175307B9
:1045000008F44BC00E946743F801848D958D9D8F00
:104510008C8F158E148EF801868D978D9F8F8E8FC0
:10452000B801605E7F4FCE01809606DFCE01879690
:104530009801295D3F4F8217930709F482C0D80183
:104540009B966D917C9129A53AA52617370710F403
:104550000E94F1198BA59CA5F80143A554A5BC01A7
:104560004817590708F4BA0130E020E0261737074A
:10457000B1F17901EE0CFF1CF801A7A1B0A5AE0DB9
:10458000BF1D0D90BC91A02DEFA1F8A5EE0DFF1D54
:10459000B183A0832F5F3F4FE9CF0E94263ED80111
:1045A00058968D919C915997998F888F5A968D9195
:1045B0009C915B979B8F8A8F5C968D919C915D9768
:1045C0009D8F8C8F59961C921E9258975B961C92C9
:1045D0001E925A975D961C921E925C979CCF8417F0
:1045E000950728F59C01220F331FD8019B964D910A
:1045F0005C919C9784179507D0F4EFA1F8A5E20F82
:10460000F31F309751F097964D915C91DA01A20F0C
:10461000B31F4D915C91518340834BA55CA54F5FC7
:104620005F4F5CA74BA701962E5F3F4FDECFF8018F
:1046300083A594A52BA53CA58217930710F49CA7EE
:104640008BA7CE018E969801225D3F4F821793076C
:1046500009F460C0D801D2966D917C9128A939A93E
:104660002617370710F40E9491198AA99BA9F8010F
:1046700042A953A9BC014817590708F4BA0130E010
:1046800020E026173707A1F07901EE0CFF1CF80196
:10469000A6A5B7A5AE0DBF1D0D90BC91A02DEEA592
:1046A000FFA5EE0DFF1DB183A0832F5F3F4FE9CF24
:1046B0008417950728F59C01220F331FD801D29645
:1046C0004D915C91D39784179507D0F4EEA5FFA583
:1046D000E20FF31F309751F09E964D915C91DA01F5
:1046E000A20FB31F4D915C91518340834AA95BA9EE
:1046F0004F5F5F4F5BAB4AAB01962E5F3F4FDECF04
:10470000F80182A993A92AA93BA98217930710F45B
:104710009BAB8AABCE01DF91CF911F910F91FF90A0
:10472000EF900895FC01118210821382128215828B
:104730001482FB0101900020E9F73197AF01461B7D
:10474000570B67CBCF92DF92EF92FF920F931F939D
:10475000CF93DF93EC016B0182E090E09983888333
:1047600081E090E09B838A831D821C821F821E82CF
:104770008AE090E09987888724E130E03B872A87A8
:104780009D878C871F861E8608E010E0198B088B9A
:104790001B8B0A8B1F8A1E8A7E0188E1E80EF11CA2
:1047A00068E273E0C701BEDF1BA30AA31DA21CA21F
:1047B00080E390E00E948A3D99A388A31AA709A7E5
:1047C0001CA61BA680E190E00E948A3D98A78FA3BB
:1047D00019AB08AB1BAA1AAA80E190E00E948A3D9F
:1047E0009FA78EA7B601C701EFDB82E997E09D8BFB
:1047F0008C8BDF91CF911F910F91FF90EF90DF9005
:10480000CF900895AF92BF92CF92DF92EF92FF9236
:104810000F931F93CF93DF93EC015B016A0182E05A
:1048200090E09983888381E090E09B838A831D8256
:104830001C821F821E828AE090E09987888724E18B
:1048400030E03B872A879D878C871F861E8608E07D
:1048500010E0198B088B1B8B0A8B1F8A1E8A7E0126
:1048600088E1E80EF11C68E273E0C7015BDF1BA37F
:104870000AA31DA21CA280E390E00E948A3D99A396
:1048800088A31AA709A71CA61BA680E190E00E9496
:104890008A3D98A78FA319AB08AB1BAA1AAA80E17F
:1048A00090E00E948A3D9FA78EA7B501C7018CDBCF
:1048B000B601CE01809640DD82E997E09D8B8C8B1E
:1048C000DF91CF911F910F91FF90EF90DF90CF90EC
:1048D000BF90AF9008959F92AF92BF92CF92DF9218
:1048E000EF92FF920F931F93CF93DF93CDB7DEB775
:1048F0002E970FB6F894DEBF0FBECDBF8C0169E2D4
:1049000073E0CE0109960EDF6801F12CE12C8E01D7
:104910000F5F1F4F8AE0A82EB12C9DE0992E4AE030
:10492000B801F601819191916F010E948B3BF801D2
:1049300001900020E9F73197AF01401B510BB801FE
:10494000CE01099616DAFFEFEF1AFF0A84E6E816A1
:10495000F10421F541E050E06CE273E0CE010996EC
:1049600008DABE01675F7F4F8DEA95E00E94C51BA4
:10497000CE0109960E94F3182E960FB6F894DEBF6A
:104980000FBECDBFDF91CF911F910F91FF90EF90A0
:10499000DF90CF90BF90AF909F90089542E050E09D
:1049A0006EE273E0CE010996E4D9C701B5010E9419
:1049B000FD41892B09F0B3CF99821A8241E050E082
:1049C000B801CE010996D5D9AACF6F927F928F9266
:1049D0009F92AF92BF92CF92DF92EF92FF920F938E
:1049E0001F93CF93DF93CDB7DEB76E970FB6F894D2
:1049F000DEBF0FBECDBF8C01FC01468157816085B3
:104A00007185CE0101962DDA5801F8EDAF0EB11C7B
:104A1000F5016081CE01079658DA6801FAE5CF1AF0
:104A2000FEEFDF0AF60160817181CE010D9676DA24
:104A30004801F8E58F1AFEEF9F0AF4014081518189
:104A400062817381CE0143960CDA61E373E0CE019B
:104A5000499668DEBE016D5E7F4FCE014996C8D98A
:104A60006FE273E0B1D9BE01635F7F4FC1D96FE2DE
:104A700073E0AAD9BE01695F7F4FBAD96FE273E0D4
:104A8000A3D9BE016F5F7F4FB3D961E874E09CD9B1
:104A9000BC018DEA95E00E94C51BCE0149960E949B
:104AA000F318CE0143960E94F318CE010D960E9492
:104AB000F318CE0107960E94F318CE0101960E94CA
:104AC000F318F501E080F12C3701F8E06F0E711C4E
:104AD000660C771C600E711E0E551E4FF60160812C
:104AE0007181072E000C880B990B0E94A43F9B013B
:104AF000AC01F80160817181828193810E94414102
:104B00000E94A941F30171836083C7018B599F4FB4
:104B100064E670E00E94FD41F5018083F801108297
:104B2000118212821382F601118210826091A50512
:104B30007091A6058091A7059091A8050E94A23FBB
:104B4000F40160837183828393836E960FB6F89429
:104B5000DEBF0FBECDBFDF91CF911F910F91FF90B0
:104B6000EF90DF90CF90BF90AF909F908F907F900D
:104B70006F900895CF92DF92EF92FF920F931F9361
:104B8000CF93DF93EB017B0128ECE20EF11C8B014C
:104B90006C01C61AD70AC601800F911F0E94B74048
:104BA000F80181938F01EE15FF05A9F7CE01DF9182
:104BB000CF911F910F91FF90EF90DF90CF900895CC
:104BC000CF93DF93EB010E94B7408883CE01DF9142
:104BD000CF9108952F923F924F925F926F927F9262
:104BE0008F929F92AF92BF92CF92DF92EF92FF92FD
:104BF0000F931F93CF93DF93CDB7DEB7C754D1097F
:104C00000FB6F894DEBF0FBECDBFE091BD05F091A9
:104C1000BE0582E08083E091B905F091BA0510826B
:104C2000E091BB05F091BC0580E180831092C50541
:104C3000E091C105F091C20586E08083E091BF0557
:104C4000F091C005808180618083E091BF05F09183
:104C5000C005808188608083E091BF05F091C00528
:104C6000808180688083E091BF05F091C0058081DC
:104C70008F7D808367E473E08DEA95E00E94B61B28
:104C800066E273E08DEA95E00E94B61B1D821E82EB
:104C900018861F82198682E190E09A83898383E1D6
:104CA00090E09C838B8360E082E10E94440960E095
:104CB00083E10E94440990E080E00E94B7408F8326
:104CC00081E090E00E94B740888789E0FE0131963C
:104CD000AAE5B7E001900D928A95E1F710E000E0B7
:104CE00080914E0690914F060817190790F4C8015D
:104CF000880F991F800F911FE0914A06F0914B0693
:104D0000E80FF91F61E080810E9444090F5F1F4F87
:104D1000E7CF512C412CF12CE12C30EB232E332406
:104D2000339480917C0790917D07E816F90608F08E
:104D30003AC1E0917807F0917907C701880F991F70
:104D4000E80FF91F80809180C0908307D09084077E
:104D500086010F5F1F4FC016D10608F01FC12091BA
:104D600081073091820720173107C8F5C6010996DF
:104D700028173907A0F5B0907F07A090800790937F
:104D80008207809381079C01229DC001239D900D85
:104D9000329D900D11240E948A3D80937F0790934D
:104DA00080074B2D5A2D9C0190E080E0C816D90653
:104DB00091F02115310549F060EB71E0FA01D9015C
:104DC00001900D9261507040D9F7019640555E4FA9
:104DD00020553E4FEBCF8B2D9A2D0E94263E809181
:104DE000830790918407829D9001839D300D929D51
:104DF000300D1124E0917F07F0918007E20FF31F3F
:104E00008017910778F5309749F19182808226EAE0
:104E100032E03383228320EF30E0358324835786CA
:104E20004686DF01A852BF4F1C92A753BF4F1C926A
:104E300011961D921D921D921C9213971496119615
:104E40001C921E9212961D921D921D921C921397F7
:104E500014961D921D921D921C9213970196E05577
:104E6000FE4FCECF1093840700938307C7010E94A3
:104E7000D01A8C01FC01668477845C01FEE0AF0EE1
:104E8000B11C9C01265F3F4F69014301821A930ABE
:104E9000C4018C0D9D1D0E94B740F60181936F01E6
:104EA000EA15FB05A9F7B80168527F4FC3010496C4
:104EB00087DEB8016F557E4FC301059681DEB801CC
:104EC000605F7F4FC301069655DEB80167527F4F82
:104ED000C30182539F4F4EDEC7010E94D01A8C013E
:104EE000FC01EF55FE4F6081CE0101960E94651FC7
:104EF000F801E852FF4F6081CE01C6960E94651FFF
:104F0000F8014285538564857585CE01CC960E9453
:104F1000311F63E573E0CE018E5B9F4F03DCBE0162
:104F2000645C7F4FCE018E5B9F4F0E94F81E63E64C
:104F300073E00E94E41EBE016A5C7F4F0E94F81E6F
:104F400063E773E00E94E41EBE016F5F7F4F0E9423
:104F5000F81EBC018DEA95E00E94C51BCE018E5B58
:104F60009F4F0E94F318CE01CC960E94F318CE01F9
:104F7000C6960E94F318CE0101960E94F318C8014C
:104F80004096A9DCC80187529F4FA5DCFFEFEF1ABE
:104F9000FF0A2AE6421A2EEF520AC3CE1092840765
:104FA0001092830763CF20915A0730915B0722301C
:104FB000310509F4D6C12330310509F4D4C1C90142
:104FC0004297049740F487E1821B43E050E060EA97
:104FD00078E10E94CA0920915C0730915D07223078
:104FE000310509F4C2C12330310509F4C0C1C9013A
:104FF0004297049740F487E1821B42E050E06FE75C
:1050000078E10E94CA090E94F31B6AE873E0CE01AE
:10501000C69688DBBE016A5C7F4FCE01019692DBAB
:10502000BE016F5F7F4F8BEB96E003DACE010196F6
:105030000E947E19CE01C6960E94F31864E973E0BF
:10504000CE01C6966FDB4AE657E0BE016A5C7F4F31
:10505000CE010196D7DBBE016F5F7F4F86E896E0F9
:10506000E8D9CE0101960E947E19CE01C6960E9413
:10507000F3186CE973E0CE01C69654DB43E657E0C3
:10508000BE016A5C7F4FCE010196BCDBBE016F5F43
:105090007F4F81E596E0CDD9CE0101960E947E1921
:1050A000CE01C6960E94F31865EA73E0CE01C6965B
:1050B00039DBBE016A5C7F4FCE01019643DBBE0146
:1050C0006F5F7F4F85E297E0B4D9CE0101960E94D1
:1050D0007E19CE01C6960E94F3186AEA73E0CE01EB
:1050E000019620DB4AE658E1BE016F5F7F4F86E8FC
:1050F00096E08CD8CE0101960E94F31864EB73E021
:10510000CE0101960FDB41E758E1BE016F5F7F4F93
:1051100081E596E07BD8CE0101960E94F31865ECFC
:1051200073E0CE010196FEDA4AEC5AE1BE016F5FF0
:105130007F4F8BEB96E06AD8CE0101960E94F31860
:105140006EEC73E0CE010196EDDA44EC5AE1BE015B
:105150006F5F7F4F8BEB96E059D8CE0101960E948E
:10516000F31867ED73E0CE010196DCDA4EEB5AE1FD
:10517000BE016F5F7F4F8BEB96E048D8CE01019662
:105180000E94F31860EE73E0CE010196CBDA48EB93
:105190005AE1BE016F5F7F4F8BEB96E037D8CE01AF
:1051A00001960E94F31869EE73E0CE010196BADA17
:1051B00042EB5AE1BE016F5F7F4F8BEB96E026D842
:1051C000CE0101960E94F31862EF73E0CE010196C2
:1051D000A9DA41EC58E1BE016F5F7F4F80EF96E0A6
:1051E00015D8CE0101960E94F31862EF73E0CE014C
:1051F000019698DA41EC58E1BE016F5F7F4F8BEB6F
:1052000096E004D8CE0101960E94F31862EF73E095
:10521000CE01019687DA41EC58E1BE016F5F7F4F06
:1052200086E896E00E940621CE0101960E94F318BE
:1052300062EF73E0CE01019675DA41EC58E1BE01F0
:105240006F5F7F4F81E596E00E940621CE010196B7
:105250000E94F31868EB73E0CE01019663DA48E729
:1052600058E1BE016F5F7F4F85E297E00E94062103
:10527000CE0101960E94F3186AEF73E0CE01019609
:1052800051DA6BEB76E0CE0101960E948120CE01CF
:1052900001960E94F3186BE074E0CE01019642DAA9
:1052A00066E876E0CE0101960E948120CE0101964B
:1052B0000E94F31863E174E0CE01019633DA61E5F0
:1052C00076E0CE0101960E948120CE0101960E94D7
:1052D000F31885E297E090939F0580939E0560E028
:1052E00082E00E94440960E08CE00E94440960E092
:1052F0008DE00E94440960E088E00E94440960E07B
:1053000087E00E94440961E084E30E94440961E06F
:1053100085E30E9444098091600790916107909312
:105320009D0580939C051092150210921402C95B92
:10533000DF4F0FB6F894DEBF0FBECDBFDF91CF9128
:105340001F910F91FF90EF90DF90CF90BF90AF90A3
:105350009F908F907F906F905F904F903F902F9095
:10536000089580E032CE81E030CE80E046CE81E00C
:1053700044CEFF920F931F93CF93DF93EC01F62E51
:1053800008811981C8010E94B740F81621F06F2DDD
:10539000C8010E94BF40CE01DF91CF911F910F91B4
:1053A000FF900895AF92BF92CF92DF92EF92FF925B
:1053B0000F931F93CF93DF931F921F92CDB7DEB74A
:1053C0008B016B0128ECC20ED11C7B015C01A61A7B
:1053D000B70AC5018E0D9F1D9A838983F7016191DC
:1053E0007F01CE010196C5DFEC14FD0491F7C801E1
:1053F0000F900F90DF91CF911F910F91FF90EF9041
:10540000DF90CF90BF90AF9008951F920F920FB68C
:105410000F9211240BB60F922F933F934F935F93EC
:105420006F937F938F939F93AF93BF93EF93FF936C
:105430008DEA95E00E94CB07FF91EF91BF91AF916C
:105440009F918F917F916F915F914F913F912F919C
:105450000F900BBE0F900FBE0F901F9018951F92CC
:105460000F920FB60F9211240BB60F922F938F93BA
:105470009F93EF93FF93E091BD05F091BE0580816E
:10548000E091C305F091C40582FD1DC0908180911B
:10549000C6058F5F8F732091C705821741F0E09199
:1054A000C605F0E0E355FA4F958F8093C605FF914E
:1054B000EF919F918F912F910F900BBE0F900FBE88
:1054C0000F901F9018958081F2CF1F920F920FB608
:1054D0000F9211242F933F938F939F93AF93BF937A
:1054E0008091940590919505A0919605B0919705AE
:1054F00030918F0523E0230F2D3758F50196A11D1C
:10550000B11D20938F058093940590939505A093EA
:105510009605B09397058091900590919105A09183
:105520009205B09193050196A11DB11D8093900540
:1055300090939105A0939205B0939305BF91AF917D
:105540009F918F913F912F910F900FBE0F901F90C1
:10555000189526E8230F0296A11DB11DD2CF1F92E8
:105560000F920FB60F9211240BB60F922F933F9309
:105570004F935F936F937F938F939F93AF93BF935B
:10558000EF93FF93E0910E02F0910F021995FF91B6
:10559000EF91BF91AF919F918F917F916F915F91AB
:1055A0004F913F912F910F900BBE0F900FBE0F9018
:1055B0001F9018951F920F920FB60F9211240BB6E1
:1055C0000F922F933F934F935F936F937F938F939C
:1055D0009F93AF93BF93EF93FF93E0910C02F091F1
:1055E0000D021995FF91EF91BF91AF919F918F910E
:1055F0007F916F915F914F913F912F910F900BBED3
:105600000F900FBE0F901F9018951F920F920FB61C
:105610000F9211240BB60F922F933F934F935F93EA
:105620006F937F938F939F93AF93BF93EF93FF936A
:10563000E0910202F09103021995FF91EF91BF9161
:10564000AF919F918F917F916F915F914F913F911A
:105650002F910F900BBE0F900FBE0F901F901895BB
:105660001F920F920FB60F9211240BB60F922F9329
:105670003F934F935F936F937F938F939F93AF93DA
:10568000BF93EF93FF93E0910002F091010219950F
:10569000FF91EF91BF91AF919F918F917F916F910A
:1056A0005F914F913F912F910F900BBE0F900FBEC6
:1056B0000F901F9018951F920F920FB60F92112402
:1056C0000BB60F922F933F934F935F936F937F93FC
:1056D0008F939F93AF93BF93EF93FF93E0910A0251
:1056E000F0910B021995FF91EF91BF91AF919F91AE
:1056F0008F917F916F915F914F913F912F910F907B
:105700000BBE0F900FBE0F901F9018951F920F9217
:105710000FB60F9211240BB60F922F933F934F9316
:105720005F936F937F938F939F93AF93BF93EF9309
:10573000FF93E0910802F09109021995FF91EF9112
:10574000BF91AF919F918F917F916F915F914F9199
:105750003F912F910F900BBE0F900FBE0F901F9097
:1057600018951F920F920FB60F9211240BB60F923D
:105770002F933F934F935F936F937F938F939F9359
:10578000AF93BF93EF93FF93E0910602F09107026E
:105790001995FF91EF91BF91AF919F918F917F915B
:1057A0006F915F914F913F912F910F900BBE0F9092
:1057B0000FBE0F901F9018951F920F920FB60F9269
:1057C00011240BB60F922F933F934F935F936F93D8
:1057D0007F938F939F93AF93BF93EF93FF93E0914A
:1057E0000402F09105021995FF91EF91BF91AF91DD
:1057F0009F918F917F916F915F914F913F912F91E9
:105800000F900BBE0F900FBE0F901F9018951F9218
:105810000F920FB60F9211240BB60F922F933F9356
:105820004F935F936F937F938F939F93AF93BF93A8
:10583000EF93FF938091B900887F803609F44DC0C3
:1058400008F040C0883209F4A9C028F5803109F475
:105850009DC0C8F4882309F4FBC0883009F496C0C1
:10586000FF91EF91BF91AF919F918F917F916F9138
:105870005F914F913F912F910F900BBE0F900FBEF4
:105880000F901F901895883109F488C0803241F735
:105890008093680514C0803409F49DC040F48033BF
:1058A000B9F38833E9F68093680585ECB0C080359C
:1058B00009F485C0883509F496C0883489F60E94B9
:1058C000B412CECF883909F48CC038F5883729F066
:1058D00050F4883611F0803719F683E0809369051B
:1058E0001092670557C0883809F47BC0803919F0D9
:1058F000803809F0B5CF80916705803208F071C01B
:10590000E091670581E08E0F809367058091BB0071
:10591000F0E0E95BFA4F80833DC0803B39F0E0F472
:10592000803A09F479C0883A09F09ACF84E08093EC
:1059300069051092440510924305E0914105F091EC
:10594000420519958091430581110FC081E0809334
:1059500043051092210509C0803C09F4A6CF883C7C
:1059600009F4A3CF883B09F07BCFE091440581E0A7
:105970008E0F80934405F0E0EF5DFA4F80818093B5
:10598000BB00909144058091430529C080918E050C
:105990008093BB0085EC8093BC0062CF90918D0515
:1059A00080918C05981758F5E0918D0581E08E0F58
:1059B00080938D05F0E0E459FA4F8081E9CFE091C2
:1059C0008D0581E08E0F80938D058091BB00F0E006
:1059D000E459FA4F808390918D0580918C0598173A
:1059E000C8F285E8D8CFE0918D0581E08E0F8093D5
:1059F0008D058091BB00F0E0E459FA4F80838091DF
:105A00006B0581115CCF81E080936A0584EA809305
:105A1000BC001092690524CF85EC8093BC001092E5
:105A2000690580916705803230F4E0916705F0E008
:105A3000E95BFA4F10826091670570E0E0914505DF
:105A4000F091460587E495E019951092670508CF17
:105A50001092680534CFCF93DF93EB018881998151
:105A6000ACEFB7E011969C938E932A813B81069709
:105A7000EC01E881F981E450F84F318320831296DC
:105A80001D921D921D921C92159781E290E09483C5
:105A9000838382E098E0948B838B1582158ADF9153
:105AA000CF910895CF93DF93CCEFD7E081E290E0E0
:105AB0009C8F8B8F1D8E1E8E1F8E86E090E0A0E047
:105AC000B0E088A399A3AAA3BBA31CA21DA21EA2F7
:105AD0001FA282E592E0998F888F80E288A71AA69C
