:1000000062C600000C94E9270C94BE270C94932739
:100010000C9468270C943D270C9412270C94E72627
:100020000C94BC2681C600007FC600007DC600007F
:100030007BC6000079C6000077C6000075C60000C8
:1000400073C6000071C600006FC600006DC60000D8
:100050006BC6000069C6000067C600000C947226DB
:1000600063C600000C943C260C9412265DC600006A
:100070005BC6000059C6000057C6000055C6000008
:1000800053C6000051C600004FC600004DC6000018
:100090004BC6000049C6000047C600000C94142857
:1000A00043C6000041C600003FC600003DC6000038
:1000B0003BC6000039C6000037C6000035C6000048
:1000C00033C6000031C600002FC600002DC6000058
:1000D0002BC6000029C6000027C6000025C6000068
:1000E00023C60000DB40A4A62EAF2000A1C8D30089
:1000F000408DAED580A80000600000000000000028
:1001000000000000000000E000000000000000000F
:10011000000000000001E0000000000000000000FE
:100120000000000001F000000000000000000000DE
:1001300000000003F00000000000000000000000CC
:10014000000007F0000000000000000000000000B8
:100150000007F800000000000000000000000000A0
:100160000FF800000003C0007E000001E0007F0FD8
:10017000F800000003C000FE000001E000FFEFF8FF
:1001800000000003C000FE000001E000FFFFF800D7
:10019000000003C000F00000000F007FFE7FC000E1
:1001A0000003C000F00000000F003FFE7FF83FF1A9
:1001B000FBCFFCFEF3BC3DEFE01FFE7FFF7FFBFFAC
:1001C000DFFEFEFFBC3DEFE01FC6FFFF7FFBFFDF52
:1001D000FEFEFFBC3DEFE00FE3C7FE787BC3DE1EF3
:1001E000F0FFBC3DEF0007FF87FC787BC3DE1EF00D
:1001F000F83C3DEF0001FFFFF0007BC3C01EF0F0B4
:100200003C3DEF0001F37FE03FFBC3CFFEF0F03C4D
:100210003DEF0003E33F807FFBC3DFFEF0F03C3D9A
:10022000EF0007E73C00787BC3DE1EF0F03C3DEFBB
:100230000007FFBE00787BC3DE1EF0F03C3DEF0000
:1002400007FFFE00787BC3DE1EF0F03C3DEF000FA1
:10025000FFFE007FFBFFDFFEF0F03FFDEFE00FFF52
:10026000FF007FFBFFDFFEF0F03FFDEFE00FF9FF47
:10027000003E79F9CF9EF0F01F3DE7E01FF1FF004F
:1002800000000000000000000000001F80FF007F51
:10029000FFFFFFFFFFFFFFFFFFE01C007F007FFF6E
:1002A000FFFFFEB46D888D18E000001F007FFFFF88
:1002B000FFFE95AD7DB577E000000F007FFFFFFFEB
:1002C000FEA5AD9D8D19E0000006007FFFFFFFFE3B
:1002D000B5ADEDB57EE0000000000001800000003B
:1002E000000000000000038000000000000000008B
:1002F0000007C000000000000000000007C0000070
:10030000000000000000000FC0000000000000001E
:1003100000001FE00000000000000000001FE000DF
:1003200000000000000000003FE0000000000000AE
:100330000000003FF00000000000000000007FF01F
:10034000000000000000001FF87FF0000000000027
:1003500000003FFE7FF0000000000000003FFF7F34
:10036000F0000000000000001FFFFBE000000000A4
:100370000000000FFFF9FFC00000000000000FFFA9
:10038000F9FFF800000000000007FFF1FFFF000088
:100390000000000003FC73FFFF800000000000016C
:1003A000FE3FFFFF80000000000000FF1E0FFF0067
:1003B0000000000000007FFE1FFC000000000000A5
:1003C000003FFFFFF8000000000000000FDFFFE02B
:1003D000000000000000001F19FFC0000000000026
:1003E00000003F3CFF00000000000000007E7CF8A1
:1003F00000000000000000007FFE7C000000000004
:10040000000000FFFFFC0000000000000000FFFFF4
:10041000FE0000000000000000FFFFFE00000000E2
:1004200000000001FFEFFE0000000000000001FFDF
:10043000CFFE0000000000000003FF07FE000000E8
:100440000000000003FC07FE0000000000000003A5
:10045000F003FE00000000000000018000FE00002C
:1004600000000000000000007E000000000000000E
:100470000000003E000000000000000000000C0032
:100480000000000000078000FC000003C000000026
:10049000078001FC000003C0000000078001FC0091
:1004A0000003C0000000078001E00000001E000003
:1004B00000078001E00000001E007FE3F79FF9FDC8
:1004C000E7787BDFC0FFF7FFBFFDFDFF787BDFC074
:1004D000FFF7FFBFFDFDFF787BDFC0F0F787BC3D76
:1004E000E1FF787BDE00F0F787BC3DE1F0787BDE52
:1004F0000000F787803DE1E0787BDE007FF7879F93
:10050000FDE1E0787BDE00FFF787BFFDE1E0787B6F
:10051000DE00F0F787BC3DE1E0787BDE00F0F78796
:10052000BC3DE1E0787BDE00F0F787BC3DE1E078A0
:100530007BDE00FFF7FFBFFDE1E07FFBDFC0FFF7E1
:10054000FFBFFDE1E07FFBDFC07CF3F39F3DE1E017
:100550003E7BCFC00000000000000000000000FF54
:10056000FFFFFFFFFFFFFFFFFFC0FFFFFFFFFD6873
:10057000DB111A31C0FFFFFFFFFD2B5AFB6AEFC0F2
:10058000FFFFFFFFFD4B5B3B1A33C0FFFFFFFFFD8B
:100590006B5BDB6AFDC05353443133303620616CF2
:1005A0006C6F636174696F6E206661696C6564006D
:1005B0002200FF2100000103070F1F3F7F0080C0C2
:1005C000E0F0F8FCFE00000000003E5B4F5B3E3EAA
:1005D0006B4F6B3E1C3E7C3E1C183C7E3C181C57EF
:1005E0007D571C1C5E7F5E1C00183C1800FFE7C393
:1005F000E7FF0018241800FFE7DBE7FF30483A0662
:100600000E2629792926407F050507407F05253FCD
:100610005A3CE73C5A7F3E1C1C08081C1C3E7F14B9
:10062000227F22145F5F005F5F06097F017F006603
:1006300089956A606060606094A2FFA29408047E5D
:10064000040810207E201008082A1C08081C2A080C
:10065000081E101010100C1E0C1E0C30383E3830C6
:10066000060E3E0E06000000000000005F000000C5
:1006700007000700147F147F14242A7F2A122313F3
:1006800008646236495620500008070300001C2207
:1006900041000041221C002A1C7F1C2A08083E0839
:1006A000080080703000080808080800006060003A
:1006B00020100804023E5149453E00427F4000722E
:1006C000494949462141494D331814127F102745A5
:1006D0004545393C4A4949314121110907364949C3
:1006E0004936464949291E000014000000403400E4
:1006F0000000081422411414141414004122140898
:1007000002015909063E415D594E7C1211127C7F4F
:10071000494949363E414141227F4141413E7F495D
:100720004949417F090909013E414151737F080848
:10073000087F00417F41002040413F017F08142293
:10074000417F404040407F021C027F7F0408107FB1
:100750003E4141413E7F090909063E4151215E7FEC
:1007600009192946264949493203017F01033F40BF
:1007700040403F1F2040201F3F4038403F63140847
:10078000146303047804036159494D43007F4141D8
:10079000410204081020004141417F04020102048B
:1007A0004040404040000307080020545478407FF8
:1007B000284444383844444428384444287F385432
:1007C00054541800087E090218A4A49C787F0804D9
:1007D000047800447D40002040403D007F102844C4
:1007E0000000417F40007C047804787C0804047891
:1007F0003844444438FC1824241818242418FC7C59
:1008000008040408485454542404043F44243C403D
:1008100040207C1C2040201C3C4030403C442810A0
:1008200028444C9090907C4464544C4400083641D9
:1008300000000077000000413608000201020402B7
:100840003C2623263C1EA1A161123A4040207A3862
:1008500054545559215555794122545478422155C3
:1008600054784020545579400C1E52721239555517
:100870005559395454545939555454580000457CED
:10088000410002457D420001457C407D1211127DF0
:10089000F0282528F07C545545002054547C547C85
:1008A0000A097F4932494949323A4444443A324A72
:1008B0004848303A4141217A3A42402078009DA090
:1008C000A07D3D4242423D3D4040403D3C24FF240E
:1008D00024487E4943662B2FFC2F2BFF0929F62045
:1008E000C0887E090320545479410000447D413082
:1008F00048484A32384040227A007A0A0A727D0D0E
:1009000019317D2629292F28262929292630484DC5
:100910004020380808080808080808382F10C8AC14
:10092000BA2F102834FA00007B000008142A142281
:1009300022142A14085500550055AA55AA55AAFF95
:1009400055FF55FF000000FF00101010FF001414A9
:1009500014FF001010FF00FF1010F010F01414141A
:10096000FC001414F700FF0000FF00FF1414F4044F
:10097000FC141417101F10101F101F1414141F0044
:10098000101010F0000000001F101010101F1010A9
:100990001010F010000000FF1010101010101010B8
:1009A00010FF10000000FF140000FF00FF00001FF8
:1009B00010170000FC04F414141710171414F40496
:1009C000F40000FF00F714141414141414F700F7C3
:1009D000141414171410101F101F141414F41410EE
:1009E00010F010F000001F101F0000001F14000086
:1009F00000FC140000F010F01010FF10FF1414148D
:100A0000FF141010101F00000000F010FFFFFFFF88
:100A1000FFF0F0F0F0F0FFFFFF0000000000FFFF2C
:100A20000F0F0F0F0F3844443844FC4A4A4A347EB3
:100A300002020606027E027E026355494163384483
:100A4000443C04407E201E2006027E020299A5E757
:100A5000A5991C2A492A1C4C7201724C304A4D4DF2
:100A6000303048784830BC625A463D3E49494900DA
:100A70007E0101017E2A2A2A2A2A44445F444440F6
:100A8000514A444040444A51400000FF0103E08085
:100A9000FF000008086B6B083612362436060F0973
:100AA0000F06000018180000001010003040FF0171
:100AB00001001F01011E00191D1712003C3C3C3CA7
:100AC000000000000000002100240027002A002D63
:100AD000003000330001010000040107010A010099
:100AE000002200250028002B002E003100340002D7
:100AF000010000050108010B010000200023002671
:100B00000029002C002F0032000001000003010624
:100B10000109010505050507050808080802020284
:100B2000020A0A0808040404040101010101010188
:100B3000010303030303030303040707070C0C0C5F
:100B40000C0C0C0C0C020202020606060606060637
:100B5000060B0B0B0B0B0B0B0B01021020200808D4
:100B6000102040102040800201020108040201010F
:100B700002040810204080804020100804020180F8
:100B8000040201804020100804020108040201014F
:100B90000204081020408001020408102040800058
:100BA000000A0B02090C0D0E0807030401000000E7
:100BB0000000000000000000000000000000000035
:100BC00000000000000000000000001211100000F2
:100BD0000000000000000000000000000000000015
:100BE000000000000000008000000003E0000000A2
:100BF00007F00000000FF80000001F7C0000003E1E
:100C00003E0000007C1F000000F80F800000F0078D
:100C1000800001E003C00003C001E00007C001F054
:100C200000078000F0000F000078001E01C03C00AB
:100C30001E01C03C003C01C01E003C01C01E0078EB
:100C400001C70F007801CF0F007001FE070070018F
:100C5000FC0700F001F80780F001F00780E001E0F8
:100C60000780F001C00380E001C20380F001C707E4
:100C700080F001CF0780F001FF07007801FE0F0030
:100C80007801F80F003C01F01E003C01E01E001E40
:100C900001C03C000F01C0780007C1C1F00003E1B2
:100CA000C3E00001F1CFC00000F1FF80000061FF50
:100CB00000000001FC00000001F000000001C00085
:100CC0000000172B073411241FBECFEFD1E2DEBF87
:100CD000CDBF00E00CBF14E0A0E0B2E0E4E6F3E733
:100CE00000E00BBF02C007900D92AE35B107D9F7F7
:100CF00027E0AEE5B4E001C01D92A83BB207E1F7E2
:100D000016E0C2E6D6E000E006C021970109802F78
:100D1000FE010E949D38C136D10780E00807A9F77F
:100D20000E941F2D0C94A1396BC91F93CF93DF93A1
:100D3000182FC0912D05D0912E058A3041F4E881FD
:100D4000F9810190F081E02D6DE0CE011995E881E7
:100D5000F9810190F081E02D612FCE01199521E0FC
:100D600030E0019711F430E020E0C901DF91CF912C
:100D70001F910895CF93DF93C0912D05D0912E053B
:100D8000E881F9810084F185E02DCE011995892B48
:100D9000B9F3E881F9810284F385E02DCE01DF917A
:100DA000CF91199408950895DC01ED91FC91019083
:100DB000F081E02D1994AF92BF92CF92DF92EF9223
:100DC000FF920F931F93CF93DF936C017B018B01F5
:100DD000040F151FEB015E01AE18BF08C017D10745
:100DE00059F06991D601ED91FC910190F081E02DCF
:100DF000C6011995892B79F7C501DF91CF911F9114
:100E00000F91FF90EF90DF90CF90BF90AF9008953B
:100E1000FC01538D448D252F30E0842F90E0821B00
:100E2000930B541710F0CF96089501970895FC0185
:100E3000918D828D981761F0A28DAE0FBF2FB11DDD
:100E40005D968C91928D9F5F9F73928F90E0089535
:100E50008FEF9FEF0895FC01918D828D981731F0EF
:100E6000828DE80FF11D858D90E008958FEF9FEF43
:100E70000895FC01918D228D892F90E0805C9F4F19
:100E8000821B91098F739927089581E395E0F1DF23
:100E900021E0892B09F420E0822F0895FC01A48D24
:100EA000A80FB92FB11DA35ABF4F2C91848D90E08C
:100EB00001968F739927848FA689B7892C93A0896F
:100EC000B1898C91837080648C93938D848D9813F9
:100ED00006C00288F389E02D80818F7D808308958C
:100EE000EF92FF920F931F93CF93DF93EC0181E07A
:100EF000888F9B8D8C8D98131AC0E889F989808121
:100F000085FF15C09FB7F894EE89FF896083E88953
:100F1000F98980818370806480839FBF81E090E045
:100F2000DF91CF911F910F91FF90EF900895F62ED2
:100F30000B8D10E00F5F1F4F0F731127E02E8C8D6C
:100F40008E110BC00FB607FCFACFE889F9898081B2
:100F500085FFF5CFCE01A2DFF2CFEB8DEC0FFD2F99
:100F6000F11DE35AFF4FF0829FB7F8940B8FEA8987
:100F7000FB8980818062D0CFCF93DF93EC01888D95
:100F80008823B1F0AA89BB89E889F9898C9185FD0C
:100F900003C0808186FD0CC00FB607FCF7CF8C9193
:100FA00085FFF2CF808185FFEDCFCE0177DFEACFDD
:100FB000DF91CF91089580E090E0892B21F065DFEB
:100FC00081110E94000080E090E0892B49F080E0D0
:100FD00090E0892B29F00E94000081110E940000FE
:100FE00080E090E0892B49F080E090E0892B29F0A7
:100FF0000E94000081110E94000080E090E0892B97
:1010000049F080E090E0892B29F00E9400008111D6
:101010000C94000008958150823108F05AC0E82FE6
:10102000F0E08827E95EF74F8F4F0C949D38370822
:101030003B0829082F08330869083E084408480877
:101040004E08520856085C086008690864086A0877
:101050006E08809180008F77809380000895809142
:1010600080008F7DF9CF80918000877FF5CF84B598
:101070008F7784BD089584B58F7DFBCF8091B000BC
:101080008F778093B00008958091B0008F7DF9CF65
:10109000809190008F7780939000089580919000C8
:1010A0008F7DF9CF80919000877FF5CF8091A00050
:1010B0008F778093A00008958091A0008F7DF9CF55
:1010C0008091A000877FF5CF809120018F7780935A
:1010D00020010895809120018F7DF9CF809120011A
:1010E000877FF5CFCF93DF93282F30E0F901E156CA
:1010F000F44F8491F901E75AF44FD491F901ED5E70
:10110000F44FC491CC2399F0811185DFEC2FF0E0EE
:10111000EE0FFF1FE750F54FA591B491EC91ED2331
:1011200081E090E009F480E0DF91CF91089580E0C4
:1011300090E0FACF1F93CF93DF93282F30E0F9018F
:10114000E156F44F8491F901E75AF44FD491F90133
:10115000ED5EF44FC491CC23A1F0162F81115BDF1B
:10116000EC2FF0E0EE0FFF1FE152F54FA591B49187
:101170008FB7F894EC91111108C0D095DE23DC9361
:101180008FBFDF91CF911F910895DE2BF8CFCF93C2
:10119000DF9390E0FC01E75AF44F24918D5E944F69
:1011A000FC0184918823D1F090E0880F991FFC0105
:1011B000EB53F54FA591B491FC01E152F54FC59168
:1011C000D49161110EC09FB7F8948C91E22FE095F5
:1011D0008E238C932881E223E8839FBFDF91CF91F8
:1011E00008958FB7F894EC91E22BEC938FBFF6CF74
:1011F0003FB7F8948091180590911905A0911A05B0
:10120000B0911B0526B5A89B05C02F3F19F001968C
:10121000A11DB11D3FBFBA2FA92F982F8827BC0150
:10122000CD01620F711D811D911D42E0660F771F78
:10123000881F991F4A95D1F708958F929F92AF9278
:10124000BF92CF92DF92EF92FF924B015C01D0DF11
:101250006B017C01CDDF6C197D098E099F09683E09
:10126000734081059105B0F321E0821A9108A1082D
:10127000B10888EEC80E83E0D81EE11CF11C811471
:101280009104A104B10431F7FF90EF90DF90CF906B
:10129000BF90AF909F908F900895E82FF0E0DF010E
:1012A000AA0FBB1FA050BE4F11967C936E9388303F
:1012B00008F069C08827E05AF64F8F4F0C949D388C
:1012C00096099E09680970097C098909AA09B70964
:1012D000809169008C7F482B40936900E89A0895BB
:1012E00080916900837F440F551F440F551F482B81
:1012F00040936900E99A0895809169008F7C74E0B9
:10130000440F551F7A95E1F7482B40936900EA9AFC
:101310000895809169008F7366E0440F551F6A95A8
:10132000E1F7482B40936900EB9A089580916A0099
:101330008C7F482B40936A00EC9A089580916A0054
:10134000837F440F551F440F551F482B40936A005D
:10135000ED9A089580916A008F7C24E0440F551F18
:101360002A95E1F7482B40936A00EE9A0895809100
:101370006A008F7396E0440F551F9A95E1F7482B4A
:1013800040936A00EF9A08950895CB0108954F9213
:101390005F926F927F92BF92CF92DF92EF92FF9215
:1013A0000F931F93CF93DF93EC0129013A018B0137
:1013B000C12CD12C7601C414D504E604F7040CF03A
:1013C0003FC0F801B1908F018F8580FF0BC0E8818D
:1013D000F9810084F185E02D20E144E070E060E0D7
:1013E000CE011995EB85FC858D859E85E817F9075B
:1013F00060F4B0828B859C8501969C878B872FEF4C
:10140000C21AD20AE20AF20AD6CF6B2D70E0E88146
:10141000F981028CF38DE02DCE011995019679F7B3
:10142000C701B601DF91CF911F910F91FF90EF900F
:10143000DF90CF90BF907F906F905F904F90089516
:1014400073016201EDCFCF93DF93EC01E881F98165
:101450000288F389E02D19958F3F980731F02D818F
:101460003E812F5F3F4F3E832D83DF91CF910895C3
:101470008FEF9FEF089560E070E0CB01089590E05A
:1014800080E00895FF920F931F93CF93DF938C0119
:10149000EB016F3F7607A9F0F62EEAE06E1305C068
:1014A0006DE0F801808991897FDC6F2DF8018089DA
:1014B00091897ADCCE01DF91CF911F910F91FF903E
:1014C0000895D0E0C0E0F6CF7F928F929F92AF92C6
:1014D000BF92CF92DF92EF92FF920F931F93CF9321
:1014E000DF938C0149015A01EB01C12CD12C76010B
:1014F000C814D904EA04FB04A4F479908AE07812B1
:1015000005C06DE0F801808991894EDC672DF801F6
:101510008089918949DCFFEFCF1ADF0AEF0AFF0AC1
:10152000E7CFC501B401DF91CF911F910F91FF90DB
:10153000EF90DF90CF90BF90AF909F908F907F9073
:101540000895CF93DF93EC0188899989DC01ED91AF
:10155000FC910084F185E02D1995892BA9F38889E8
:101560009989DC01ED91FC910284F385E02DDF91F6
:10157000CF911994CF93DF93EC0188899989DC018D
:10158000ED91FC910084F185E02D1995892BA9F34B
:1015900088899989DC01ED91FC910484F585E02D21
:1015A000DF91CF9119948F929F92AF92BF92CF9279
:1015B000DF92EF92FF920F931F93CF93DF938C01F3
:1015C00049015A01EB01C12CD12C7601D80150966A
:1015D0008D919C91DC01ED91FC910284F385E02DCD
:1015E00019958F3F61F0C814D904EA04FB043CF458
:1015F0008993BFEFCB1ADB0AEB0AFB0AE7CFC701DF
:10160000B601DF91CF911F910F91FF90EF90DF9086
:10161000CF90BF90AF909F908F900895DC0150962F
:101620008D919C91DC01ED91FC910084F185E02D80
:10163000199490E080E0089590E080E0089590E0B3
:1016400080E0089508950895DC01ED91FC913697AE
:101650000190F081E02DE80FF91F80E992E091837D
:1016600080838AE992E097838683089520E932E0B7
:10167000FC01318320832AE932E0378326830895F1
:10168000FB0120813181FC0131832083FB014281F8
:10169000538126503109F90120813181820F931F36
:1016A000FC015183408308952CEA32E0FC01318330
:1016B000208326EB32E0318F208F60EA72E0E0CFAA
:1016C000DC01ED91FC91369720813181820F931FCF
:1016D000EBCF0895DC01ED91FC9136970190F081FC
:1016E000E02DE80FF91F8CE792E09183808386E874
:1016F00092E09383828308952CE732E0FC013183EA
:10170000208326E832E0338322830895FB01208181
:101710003181FC0131832083FB01428153812650BA
:101720003109F90120813181820F931FFC0151831E
:101730004083089528EC32E0FC013183208322EDC0
:1017400032E0358B248B6CEB72E0E0CFDC01ED9165
:10175000FC91369720813181820F931FEBCF089542
:101760000895FC016370668B8481958126813781A1
:10177000613039F0633029F0918780873387228781
:101780000895318720879387828708952F923F920B
:101790004F925F926F927F928F929F92AF92BF9281
:1017A000CF92DF92EF92FF920F931F93CF93DF932D
:1017B000CDB7DEB76A970FB6F894DEBF0FBECDBFC8
:1017C0009A8F898F7A8369834A01D22E18870F8373
:1017D0003701BC2CDC0159962D913C915A9721156B
:1017E000310509F015C118968D919C9119976817CC
:1017F00079070CF0D7C11A968D919C91481759071B
:101800000CF0D0C14C2C512CB6E0CB9E600D711D5C
:1018100011247C876B87161617060CF0C3C1EA2DBE
:10182000F0E0FA87E98793E0EE0FFF1F9A95E1F762
:10183000F88BEF87CF01840F951F181619060CF04F
:10184000B1C1A98DBA8D58968C91811104C0BFEA9F
:10185000BD1508F4D394A98DBA8DED91FC91119723
:101860000284F385E02DCD011995B5E0DB9EC00122
:101870001124E981FA81FC83EB83312C212C9C011A
:101880002B533A4F388F2F8B4A2D50E05E8B4D8B68
:10189000EF89F88DE20DF31D44919E828D82D12C4B
:1018A000C12C69817A81620D731D7A8B698B842FBB
:1018B00090E09C8B8B8BE98DFA8DA081B18140FFEC
:1018C00082C0F1E0BF126FC0AF126DC01C96ED91E7
:1018D000FC912F813885A4014C0D5D1D69897A89A1
:1018E000898D9A8D1995EB89FC89F595E7954E2F91
:1018F0005FEFC51AD50A6D817E818D899E89680F3B
:10190000791F7E836D8398E0C916D10481F6AFEF0D
:101910002A1A3A0AEB81FC81E40DF51DFC83EB8366
:10192000F5E02F16310409F0B3CF2F813885261545
:101930003705B9F0A98DBA8DED91FC91B1E0BB12DC
:1019400057C0AB1255C069817A816B5F7F4F0088A9
:10195000F189E02D830128E030E0A401898D9A8D82
:101960001995A98DBA8DED91FC9111970688F7898B
:10197000E02DCD016A960FB6F894DEBF0FBECDBF45
:10198000DF91CF911F910F91FF90EF90DF90CF905B
:10199000BF90AF909F908F907F906F905F904F908F
:1019A0003F902F9019941E96ED91FC91EF80F88452
:1019B00009851A8592014D815E816B817C81898DBB
:1019C0009A8D199590CF2F8138852615370509F402
:1019D0008ACF31E0B31207C0A31205C01C96ED9167
:1019E000FC91930178CF1E96ED91FC917301E0CFAD
:1019F0006B857C85641975090684F785E02D730174
:101A00000F8518899201A401898D9A8D1995A9CF06
:101A1000F90134969491329745915491D91AB7E0CF
:101A2000DB9E400D511D1124F901259134913C8B11
:101A30002B8BFA0125903490FA01329674903196EE
:101A40003491398B329664903196449041E04C1534
:101A500018F04A1508F07FC0662D062C000C770B95
:101A60007C836B83842D042C000C990B9E838D83C7
:101A7000A98DBA8DED91FC9111970284F385E02D2B
:101A8000CD011995512CD12CC12CEA2DF0E0FA870B
:101A9000E9872B2D30E03C872B87A401440D511D95
:101AA00047FC5A95588F4F8B69817A81660D711D5D
:101AB00067FC7A957E876D877989C71608F051CFC4
:101AC0002C2D30E04D815E81420F531FA985BA85D0
:101AD0004A9FC0014B9F900D5A9F900D1124FC010D
:101AE000E80DF91DF88BEF87852D612C4F89588DF6
:101AF000420F531F5E8B4D8B671408F050C0442477
:101B00004394480E877041F4C1010196EB89FC892A
:101B1000E20DF31DD4901C01D7FE19C0A98DBA8D1A
:101B2000ED91FC91662D70E0B1E0BB1219C0AB12D3
:101B300017C02D853E85620F731F0484F585E02D47
:101B40002F8138854D895E89898D9A8D1995DD0C97
:101B50006394842DD1CF1E821D821C821B8288CF6C
:101B60004B815C81640F751FAB85BC856A9FC0018A
:101B70006B9F900D7A9F900D112469817A81680F77
:101B8000791F0684F785E02DEF80F88409851A8592
:101B90009D014F855889898D9A8D1995D8CF570CFD
:101BA000C3948ACF6A960FB6F894DEBF0FBECDBF3E
:101BB000DF91CF911F910F91FF90EF90DF90CF9029
:101BC000BF90AF909F908F907F906F905F904F905D
:101BD0003F902F9008958F929F92AF92CF92EF9265
:101BE000FF920F931F93CF93DF93EC01262F898DE4
:101BF0009A8D009709F050C06A30D1F41D861C867A
:101C00008D8948E0849F900111248E859F85820FE5
:101C1000931F9F878E8781E090E0DF91CF911F9186
:101C20000F91FF90EF90CF90AF909F908F9008957D
:101C30006D3089F3CC88AD888F898823C1F08C857D
:101C40009D8536E0C39E800D911D112448855985E0
:101C50004817590764F44E855F851D861C8638E059
:101C6000A39EC0011124840F951F9F878E87EA8849
:101C7000FB88088919894E855F856C857D85CE0135
:101C800085DD2C898C859D8546E0249F800D911DE6
:101C900011249D878C87BFCF6A3069F41D861C860E
:101CA000FC013896E4912D898E859F85E29F800DF9
:101CB000911D1124AECF6D3009F4ADCFFC013496E7
:101CC0003491631708F4A7CF3296E491E61708F42D
:101CD000A2CFFC01329685909490462F431B342F5F
:101CE00047E0349F800C911C1124F401329634910A
:101CF0003196E4913323A1F1EE2391F1CC88F401E4
:101D00003596E491AD884F89442301F10E2E000CE5
:101D1000FF0BE30FF11DCE9EA001CF9E500D1124AD
:101D20006C857D85460F571F688579856417750713
:101D30006CF44E855F851D861C86FC013896E49107
:101D4000AE9E400D511D11245F874E87EA88FB88A7
:101D5000088919894E855F856C857D85CE0116DDE4
:101D6000F4013496E4912C898C859D85E29F800D49
:101D7000911D11248ECF6F927F928F929F92AF927E
:101D8000BF92CF92DF92EF92FF920F931F93CF9368
:101D9000DF93EC016B015A0139014801E881F981B7
:101DA0000284F385E02D1995E881F9810288F38991
:101DB000E02D87019301A501B601CE011995A5017A
:101DC000480D591D41505109E881F9810288F38974
:101DD000E02D9301B601CE011995E881F9810088C3
:101DE000F189E02D9401A501B601CE011995C60C2B
:101DF000D71CB60161507109E881F9810088F18929
:101E0000E02D9401A501CE011995E881F98106889C
:101E1000F789E02DCE01DF91CF911F910F91FF90B7
:101E2000EF90DF90CF90BF90AF909F908F907F907A
:101E30006F9019946F927F928F929F92AF92BF9200
:101E4000CF92DF92EF92FF920F931F93CF93DF9386
:101E50005C01EB016A01490138018701DC01ED9168
:101E6000FC916217730719F5641675062CF0962D10
:101E7000872D3A01C92ED82E9601261937092F5FD2
:101E80003F4F048CF58DE02DA301BE01C5011995CE
:101E9000DF91CF911F910F91FF90EF90DF90CF9046
:101EA000BF90AF909F908F907F906F900895461550
:101EB000570591F42617370724F0892D4B01C22FBF
:101EC000D82F9E01281939092F5F3F4F068CF78DB7
:101ED000E02DA601B401DACF0284F385E02D199537
:101EE000D501ED91FC910488F589E02D83019401E1
:101EF000A601BE01C5011995D501ED91FC91068899
:101F0000F789E02DC501DF91CF911F910F91FF90CF
:101F1000EF90DF90CF90BF90AF909F908F907F9089
:101F20006F901994EF92FF920F931F93DC011A9612
:101F30000D911C911B9718962D913C911997ED913D
:101F4000FC9100A0F1A1E02D7B0150E040E070E0A9
:101F500060E019951F910F91FF90EF9008954F92B7
:101F60005F926F927F928F929F92AF92BF92CF9229
:101F7000DF92EF92FF920F931F93CF93DF936C0149
:101F80002B015A0139014801DC01ED91FC910284D9
:101F9000F385E02D1995E201640C751CD601ED91D5
:101FA000FC91C615D7055CF40088F189E02D870106
:101FB0009401A501BE01C60119952196EFCF0688AF
:101FC000F789E02DC601DF91CF911F910F91FF900E
:101FD000EF90DF90CF90BF90AF909F908F907F90C9
:101FE0006F905F904F9019948F929F92AF92BF9293
:101FF000CF92DF92EF92FF920F931F93CF93DF93D5
:10200000EC015B014A016901E881F9810284F385F1
:10201000E02D199595012C0D3D1D21503109E881C8
:10202000F9810488F589E02D78018401A401B501C6
:10203000CE011995E881F9810688F789E02DCE0156
:10204000DF91CF911F910F91FF90EF90DF90CF9094
:10205000BF90AF909F908F9019948F929F92AF9264
:10206000BF92CF92DF92EF92FF920F931F93CF9385
:10207000DF93EC015B014A0169017801E881F98194
:102080000284F385E02D1995C80CD91C86010150F6
:102090001109E881F9810488F589E02D9501A401F1
:1020A000B501CE011995E881F9810688F789E02DFF
:1020B000CE01DF91CF911F910F91FF90EF90DF90B4
:1020C000CF90BF90AF909F908F901994EF92FF9216
:1020D0000F931F93DC01ED91FC9100A0F1A1E02D85
:1020E00019951F910F91FF90EF9008950F931F93F3
:1020F000DC01ED91FC91068CF78DE02D19951F9177
:102100000F9108950F931F93DC01ED91FC91048CC6
:10211000F58DE02D19951F910F910895DC01ED913A
:10212000FC910084F185E02D19943F924F925F92CB
:102130006F927F928F929F92AF92BF92CF92DF92D7
:10214000EF92FF920F931F93CF93DF9300D01F92D4
:10215000CDB7DEB75C013B016A014901280187E088
:10216000480E511C93E0559447949A95E1F7CA01A3
:102170008E0D9F1D9A838983F12CE12C312C1C82BA
:102180001B828B819C8187709927330C892B61F48A
:10219000EB81FC8183E0F595E7958A95E1F7EE0DFB
:1021A000FF1DE80DF91D349037FE09C021E030E035
:1021B000A6016B817C81660D771DC501AFDF8B8128
:1021C0009C8101969C838B8308171907D1F69FEF9A
:1021D000C91AD90AE40CF51C89819A81C816D90656
:1021E00071F60F900F900F900F90DF91CF911F918C
:1021F0000F91FF90EF90DF90CF90BF90AF909F90A6
:102200008F907F906F905F904F903F9008952F92A6
:102210003F924F925F926F927F928F929F92AF9276
:10222000BF92CF92DF92EF92FF920F931F93CF93C3
:10223000DF9300D000D0CDB7DEB73C016A013E830A
:102240002D83FC82EB825801A41AB50AB7FE03C0A5
:10225000B194A194B1088D809E80861A970A97FE4A
:1022600003C09194819491088A149B045CF0902F90
:10227000812F0D811E819D838E839C2D8D2D6B0161
:10228000692F782F0C151D055CF09D818E817E8352
:102290006D83692F782F902F812F8601C92ED82E1C
:1022A0001601201A310A2B012D813E81421A530A50
:1022B00057FE03C0519441945108710137FE03C089
:1022C0003FEFE31AF30AF594E7948D819E81861718
:1022D00097075CF5A1E0B0E0BA83A983C016D106E8
:1022E0004CF1D301ED91FC910484F585E02D2B8117
:1022F0003C81A8016D817E818A149B041CF04D8174
:102300005E81B801C3011995E418F508F7FE0AC00B
:102310002D813E8189819A81280F391F3E832D832B
:10232000E20CF31C0F5F1F4FD9CF2FEF3FEF3A8323
:102330002983D4CF26960FB6F894DEBF0FBECDBF4B
:10234000DF91CF911F910F91FF90EF90DF90CF9091
:10235000BF90AF909F908F907F906F905F904F90C5
:102360003F902F90089585ED8093BC008091BC0034
:1023700084FDFCCF1092F10408952091CB04260F28
:102380003327331F21323105ECF42091F104FC0195
:1023900090E080E0243069F082E00895A091CB04C1
:1023A0002191AC0147555B4FA40FB52FB11D2C9364
:1023B0000196861798F38091CB04680F6093CB0445
:1023C00080E0089581E0089508950895E091A604BD
:1023D0008091A504E81730F4F0E0EB57FB4F8081C3
:1023E00090E008958FEF9FEF08959091A60480915B
:1023F000A5042FEF3FEF981748F4E92FF0E0EB57D3
:10240000FB4F208130E09F5F9093A604C90108959F
:102410008091A5049091A604891B990B0895CF92F1
:10242000DF92EF92FF920F931F93CF93DF937C0184
:10243000CB018A0120918404222389F0EB016B01F6
:10244000C40ED51ECC15DD0561F06991D701ED9163
:10245000FC910190F081E02DC7011995F3CF642F15
:102460008CDFC801DF91CF911F910F91FF90EF900A
:10247000DF90CF900895CF93DF931F92CDB7DEB753
:102480006983209184042223F9F02091A70420324B
:1024900058F021E030E0FC013383228390E080E0BB
:1024A0000F90DF91CF9108958091A804E82FF0E07C
:1024B000EC59FB4F998190838F5F8093A8048093A0
:1024C000A70481E090E0ECCF61E0CE01019655DFFA
:1024D000F8CF2091A70481E0213208F044C0809118
:1024E000F1048111FCCF8091630492E09093F10498
:1024F00091E09093F3049FEF9093F00410921505F0
:1025000020931405A4E6B4E0E4EFF4E090E029138E
:1025100031C01092160590911605880F892B809373
:1025200016058091F204813049F51092F2048091F1
:1025300016058093BB008091BC0083FDF8CF85EC2D
:102540008093BC008091F1048230E1F38091F0042B
:102550008F3FB1F08091F0048032A1F08091F004BF
:10256000803391F084E01092A8041092A704109296
:10257000840408953D9131939F5FC9CF85EEE0CFEC
:1025800080E0F1CF82E0EFCF83E0EDCFEF92FF92DA
:102590000F931F93CF93DF93EC01EC80FD806E15BA
:1025A0007F050CF070C057FF04C0240F351F50E0AA
:1025B00040E08E819F81FA01E20FF31F8E179F0783
:1025C0001CF49C01241B350B121613060CF05BC087
:1025D000922F842F8695869586958E9DD0018F9D0E
:1025E000B00D11246A0F7B1FAF8DB8A1A60FB71FC6
:1025F000477049F188E0841B482F682F70E0FB0189
:10260000E354FA4FE491281708F063C0621B710984
:102610002FEF30E002C0359527956A95E2F7E22367
:102620000130110539F0B0F10230110561F58C91DE
:10263000E82702C08C91E82BEC93941720F12C81B1
:102640003D81A20FB31FE92FE41BE83078F0023080
:10265000110521F58E2F9C9190959C932C813D81A5
:10266000A20FB31F88508830B0F7E770EE2359F0FF
:10267000F0E0EB54FA4FE49101301105F9F010F15C
:102680000230110519F1DF91CF911F910F91FF9049
:10269000EF900895E0958C91E823CECF81E001156D
:1026A000110509F480E081959E2F8C932C813D814A
:1026B000A20FB31F98509830C0F7D7CF8C91E82B5A
:1026C000EC93E1CFE0958C91E823FACF8C91E82749
:1026D000F7CF0130110509F4ADCFE0F2023011055A
:1026E00009F4A5CFAE0DBF1DAECF0F931F93CF93AF
:1026F000DF9377FF04C0260F371F70E060E0DC0136
:102700001496CD91DC91FB01E20FF31FCE17DF078A
:102710001CF49E01261B370B121613064CF5FA010A
:1027200057FD3796A3E0F595E795AA95E1F7EC9F5D
:10273000D001ED9FB00DFC9FB00D11246A0F7B1FDF
:10274000DC015F96ED91FC91E60FF71F477055276E
:1027500081E090E001C0880F4A95EAF7482F0130E8
:10276000110559F0A8F02E0F3F1F02301105E1F0BE
:10277000DF91CF911F910F9108952E0F3F1FE21708
:10278000F307B1F38191DF011197842B8C93F7CF7D
:1027900080952E0F3F1FE217F30751F39191DF0150
:1027A000119798239C93F7CFE217F30709F38191D0
:1027B000DF01119784278C93F7CF0F931F93FA01B2
:1027C000DC0156964C9156974230E1F0433091F13E
:1027D000413059F514964D915C91DA01AE1BBF0B57
:1027E000FD01E21BF30B77FD0AC0DC0116964D914B
:1027F0005C91641775071CF4AB01BF0176DF1F9174
:102800000F91089514964D915C91DA01A61BB70BB8
:10281000BD0161507109DC0116964D915C91DA01A0
:10282000AE1BBF0BFD01E21BF30B77FDE8CFAF0141
:10283000ADDEE5CF16964D915C91DA01A61BB70B84
:10284000BD0161507109CFCF0F931F93FA01DC01D5
:1028500056964C9156974230A1F0433081F1413069
:1028600011F514964D915C91DA01AE1BBF0BFD0181
:102870003197F7FD03C0AB01BF0188DE1F910F91B7
:10288000089514964D915C91DA01A61BB70BBD011A
:10289000DC0116964D915C91DA01AE1BBF0BFD0178
:1028A0003197621B730BF7FDE9CFDC0116964D9152
:1028B0005C91E417F50714F7AF0117DFDFCF169629
:1028C0004D915C91DA01A61BB70BBD01621B730B26
:1028D000D0CFFC0177FD64C08085918568177907AA
:1028E0000CF05EC057FD5CC0828593854817590780
:1028F0000CF056C086898230B1F0833029F18130E6
:1029000041F484819581841B950BAB01BC0161501E
:1029100071092130310509F108F443C02230310535
:1029200009F463C0089584819581DC01A61BB70B6F
:10293000BD016150710986819781DC01A41BB50B33
:10294000AD0141505109E5CF86819781861B970BD8
:10295000BA01AC0141505109DCCFCA0157FD0796BD
:10296000A3E095958795AA95E1F7A481B5818A9F03
:1029700090018B9F300D9A9F300D1124620F731FB1
:10298000078CF0A1E02DE60FF71F4770552721E0D7
:1029900030E001C0220F4A95EAF78081822B8083C4
:1029A0000895CA0157FD079633E0959587953A95A6
:1029B000E1F7A481B5818A9F90018B9F300D9A9F8A
:1029C000300D1124620F731F078CF0A1E02DE60F6C
:1029D000F71F4770552781E090E001C0880F4A95A6
:1029E000EAF7809590818923DACFCA0157FD0796CF
:1029F00023E0959587952A95E1F7A481B5818A9F73
:102A000090018B9F300D9A9F300D1124620F731F20
:102A1000078CF0A1E02DE60FF71F4770552721E046
:102A200030E001C0220F4A95EAF780818227B7CFB4
:102A300008958EBD00000DB407FEFDCF8EB508953C
:102A4000DF92EF92FF920F931F93CF93DF93EC01EE
:102A5000D62E072F142F8D8D9E8D009709F44BC015
:102A600029A131E030938404209363041092A804D8
:102A70001092A704DC01ED91FC910190F081E02D12
:102A800060E01995ED2CF02E01E0DD24D394115077
:102A90008D8D9E8D1F3F39F10032A8F01ADD8D8D8E
:102AA0009E8D29A1D0928404209363041092A804DF
:102AB0001092A704DC01ED91FC910190F081E02DD2
:102AC00060E0199501E08D8D9E8DF7016491DC0128
:102AD000ED91FC910190F081E02D19950F5FBFEF12
:102AE000EB1AFB0AD4CFDF91CF911F910F91FF908A
:102AF000EF90DF90EECCEDA5FEA590818BA980959F
:102B000089238083E62EF72E115068F1F701849116
:102B10002B8D3C8D232B29F08CDFEFEFEE1AFE0A74
:102B2000F3CF28E030E040E8E9A5FAA599A9582FAD
:102B30005423A9F05081952B9083EBA5FCA590819F
:102B40005AA9952B9083EBA5FCA550819AA9909545
:102B50009523908346952150310931F7DECF50817E
:102B600090959523E9CFDF91CF911F910F91FF9021
:102B7000EF90DF9008951F93CF93DF93EC018D8D3D
:102B80009E8D009719F1162F29A131E0309384040E
:102B9000209363041092A8041092A704DC01ED9125
:102BA000FC910190F081E02D60E019958D8D9E8D56
:102BB000DC01ED91FC910190F081E02D612F1995E0
:102BC0008D8D9E8DDF91CF911F9183CCADA5BEA53C
:102BD0009C918BA9809589238C938B8D9C8D892BBF
:102BE00029F0862FDF91CF911F9123CF28E030E08D
:102BF00080E8A9A5BAA599A9462F4823C1F04C9110
:102C0000942B9C93ABA5BCA59C914AA9942B9C9317
:102C1000ABA5BCA54C919AA9909594239C938695BD
:102C20002150310931F7DF91CF911F9108954C91D7
:102C300090959423E6CF8CBD9DBD08951F93CF93AF
:102C4000DF93EC01162F8D8D9E8D892BA9F12DA977
:102C50003EA94FA958AD60E074E284EF90E00E9475
:102C60005F382051310941095109569547953795EB
:102C700027952093B80066EA111167EACE017BDF41
:102C80008D8D9E8D892B39F129AD3AAD4BAD5CAD63
:102C900060E074E284EF90E00E945F3820513109D7
:102CA0004109510956954795379527952093B800C6
:102CB000DF91CF911F9108958B8D9C8D892B19F0F9
:102CC0008EAD9FADB8DFEFA5F8A990818CA9809556
:102CD00089238083D0CFEFA5F8A980819CA9892B77
:102CE0008083E6CFCF92DF92EF92FF920F931F93F4
:102CF000CF93DF93EC018D8D9E8D892B09F47CC0E1
:102D00002DA93EA94FA958AD60E074E284EF90E090
:102D10000E945F3820513109410951095695479564
:102D2000379527952093B80045E060EB75E0CE011C
:102D300087DE6C816150CE011EDF2E813F81C9018B
:102D4000079697FD079623E0959587952A95E1F7D5
:102D50002C813D81829F7001839FF00C929FF00C2B
:102D600011240F8D18A18D8D9E8DE00EF11E009700
:102D700009F474C029A131E03093840420936304E2
:102D80001092A8041092A704DC01ED91FC9101902F
:102D9000F081E02D60E41995DD24D394CC24C39414
:102DA0008D8D9E8DE016F106B1F1BFE1BD15B0F439
:102DB00090DB8D8D9E8D29A1C092840420936304A5
:102DC0001092A8041092A704DC01ED91FC910190EF
:102DD000F081E02D60E41995DD24D3948D8D9E8DD6
:102DE000F80161918F01DC01ED91FC910190F0817E
:102DF000E02D1995D394D4CF8B8D9C8D892B19F010
:102E00008EAD9FAD18DFEFA5F8A990818CA98095B4
:102E10008923808389CF5DDB8D8D9E8D892B09F47D
:102E200051C029AD3AAD4BAD5CAD60E074E284EFCA
:102E300090E00E945F3820513109410951095695AF
:102E40004795379527952093B800DF91CF911F9133
:102E50000F91FF90EF90DF90CF900895EDA5FEA524
:102E600080819BA9892B8083E016F106A9F2F801E5
:102E700081918F012B8D3C8D232B11F0DADDF4CF66
:102E800028E030E040E8E9A5FAA599A9582F542395
:102E9000A9F05081952B9083EBA5FCA590815AA9B0
:102EA000952B9083EBA5FCA550819AA9909595232D
:102EB000908346952150310931F7D6CF50819095B6
:102EC0009523E9CFEFA5F8A980819CA9892B808360
:102ED000BCCF85E090E09093150280931402089592
:102EE00084E090E0909315028093140208958091FD
:102EF000DE060E94720821E0019709F020E020938D
:102F0000E2068091E206882369F08091E306882337
:102F100049F08091E4069091E50601979093E506CB
:102F20008093E4061092E30681E08093E60608951C
:102F30008091E0060E94720821E0019709F020E0EC
:102F40002093E3068091E20681110DC08091E30693
:102F5000811109C08091E4069091E5060196909355
:102F6000E5068093E40681E08093E2068093E6061E
:102F7000089582E090E0909315028093140289EA0C
:102F800096E090932705809326050895CF93DF93CD
:102F9000EC0188819981009711F00E946E351982A9
:102FA00018821D821C821B821A82DF91CF910895A4
:102FB000FC0180819181009711F00C946E35089589
:102FC000CF92DF92EF92FF920F931F93CF93DF93F5
:102FD000FC012481358162177307D8F46B01EC0181
:102FE00086E0869F8001879F100D11247B018C81D4
:102FF0009D81E816F90658F488819981800F911F08
:10300000D7DFFFEFEF1AFF0A0A5F1F4FF0CFDD8215
:10301000CC82DF91CF911F910F91FF90EF90DF90C5
:10302000CF900895CF93DF93EC010E949A0BCE01CD
:10303000DF91CF910C946E35DC01ED91FC913697C8
:1030400020813181820F931FEDCFCF93DF93EC016D
:103050000E94540BCE01DF91CF910C946E35DC01B0
:10306000ED91FC91369720813181820F931FEDCF36
:103070000C946E350C946E35DC01ED91FC91369715
:1030800020813181820F931FF5CF0C946E350C9403
:103090006E35DC01ED91FC91369720813181820FF4
:1030A000931FF5CF0C946E35EF92FF920F931F9301
:1030B000CF93DF937C01D0E0C0E010E000E0F701A7
:1030C00080819181248135810217130738F48C0F98
:1030D0009D1F6EDF0F5F1F4F2696F1CFDF91CF91BF
:1030E0001F910F91FF90EF900C946E35CF93DF936B
:1030F000EC018EA59FA50E946E358FA198A50E9418
:103100006E35CE018096D0DFCE014896DF91CF910B
:103110004FCF0F931F93CF93DF93EC010881198159
:103120007B836A83CB01880F991F0E94D2348883E6
:1031300099832C813D81FC01D80190E080E0281723
:10314000390759F0309729F04D915C9111975183CF
:103150004083019632961296F2CFC801DF91CF914B
:103160001F910F910C946E35EF92FF920F931F9366
:10317000CF93DF93EC018B017A018A819B818617C3
:10318000970738F4685F7F4F8617970710F4CE01D2
:10319000C0DF8C819D819C01220F331F8017910716
:1031A00078F4E881F981E20FF31F309729F0D70115
:1031B0004D915C915183408301962E5F3F4FEECF3E
:1031C0001D830C83DF91CF911F910F91FF90EF90A2
:1031D00008950F931F93CF93DF93EC01088119811A
:1031E0007B836A83CB01880F991F0E94D234888326
:1031F00099832C813D81FC01D80190E080E0281763
:10320000390759F0309729F04D915C91119751830E
:103210004083019632961296F2CFC801DF91CF918A
:103220001F910F910C946E350F931F93CF93DF93E3
:10323000EC018B018091D2069091D3068C179D07EB
:1032400048F4BE01685F7F4F8617970718F480ED3A
:1032500096E0BFDF8091D4069091D5069C01220FA5
:10326000331FE091D006F091D106E20FF31F8C17C7
:103270009D0750F4309729F0D8012D913C9131836E
:10328000208301963296F3CFD093D506C093D4060F
:10329000DF91CF911F910F9108952091D205309128
:1032A000D30582179307B8F4FC01EE0FFF1F8E0FB2
:1032B0009F1FE091CE05F091CF05E80FF91F8081A7
:1032C0009281992321F0128260E00C949A0891E097
:1032D000928361E0FACF08950F931F93CF93DF930A
:1032E0008C01D0E0C0E08091D2059091D305C81741
:1032F000D907A8F4C017D10781F0CE01880F991F14
:103300008C0F9D1FE091CE05F091CF05E80FF91FBE
:10331000128260E080810E949A082196E4CFDF91BA
:10332000CF911F910F91089584E090E0D5DF84E064
:1033300090E0B3CF83E090E0CFDF83E090E0ADCFCB
:1033400082E090E0C9DF82E090E0A7CF81E090E0EA
:10335000C3DF81E090E0A1CF90E080E0BDDF90E0AE
:1033600080E09BCF4091CE055091CF056091D20572
:103370007091D30530E020E02617370751F04D5FFC
:103380005F4FFA0131978081811104C02F5F3F4F59
:10339000F3CF80E00895CF93DF93D0E0C0E0809139
:1033A000D2059091D305C817D90790F4CE01880FA4
:1033B000991F8C0F9D1FE091CE05F091CF05E80F6E
:1033C000F91F128260E080810E949A082196E7CF5F
:1033D000DF91CF910895FC012689378982A993A9AD
:1033E0002817390760F4220F331F86A597A5280FE9
:1033F000391F81E0F90120813181232B09F480E01C
:1034000008950E948D3920911C0730911D07C90134
:10341000079697FD079623E0959587952A95E1F7FE
:1034200020911A0730911B07829FA001839F500DA6
:10343000929F500D112470E060E0809135079091CB
:1034400036070C94F735FB0101900020E9F731971E
:10345000AF01461B570BDC01ED91FC910280F3811B
:10346000E02D19940F931F93CF93DF93EC01FB0191
:103470004481558160817181E881F9810280F38105
:10348000E02D19958C0166E273E0CE01DCDF800F40
:10349000911FDF91CF911F910F910895BC01E6E13B
:1034A000F7E092E0948B958B21E030E0338B228B18
:1034B000318B208B1586148617861686CF01D2CFC6
:1034C000EF92FF920F931F93CF93DF938091350775
:1034D00090913607892B31F196DF80911C079091EE
:1034E0001D0760911A0770911B07813291050CF03E
:1034F0004EC0AC014052510957FF02C04F5F5F4FB1
:10350000559547956357710977FF02C06F5F7F4FED
:1035100075956795F0E2EF2EF12C03E710E026EFAA
:1035200030E04DC020911C0730911D07C90107965E
:1035300097FD079613E0959587951A95E1F72091E9
:103540001A0730911B07AC01429FC001439F900DA9
:10355000529F900D11240E94D2349093360780938D
:103560003507892B09F0B8CFC6E9D5E0FE01649193
:10357000662339F081E395E00E9470072196892B3C
:10358000A9F766E273E081E395E05DDFFFCFAC0170
:103590004054510957FF02C04F5F5F4F5595479503
:1035A0006255710977FF02C06F5F7F4F7595679510
:1035B000C0E4EC2EF12C02E510E026ED32E086E1CD
:1035C00097E00E94951082E080933807809133073E
:1035D00090913407892B09F401C18CE3809337075C
:1035E0001092A6041092A5041092A8041092A704A9
:1035F0001092F10481E08093F3041092F20461E0F0
:1036000084E10E949A0861E085E10E949A08809115
:10361000B9008E7F8093B9008091B9008D7F80932F
:10362000B90088E48093B80085E48093BC0084EE00
:1036300091E19093CA048093C90485EE91E190933F
:10364000CE048093CD0480913E0787FD1EC061E0CB
:103650000E94C70861E080913E070E949A0861E0DD
:1036600070E080E090E00E941D0960E080913E07DC
:103670000E949A086AE070E080E090E00E941D09D4
:1036800061E080913E070E949A08809133079091F3
:103690003407892B09F461C120914B0730914C0705
:1036A00040914D0750914E0760E074E284EF90E046
:1036B0000E945F38205131094109510956954795BB
:1036C000379527952093B80044E062EF70E086E1DB
:1036D00097E0B6D960911C07615086E197E04BDA1C
:1036E00044E06EEE70E086E197E0AAD98091380759
:1036F00064E1813009F460E186E197E03CDA44E07E
:103700006AEE70E086E197E09BD98FE880935307DB
:1037100080911A0790911B078038910509F035C1F7
:1037200080911C0790911D078034910509F03DC1DF
:1037300080913807813009F426C18FEC80935307BC
:10374000C2E16AED86E197E016DA6C2F86E197E038
:1037500012DA61E886E197E00EDA6091530786E1BC
:1037600097E009DA69ED86E197E005DA809138079C
:1037700061EF813009F462E286E197E0FCD946E02E
:1037800064EE70E086E197E05BD980913307909119
:103790003407892B09F40DC120914F073091500750
:1037A000409151075091520760E074E284EF90E03D
:1037B0000E945F38205131094109510956954795BA
:1037C000379527952093B80081E080932B05DF91F2
:1037D000CF911F910F91FF90EF90089561E080913C
:1037E0003C070E94C70861E080913D070E94C7081E
:1037F00080913C07082E000C990BFC01ED5EF44F04
:10380000E491F0E0EE0FFF1FE152F54F2591349166
:103810003093440720934307FC01E75AF44FE491A7
:10382000E093490780913D07082E000C990BFC019D
:10383000ED5EF44FE491F0E0EE0FFF1FE152F54F23
:10384000A591B491B0934607A0934507FC01E75AB0
:10385000F44FE491E0934A078C91E82BEC9380912C
:10386000310790913207892B09F434C0CFB7F8940F
:1038700080916204811127C0E8E4FBE08491EEE8C6
:10388000FBE09491E82FF0E0EE0FFF1FEB53F54FB4
:10389000A591B491EC91E92321F461E085E30E94C4
:1038A0009A0861E085E30E94C7088CB580618CBDF1
:1038B0008CB580648CBD61E084E30E94C70861E040
:1038C00083E30E94C708809162048F5F8093620443
:1038D000CFBFB9CE61E080913A070E94C70861E08E
:1038E00080913B070E94C70880913A07082E000C80
:1038F000990BFC01ED5EF44FE491F0E0EE0FFF1F39
:10390000E152F54F259134913093400720933F07C2
:10391000FC01E75AF44FE491E093470780913B079D
:10392000082E000C990BFC01ED5EF44FE491F0E0E1
:10393000EE0FFF1FE152F54FA591B491B0934207EE
:10394000A0934107FC01E75AF44FE491E093480744
:103950008C91E095E823EC9376CE8091310790919D
:103960003207892B29F0809154079091550763D92C
:10397000E0914507F0914607908180914A07809534
:1039800089238083A1CE8FE9D9CE8036910569F451
:1039900080911C0790911D07409739F4809138075A
:1039A000813029F08FEA80935307C2E0CACE80E1CC
:1039B000FACFE0914507F0914607808190914A0740
:1039C000892B808301CF0F931F93CF93DF93EC015B
:1039D00088819981009759F02A813B812617370702
:1039E00030F081E0DF91CF911F910F9108958B010D
:1039F0006F5F7F4F0E94B138009759F09983888399
:103A00001B830A832C813D81232B59F7FC011082F3
:103A1000E8CF80E0E7CFEF92FF920F931F93CF9311
:103A2000DF936115710541F480E0DF91CF911F9123
:103A30000F91FF90EF90089541155105A9F07B017A
:103A4000EC010C811D81040F151FB801BCDF882318
:103A500059F3288139818C819D81B701820F931F91
:103A60000E949A391D830C8381E0DFCFEF92FF9291
:103A70000F931F93CF93DF93EC017B018A01BA016F
:103A8000A2DF81110AC0CE0181DACE01DF91CF9190
:103A90001F910F91FF90EF9008951D830C83B70144
:103AA000888199810E949A39F0CFEF92FF920F930B
:103AB0001F93CF93DF93CDB7DEB761970FB6F8941E
:103AC000DEBF0FBECDBF8C01CB01F8011182108289
:103AD00013821282158214824AE09E012F5F3F4FAB
:103AE0007901B9010E945534F70101900020E9F7EE
:103AF0003197AF014E195F09B701C801B7DF619671
:103B00000FB6F894DEBF0FBECDBFDF91CF911F91EE
:103B10000F91FF90EF900895CF93DF93EC01FB019D
:103B20008617970741F0608171816115710539F041
:103B3000448155819BDFCE01DF91CF91089526DA34
:103B4000FACFFC0111821082138212821582148234
:103B5000E3CFCF92DF92EF92FF920F931F93CF9319
:103B6000DF938C01FC01E080F1807383628386E047
:103B7000F82FF69FC001F79F900D11240E94D234B8
:103B8000F80191838083E701D12CC12CF801848155
:103B90009581C816D90690F4808191819E012E19D5
:103BA0003F09820F931F009711F0BE01CADFCE01BB
:103BB000FFD9FFEFCF1ADF0A2696E8CFC701DF91C2
:103BC000CF911F910F91FF90EF90DF90CF900C94C9
:103BD0006E35AF92BF92CF92DF92EF92FF920F932A
:103BE0001F93CF93DF93EC018B016A018A819B8144
:103BF0008617970738F4685F7F4F8617970710F48A
:103C0000CE01A7DFEC80FD8086E08E9D50018F9D68
:103C1000B00C1124E016F10678F4888199818A0DA0
:103C20009B1D009711F0B6018CDF8FEFE81AF80AA0
:103C300086E0A80EB11CEECF1D830C83DF91CF91DF
:103C40001F910F91FF90EF90DF90CF90BF90AF90BA
:103C50000895EF92FF920F931F93CF93DF931F92DC
:103C60001F92CDB7DEB78B012091CD063091CE06E5
:103C7000B9016F5F7F4F2617370708F04CC0AC01C2
:103C800089EC96E0A6DF2091D4063091D50680918C
:103C9000CD069091CE06A9014F5F5F4F4817590797
:103CA00050F41A821982019728173907D0F5BE01FE
:103CB0006F5F7F4FB9DA2091D4063091D5061A8311
:103CC00009838901000F111F0E5F1F4F7801F594C2
:103CD000E794C90101962817390758F5BE016F5FAF
:103CE0007F4FA2DA2091D4063091D5068091D0067C
:103CF0009091D106F901EE0FFF1FE80FF91F215037
:103D00003109E216F306D0F4DF0114974D915C916E
:103D100052934293F4CF70E060E089EC96E050D982
:103D2000B2CF8217930738F69093D5068093D406C6
:103D3000C2CF1092D5061092D406D4CF29813A81F1
:103D4000800F911FFC01318320830F900F90DF9132
:103D5000CF911F910F91FF90EF900895AF92BF9276
:103D6000CF92DF92EF92FF920F931F93CF93DF9347
:103D700000D01F92CDB7DEB78C015C834B83809659
:103D8000F80144A155A19A012F5F3F4F42175307F5
:103D900008F054C0AB01B9011CDFF80182A993A956
:103DA00064A175A15801FEE2AF0EB11C9C012F5F0A
:103DB0003F4F2617370768F41A821982615071093C
:103DC0008617970708F03EC0AE014F5F5F4FC501F1
:103DD000CBD9F80122A933A97901EE0CFF1CF2E03E
:103DE000EF0EF11C6701D594C794B9016F5F7F4F47
:103DF0002617370770F5AE014D5F5F4FC501B4D987
:103E0000F80142A953A99A01220F331FF80186A590
:103E100097A541505109B90162507109C416D506E0
:103E2000E0F4280F391FF901349720813181860F82
:103E3000971FFC01318320839B01E8CF70E060E095
:103E4000BFD8ABCF6817790720F6F80173AB62AB28
:103E5000C0CFF80113AA12AAD3CF2B813C818E0DBB
:103E60009F1DFC01318320830F900F900F900F90C6
:103E7000DF91CF911F910F91FF90EF90DF90CF9046
:103E8000BF90AF900895AF92BF92CF92DF92EF9222
:103E9000FF920F931F93CF93DF93EC018B01681771
:103EA000790709F460C0FB01648175818A819B8177
:103EB0008617970710F4CE014CDE8C819D81F801A6
:103EC000A480B5808A159B0508F45C01F12CE12CD7
:103ED000D12CC12CCA14DB0489F0F80160817181F6
:103EE0006E0D7F1D888199818E0D9F1D15DEFFEF60
:103EF000CF1ADF0A86E0E80EF11CECCFEC80FD80E3
:103F0000F80184819581E816F90618F586E08E9D02
:103F100060018F9DD00C1124F80184819581E816F1
:103F2000F906B8F4888199818C0D9D1D009729F0C0
:103F3000608171816C0D7D1D04DE8C819D810196F7
:103F40009D838C83FFEFEF1AFF0A86E0C80ED11C19
:103F5000E3CFF801648175818C819D8168177907B1
:103F600010F4CE012DD8CE01DF91CF911F910F918A
:103F7000FF90EF90DF90CF90BF90AF900895EF92B9
:103F8000FF920F931F93CF93DF93EC018B01DB0123
:103F90008D919C9111979983888312968D919C9114
:103FA00013979B838A8314968D919C9115979D837B
:103FB0008C8316968D919C9117979F838E8318966C
:103FC0008D919C911997998788871A968D919C91CC
:103FD0001B979B878A871C968D919C911D979D8727
:103FE0008C871E968D919C911F979F878E875096E8
:103FF0008D919C915197998B888B52968D919C9124
:1040000053979B8B8A8B54968D919C9155979D8B42
:104010008C8B56968D919C9157979F8B8E8B6C179E
:104020007D07F9F0888D998D009709F45DC0589649
:104030006D917C9159976115710509F453C04A8DB2
:104040005B8D5C962D913C914217530708F44AC052
:104050000E949A39F801848D958D9D8F8C8F158ED5
:10406000148EF801868D978D9F8F8E8FB801605EBC
:104070007F4FCE01809607DFCE0187969801295D9C
:104080003F4F8217930709F481C0D8019B966D9129
:104090007C9129A53AA52617370708F49AD88BA54D
:1040A0009CA5F80143A554A5BC014817590708F47D
:1040B000BA0130E020E026173707B1F17901EE0CA4
:1040C000FF1CF801A7A1B0A5AE0DBF1D0D90BC91BE
:1040D000A02DEFA1F8A5EE0DFF1DB183A0832F5FEA
:1040E0003F4FE9CF0E946E35D80158968D919C9133
:1040F0005997998F888F5A968D919C915B979B8F3A
:104100008A8F5C968D919C915D979D8F8C8F59962F
:104110001C921E9258975B961C921E925A975D961F
:104120001C921E925C979DCF8417950728F59C01E1
:10413000220F331FD8019B964D915C919C97841759
:104140009507D0F4EFA1F8A5E20FF31F309751F0D7
:1041500097964D915C91DA01A20FB31F4D915C913E
:10416000518340834BA55CA54F5F5F4F5CA74BA776
:1041700001962E5F3F4FDECFF80183A594A52BA5B6
:104180003CA58217930710F49CA78BA7CE018E96AF
:104190009801225D3F4F8217930709F460C0D80150
:1041A000D2966D917C9128A939A92617370710F46A
:1041B0000E9489188AA99BA9F80142A953A9BC01A8
:1041C0004817590708F4BA0130E020E026173707EE
:1041D000A1F07901EE0CFF1CF801A6A5B7A5AE0D64
:1041E000BF1D0D90BC91A02DEEA5FFA5EE0DFF1DEE
:1041F000B183A0832F5F3F4FE9CF8417950728F540
:104200009C01220F331FD801D2964D915C91D39718
:1042100084179507D0F4EEA5FFA5E20FF31F3097A2
:1042200051F09E964D915C91DA01A20FB31F4D9112
:104230005C91518340834AA95BA94F5F5F4F5BABA1
:104240004AAB01962E5F3F4FDECFF80182A993A9BA
:104250002AA93BA98217930710F49BAB8AABCE0126
:10426000DF91CF911F910F91FF90EF900895FC0186
:10427000118210821382128215821482FB01019036
:104280000020E9F73197AF01461B570BEFCBCF92D8
:10429000DF92EF92FF920F931F93CF93DF93EC0186
:1042A0006B0182E090E09983888381E090E09B83BA
:1042B0008A831D821C821F821E828AE090E0998779
:1042C000888724E130E03B872A879D878C871F867B
:1042D0001E8608E010E0198B088B1B8B0A8B1F8A47
:1042E0001E8A7E0188E1E80EF11C68E273E0C701D6
:1042F000BEDF1BA30AA31DA21CA280E390E00E94C4
:10430000D23499A388A31AA709A71CA61BA680E1EB
:1043100090E00E94D23498A78FA319AB08AB1BAAD8
:104320001AAA80E190E00E94D2349FA78EA7B6011E
:10433000C701F2DB86E197E09D8B8C8BDF91CF91FB
:104340001F910F91FF90EF90DF90CF900895AF9263
:10435000BF92CF92DF92EF92FF920F931F93CF9372
:10436000DF93EC015B016A0182E090E0998388832E
:1043700081E090E09B838A831D821C821F821E82C3
:104380008AE090E09987888724E130E03B872A879C
:104390009D878C871F861E8608E010E0198B088B8E
:1043A0001B8B0A8B1F8A1E8A7E0188E1E80EF11C96
:1043B00068E273E0C7015BDF1BA30AA31DA21CA276
:1043C00080E390E00E94D23499A388A31AA709A79A
:1043D0001CA61BA680E190E00E94D23498A78FA370
:1043E00019AB08AB1BAA1AAA80E190E00E94D23454
:1043F0009FA78EA7B501C7018FDBB601CE018096BE
:1044000042DD86E197E09D8B8C8BDF91CF911F91F0
:104410000F91FF90EF90DF90CF90BF90AF900895F5
:104420004F925F926F927F928F929F92AF92BF92C4
:10443000CF92DF92EF92FF920F931F93CF93DF9370
:10444000CDB7DEB76C970FB6F894DEBF0FBECDBF09
:104450002B013C016A0120E030E040E452E40E947C
:1044600073364B015C0120E030E040E85FE30E94DE
:104470005B38181634F0812C912C90E8A92E9FE31C
:10448000B92EC501B4010E940B384B0128E12C9DC7
:1044900050012D9DB00C112428E0A20EB11CC0903B
:1044A0002007D0902107C61AD70AEE24E394F12CF6
:1044B0008B0127E130E0A601B50186E197E00E947B
:1044C000AF0F8DE0881691040CF099C06091200721
:1044D000709121076A507109072E000C880B990B07
:1044E0000E941436698F7A8F8B8F9C8FB6016A5029
:1044F0007109072E000C880B990B0E941436298D28
:104500003A8D4B8D5C8D0E943C380E940B386B01BC
:1045100081E090E0909329078093280790932707E4
:104520008093260720E030E048EC52E4C301B2015A
:104530000E9473360E940B38CB0126E030E06A30CF
:10454000710514F023E030E0A20EB31EB0922307F1
:10455000A0922207D0922507C092240721E0209341
:104560002A0720932B071C8A1B8A1E8A1D8A188EF5
:104570001F8A4AE08E010F5F1F4FB8010E944B3423
:10458000F80101900020E9F73197AF01401B510B72
:10459000B801CE0143966ADABE016D5E7F4FC80155
:1045A000D0DA41E050E069E273E0C80134DA811109
:1045B00003C0C8010E94C617B80186E197E00E94B7
:1045C000321AC8010E94D817CE0143960E94D8170C
:1045D0006C960FB6F894DEBF0FBECDBFDF91CF91C2
:1045E0001F910F91FF90EF90DF90CF90BF90AF9011
:1045F0009F908F907F906F905F904F90089523E0F1
:10460000C20ED11C1092290710922807109227077A
:104610001092260787CF2F923F924F925F926F9210
:104620007F928F929F92AF92BF92CF92DF92EF9242
:10463000FF920F931F93CF93DF93CDB7DEB7ED9724
:104640000FB6F894DEBF0FBECDBFE0914105F091EB
:10465000420582E08083E0913D05F0913E051082A5
:10466000E0913F05F091400580E18083109249057B
:10467000E0914505F091460586E08083E091430591
:10468000F0914405808180618083E0914305F09141
:104690004405808188608083E0914305F091440562
:1046A000808180688083E0914305F091440580819A
:1046B0008F7D80836BE273E081E395E00E94231A93
:1046C00066E273E081E395E00E94231A1D821E8258
:1046D00018861F82198682E190E09A83898383E19C
:1046E00090E09C838B8360E082E10E94C70860E0D9
:1046F00083E10E94C70890E080E00E9427378F8303
:1047000081E090E00E942737888789E0FE0131969A
:10471000AEEDB6E001900D928A95E1F710E000E071
:104720008091D2059091D3050817190790F4C8011C
:10473000880F991F800F911FE091CE05F091CF0552
:10474000E80FF91F61E080810E94C7080F5F1F4FCB
:10475000E7CF10E000E0412C30E8532E39E2632E21
:1047600034E4732E812C912C40E7A42E43E4B42E24
:1047700080910007909101070817190708F084C07D
:10478000E091FC06F091FD06C801880F991FE80F23
:10479000F91F208131813DAF2CAFC0900707D09029
:1047A000080776013FEFE31AF30ACE14DF0408F09E
:1047B00066C020910507309106072E153F05A0F52C
:1047C000C60109962817390778F52090030730901D
:1047D0000407909306078093050742E19C01429FDE
:1047E000C001439F900D11240E94D234809303078F
:1047F00090930407A1019C0190E080E0C816D906BF
:1048000081F02115310539F062E1FA01D9010190F9
:104810000D926A95E1F701964E5E5F4F2E5E3F4F17
:10482000EDCFC1010E946E35809107079091080776
:1048300042E1489F9001499F300D1124E091030708
:10484000F0910407E20FF31F8E159F0588F430974F
:1048500061F02CAD3DAD318320834282538264826E
:10486000758286829782A086B18601967296ECCF79
:10487000F0920807E09207070F5F1F4F79CF109261
:10488000080710920707F8CF2091DE063091DF0667
:104890002230310509F4BEC12330310509F4BCC111
:1048A000C9014297049740F487E1821B43E050E03E
:1048B00068E977E10E944D092091E0063091E10618
:1048C0002230310509F4AAC12330310509F4A8C109
:1048D000C9014297049740F487E1821B42E050E00F
:1048E00067E777E10E944D090E94601A67E373E071
:1048F000CE01C696BCDCBE016A5C7F4FCE0101963C
:10490000C6DCBE016F5F7F4F8FE396E038DBCE01E0
:1049100001960E947618CE01C6960E94D81761E4CF
:1049200073E0CE01C696A3DC4EEE56E0BE016A5C93
:104930007F4FCE0101960BDDBE016F5F7F4F8AE096
:1049400096E01DDBCE0101960E947618CE01C69638
:104950000E94D81769E473E0CE01C69688DC47EE62
:1049600056E0BE016A5C7F4FCE010196F0DCBE01CD
:104970006F5F7F4F85ED95E002DBCE0101960E94CF
:104980007618CE01C6960E94D81762E573E0CE0174
:10499000C6966DDCBE016A5C7F4FCE01019677DC66
:1049A000BE016F5F7F4F89EA96E0E9DACE0101969A
:1049B0000E947618CE01C6960E94D81767E573E06C
:1049C000CE01019654DC49E657E1BE016F5F7F4F8F
:1049D00085ED95E0C3D9CE0101960E94D81768E60F
:1049E00073E0CE01019643DC4CEA59E1BE016F5FF2
:1049F0007F4F8FE396E0B2D9CE0101960E94D8177F
:104A000061E773E0CE01019632DC46EA59E1BE016E
:104A10006F5F7F4F8FE396E0A1D9CE0101960E9490
:104A2000D8176AE773E0CE01019621DC40EA59E12C
:104A3000BE016F5F7F4F8FE396E090D9CE01019664
:104A40000E94D81763E873E0CE01019610DC4AE9B2
:104A500059E1BE016F5F7F4F8FE396E07FD9CE01B2
:104A600001960E94D8176CE873E0CE010196FFDB37
:104A700044E959E1BE016F5F7F4F8FE396E06ED945
:104A8000CE0101960E94D81765E973E0CE01019628
:104A9000EEDB49EB57E1BE016F5F7F4F84E796E0A5
:104AA0005DD9CE0101960E94D81765E973E0CE0169
:104AB0000196DDDB49EB57E1BE016F5F7F4F8FE36E
:104AC00096E04CD9CE0101960E94D81765E973E0B3
:104AD000CE010196CCDB49EB57E1BE016F5F7F4F02
:104AE0008AE096E03BD9CE0101960E94D81765E98D
:104AF00073E0CE010196BBDB49EB57E1BE016F5F6E
:104B00007F4F85ED95E02AD9CE0101960E94D817F6
:104B10006BE573E0CE010196AADB40E757E1BE01E9
:104B20006F5F7F4F89EA96E019D9CE0101960E9406
:104B3000D8176DE973E0CE01019699DB6FE376E05B
:104B4000CE01019686D8CE0101960E94D8176EEA52
:104B500073E0CE0101968BDB6AE076E0CE01019630
:104B600078D8CE0101960E94D81766EB73E0CE018B
:104B700001967DDB65ED75E0CE0101966AD8CE0128
:104B800001960E94D81789EA96E0909327058093B2
:104B9000260560E082E00E94C70860E08CE00E9489
:104BA000C70860E08DE00E94C70860E088E00E94CE
:104BB000C70860E087E00E94C70861E084E30E94C4
:104BC000C70861E085E30E94C7088091E4069091E0
:104BD000E506909325058093240510921502109206
:104BE0001402ED960FB6F894DEBF0FBECDBFDF9175
:104BF000CF911F910F91FF90EF90DF90CF90BF90DA
:104C0000AF909F908F907F906F905F904F903F906C
:104C10002F90089580E04ACE81E048CE80E05ECEBD
:104C200081E05CCE1F920F920FB60F9211240BB64B
:104C30000F922F933F934F935F936F937F938F9335
:104C40009F93AF93BF93EF93FF9381E395E00E940F
:104C50004E07FF91EF91BF91AF919F918F917F91FF
:104C60006F915F914F913F912F910F900BBE0F90DD
:104C70000FBE0F901F9018951F920F920FB60F92B4
:104C800011240BB60F922F938F939F93EF93FF9363
:104C9000E0914105F09142058081E0914705F09156
:104CA000480582FD1DC0908180914A058F5F8F73FA
:104CB00020914B05821741F0E0914A05F0E0EF5C4E
:104CC000FA4F958F80934A05FF91EF919F918F91B5
:104CD0002F910F900BBE0F900FBE0F901F90189545
:104CE0008081F2CF1F920F920FB60F9211242F9353
:104CF0003F938F939F93AF93BF9380911C059091A7
:104D00001D05A0911E05B0911F053091170523E0E8
:104D1000230F2D3758F50196A11DB11D20931705BE
:104D200080931C0590931D05A0931E05B0931F054D
:104D30008091180590911905A0911A05B0911B0555
:104D40000196A11DB11D8093180590931905A0939C
:104D50001A05B0931B05BF91AF919F918F913F9121
:104D60002F910F900FBE0F901F90189526E8230FDC
:104D70000296A11DB11DD2CF1F920F920FB60F92B6
:104D800011240BB60F922F933F934F935F936F9322
:104D90007F938F939F93AF93BF93EF93FF93E09194
:104DA0000E02F0910F021995FF91EF91BF91AF9113
:104DB0009F918F917F916F915F914F913F912F9133
:104DC0000F900BBE0F900FBE0F901F9018951F9263
:104DD0000F920FB60F9211240BB60F922F933F93A1
:104DE0004F935F936F937F938F939F93AF93BF93F3
:104DF000EF93FF93E0910C02F0910D021995FF9152
:104E0000EF91BF91AF919F918F917F916F915F9142
:104E10004F913F912F910F900BBE0F900FBE0F90AF
:104E20001F9018951F920F920FB60F9211240BB678
:104E30000F922F933F934F935F936F937F938F9333
:104E40009F93AF93BF93EF93FF93E0910202F09192
:104E500003021995FF91EF91BF91AF919F918F91AF
:104E60007F916F915F914F913F912F910F900BBE6A
:104E70000F900FBE0F901F9018951F920F920FB6B4
:104E80000F9211240BB60F922F933F934F935F9382
:104E90006F937F938F939F93AF93BF93EF93FF9302
:104EA000E0910002F09101021995FF91EF91BF91FD
:104EB000AF919F918F917F916F915F914F913F91B2
:104EC0002F910F900BBE0F900FBE0F901F90189553
:104ED0001F920F920FB60F9211240BB60F922F93C1
:104EE0003F934F935F936F937F938F939F93AF9372
:104EF000BF93EF93FF93E0910A02F0910B02199593
:104F0000FF91EF91BF91AF919F918F917F916F91A1
:104F10005F914F913F912F910F900BBE0F900FBE5D
:104F20000F901F9018951F920F920FB60F92112499
:104F30000BB60F922F933F934F935F936F937F9393
:104F40008F939F93AF93BF93EF93FF93E0910802EA
:104F5000F09109021995FF91EF91BF91AF919F9147
:104F60008F917F916F915F914F913F912F910F9012
:104F70000BBE0F900FBE0F901F9018951F920F92AF
:104F80000FB60F9211240BB60F922F933F934F93AE
:104F90005F936F937F938F939F93AF93BF93EF93A1
:104FA000FF93E0910602F09107021995FF91EF91AE
:104FB000BF91AF919F918F917F916F915F914F9131
:104FC0003F912F910F900BBE0F900FBE0F901F902F
:104FD00018951F920F920FB60F9211240BB60F92D5
:104FE0002F933F934F935F936F937F938F939F93F1
:104FF000AF93BF93EF93FF93E0910402F09105020A
:105000001995FF91EF91BF91AF919F918F917F91F2
:105010006F915F914F913F912F910F900BBE0F9029
:105020000FBE0F901F9018951F920F920FB60F9200
:1050300011240BB60F922F933F934F935F936F936F
:105040007F938F939F93AF93BF93EF93FF93809141
:10505000B900887F803609F44DC008F040C088321E
:1050600009F4A9C028F5803109F49DC0C8F488234B
:1050700009F4FBC0883009F496C0FF91EF91BF910D
:10508000AF919F918F917F916F915F914F913F91E0
:105090002F910F900BBE0F900FBE0F901F90189581
:1050A000883109F488C0803241F78093F00414C03D
:1050B000803409F49DC040F48033B9F38833E9F6B5
:1050C0008093F00485ECB0C0803509F485C0883544
:1050D00009F496C0883489F60E94B311CECF88397E
:1050E00009F48CC038F5883729F050F4883611F06F
:1050F000803719F683E08093F1041092EF0457C0D3
:10510000883809F47BC0803919F0803809F0B5CFB0
:105110008091EF04803208F071C0E091EF0481E0EB
:105120008E0F8093EF048091BB00F0E0E153FB4FC2
:1051300080833DC0803B39F0E0F4803A09F479C0C7
:10514000883A09F09ACF84E08093F1041092CC045D
:105150001092CB04E091C904F091CA041995809192
:10516000CB0481110FC081E08093CB041092A9047D
:1051700009C0803C09F4A6CF883C09F4A3CF883B42
:1051800009F07BCFE091CC0481E08E0F8093CC04BA
:10519000F0E0E755FB4F80818093BB009091CC04F9
:1051A0008091CB0429C0809116058093BB0085ECCB
:1051B0008093BC0062CF90911505809114059817DB
:1051C00058F5E091150581E08E0F80931505F0E00C
:1051D000EC50FB4F8081E9CFE091150581E08E0F07
:1051E000809315058091BB00F0E0EC50FB4F80836D
:1051F00090911505809114059817C8F285E8D8CFCD
:10520000E091150581E08E0F809315058091BB001C
:10521000F0E0EC50FB4F80838091F30481115CCF70
:1052200081E08093F20484EA8093BC001092F10440
:1052300024CF85EC8093BC001092F1048091EF04A0
:10524000803230F4E091EF04F0E0E153FB4F108244
:105250006091EF0470E0E091CD04F091CE048FEC0A
:1052600094E019951092EF0408CF1092F00434CF17
:10527000CF93DF93EB0188819981A0E8B7E0119685
:105280009C938E932A813B810697EC01E881F981FA
:10529000E058F84F3183208312961D921D921D9283
:1052A0001C92159781E290E09483838386E897E0CF
:1052B000948B838B1582158ADF91CF910895CF93BC
:1052C000DF93C0E8D7E081E290E09C8F8B8F1D8E4A
:1052D0001E8E1F8E86E090E0A0E0B0E088A399A328
:1052E000AAA3BBA31CA21DA21EA21FA282E592E03C
:1052F000998F888F80E288A71AA619A686E897E07A
:105300009CA78BA71DA6AC0160EA72E0CE01B0DFBE
:105310008CEA92E09983888386EB92E0998F888F5C
:105320001A8619861C861B861E861D86188A1F866D
:105330001A8A198A1C8A1B8A8AE592E09F838E83C7
:1053400081E395E09F8B8E8B88E08D8BDF91CF91F1
:105350000895DB018D919C9111979093570780934D
:10536000560712962D913C910697DC01ED91FC9128
:10537000EA5AF84F3183208381E290E0948383835B
:1053800088E597E0948B838B1582158A0895CF93D7
:10539000DF93C6E5D7E081E290E0988F8F8B198E7E
:1053A0001A8E1B8E86E090E0A0E0B0E08C8F9D8F7F
:1053B000AE8FBF8F18A219A21AA21BA282E592E09B
:1053C0009D8B8C8B80E28CA31EA21DA288E597E0AA
:1053D00098A78FA319A6AC016CEB72E0CE01B9DFE0
:1053E00088EC92E09983888382ED92E09D8B8C8B90
:1053F0001E821D8218861F821A8619861C861B86AD
:105400001E861D86188A1F868AE592E09B838A8302
:1054100081E395E09B8B8A8B80E1898BDF91CF9133
:105420000895EF92FF920F931F93CF93DF938C0118
:1054300088E090E09093D1058093D0051092D30539
:105440001092D20588E190E00E94D2347C019093C2
:10545000CF058093CE0585E00E3C180709F450C0B7
:10546000D8011496CD91DC91C930D105E0F1D093EB
:10547000D105C093D005CE01880F991F8C0F9D1FB9
:105480000E94D2349093CF058093CE05C7010E942D
:105490006E3590E080E0C817D90739F19C01220FE2
:1054A000331F280F391FE091CE05F091CF05E20F91
:1054B000F31F309761F0D8014D915C91240F351F97
:1054C000D9012D913D914C912083318342832091CC
:1054D000D2053091D3052F5F3F4F3093D3052093F2
:1054E000D2050196D8CF2097A1F68091D205909150
:1054F000D305C817D90720F4D093D305C093D2059C
:10550000DF91CF911F910F91FF90EF9008958F92AF
:105510009F92AF92BF92EF92FF920F931F93CF9300
:10552000DF93EC014A01CB0108969B838A837D833C
:105530006C8326E0AC01249FC001259F900D1124AF
:105540000E94D2349983888310E000E0F12CE12C92
:105550008C819D81E816F90688F488819981800FF5
:10556000911F009729F0B801680D791D0E94A11DB7
:105570005FEFE51AF50A0A5F1F4FEACFDF91CF917F
:105580001F910F91FF90EF90BF90AF909F908F90E1
:1055900008950F931F93CF93DF93EC0182E090E087
:1055A0009983888381E090E09B838A831D821C829B
:1055B0001F821E828AE090E09987888724E130E08C
:1055C0003B872A879D878C871F861E8608E010E010
:1055D000198B088B1B8B0A8B1F8A1E8A68E273E06B
:1055E000CE0148960E9437211BA30AA31DA21CA22C
:1055F00080E390E00E94D23499A388A31AA709A758
:105600001CA61BA680E190E00E94D23498A78FA32D
:1056100019AB08AB1BAA1AAA80E190E00E94D23411
:105620009FA78EA7DF91CF911F910F910895CF92E1
:10563000DF92EF92FF920F931F93CF93DF93CDB73B
:10564000DEB7A5970FB6F894DEBF0FBECDBF1092A0
:1056500034051092330588EEC82E83E0D82EE12C55
:10566000F12CC0923505D0923605E0923705F092C4
:1056700038058AED92E0909332058093310585ECF0
:1056800090E090933E0580933D0584EC90E09093EC
:10569000400580933F0580EC90E090934205809315
:1056A000410581EC90E0909344058093430582ECA2
:1056B00090E0909346058093450586EC90E09093AA
:1056C00048058093470510924A0510924B051092A9
:1056D0004C0510924D0561E375E086E597E057DED5
:1056E00061E375E080E897E0EADD10923005109202
:1056F0002F0581E395E090932E0580932D056AEBAD
:1057000076E085E996E00E946E34909330058093B0
:105710002F0510920D0710920C07C0920E07D09221
:105720000F07E0921007F09211078CEE92E0909331
:105730000B0780930A07109219071092180720E8A8
:1057400030E030931B0720931A0780E490E0909399
:105750001D0780931C0730931F0720931E0790930B
:1057600021078093200710922C0710922307109294
:105770002207109225071092240781E080932B07BF
:1057800080932A072FEF3FEF3093290720932807B4
:10579000309327072093260780932D0710922E071A
:1057A0001092300710922F078EEF92E09093170718
:1057B0008093160710923207109231078AE097E023
:1057C0009093340780933307109236071092350771
:1057D0008FEF80933A0780933B0780933C07809339
:1057E0003D0780933E0780E89AE1A6E0B0E0809311
:1057F0004B0790934C07A0934D07B0934E0780EA58
:1058000096E8A1E0B0E080934F0790935007A093F3
:105810005107B093520780E58093540710925507C3
:1058200088E090E0909306078093050710920807A0
:105830001092070780E990E00E94D2349093040709
:10584000809303078DE090E09093FF068093FE061F
:1058500085E090E090930107809300078AE190E053
:105860000E94D2348093FC069093FD06FC01A4E4D0
:10587000B2E00A96309729F02D913C91119731832F
:105880002083329612968E179F07A1F768E673E081
:105890008E010F5F1F4FC8010E94372161E773E03F
:1058A000CE0107960E9437216AE773E0CE010D967C
:1058B0000E94372163E873E0CE0143960E943721AE
:1058C0006CE873E0CE0149960E943721A80165E09B
:1058D00070E085EF96E01BDECE0149960E94D81756
:1058E000CE0143960E94D817CE010D960E94D8177C
:1058F000CE0107960E94D817C8010E94D8176FEBF7
:1059000073E0C8010E94372168EC73E0CE0107966E
:105910000E94372162ED73E0CE010D960E9437217F
:10592000A80163E070E08EEE96E0F1DDCE010D9609
:105930000E94D817CE0107960E94D817C8010E946E
:10594000D8176DED73E0C8010E94372161EF73E055
:10595000CE0107960E943721A80162E070E087EE31
:1059600096E0D5DDCE0107960E94D817C8010E94A7
:10597000D8171092E2061092E3061092E5061092F4
:10598000E4061092E60689EA96E003DE84E796E0F4
:1059900000DE8FE396E0FDDD8AE096E0FADD85ED3E
:1059A00095E0F7DD8EE190E09A8389831B8282E2A5
:1059B00090E09D838C831E8286E290E098878F839F
:1059C00019868AE290E09B878A871C868EE290E0A7
:1059D0009E878D871F868DE090E09AA389A385E03E
:1059E00090E09CA38BA387E290E0DCD78F8F98A3F5
:1059F000DC01F8010F96109739F020813181428146
:105A00002D933D934C931297139633968A179B07C9
:105A100091F7CE014F9605DD8F8D98A10E946E35CE
:105A2000A5960FB6F894DEBF0FBECDBFDF91CF9124
:105A30001F910F91FF90EF90DF90CF900895CF933B
:105A4000DF93CDB7DEB7CA54D1090FB6F894DEBFE5
:105A50000FBECDBF789484B5826084BD84B581606B
:105A600084BD85B5826085BD85B5816085BD809129
:105A70006E00816080936E001092810080918100A1
:105A80008260809381008091810081608093810099
:105A9000809180008160809380008091B10084605B
:105AA0008093B1008091B00081608093B0008091BC
:105AB0009100826080939100809191008160809339
:105AC0009100809190008160809390008091A1006E
:105AD00082608093A1008091A10081608093A100E9
