:10000000E7C5000016C6000014C6000012C60000B6
:1000100010C600000EC600000CC600000AC6000094
:1000200008C6000006C6000004C6000002C60000A4
:1000300000C60000FEC50000FCC50000FAC50000B7
:10004000F8C50000F6C50000F4C50000F2C50000C8
:10005000F0C50000EEC50000ECC500000C94BA1914
:10006000E8C500000C9484190C945A19E2C50000EC
:10007000E0C50000DEC50000DCC50000DAC50000F8
:10008000D8C50000D6C50000D4C50000D2C5000008
:10009000D0C50000CEC50000CCC500000C94041AE9
:1000A000C8C50000C6C50000C4C50000C2C5000028
:1000B000C0C50000BEC50000BCC50000BAC5000038
:1000C000B8C50000B6C50000B4C50000B2C5000048
:1000D000B0C50000AEC50000ACC50000AAC5000058
:1000E000A8C50000DB40A4A62EAF2000A1C8D30005
:1000F000408DAED580A80000600000000000000028
:1001000000000000000000E000000000000000000F
:10011000000000000001E0000000000000000000FE
:100120000000000001F000000000000000000000DE
:1001300000000003F00000000000000000000000CC
:10014000000007F0000000000000000000000000B8
:100150000007F800000000000000000000000000A0
:100160000FF800000003C0007E000001E0007F0FD8
:10017000F800000003C000FE000001E000FFEFF8FF
:1001800000000003C000FE000001E000FFFFF800D7
:10019000000003C000F00000000F007FFE7FC000E1
:1001A0000003C000F00000000F003FFE7FF83FF1A9
:1001B000FBCFFCFEF3BC3DEFE01FFE7FFF7FFBFFAC
:1001C000DFFEFEFFBC3DEFE01FC6FFFF7FFBFFDF52
:1001D000FEFEFFBC3DEFE00FE3C7FE787BC3DE1EF3
:1001E000F0FFBC3DEF0007FF87FC787BC3DE1EF00D
:1001F000F83C3DEF0001FFFFF0007BC3C01EF0F0B4
:100200003C3DEF0001F37FE03FFBC3CFFEF0F03C4D
:100210003DEF0003E33F807FFBC3DFFEF0F03C3D9A
:10022000EF0007E73C00787BC3DE1EF0F03C3DEFBB
:100230000007FFBE00787BC3DE1EF0F03C3DEF0000
:1002400007FFFE00787BC3DE1EF0F03C3DEF000FA1
:10025000FFFE007FFBFFDFFEF0F03FFDEFE00FFF52
:10026000FF007FFBFFDFFEF0F03FFDEFE00FF9FF47
:10027000003E79F9CF9EF0F01F3DE7E01FF1FF004F
:1002800000000000000000000000001F80FF007F51
:10029000FFFFFFFFFFFFFFFFFFE01C007F007FFF6E
:1002A000FFFFFEB46D888D18E000001F007FFFFF88
:1002B000FFFE95AD7DB577E000000F007FFFFFFFEB
:1002C000FEA5AD9D8D19E0000006007FFFFFFFFE3B
:1002D000B5ADEDB57EE0000000000001800000003B
:1002E000000000000000038000000000000000008B
:1002F0000007C000000000000000000007C0000070
:10030000000000000000000FC0000000000000001E
:1003100000001FE00000000000000000001FE000DF
:1003200000000000000000003FE0000000000000AE
:100330000000003FF00000000000000000007FF01F
:10034000000000000000001FF87FF0000000000027
:1003500000003FFE7FF0000000000000003FFF7F34
:10036000F0000000000000001FFFFBE000000000A4
:100370000000000FFFF9FFC00000000000000FFFA9
:10038000F9FFF800000000000007FFF1FFFF000088
:100390000000000003FC73FFFF800000000000016C
:1003A000FE3FFFFF80000000000000FF1E0FFF0067
:1003B0000000000000007FFE1FFC000000000000A5
:1003C000003FFFFFF8000000000000000FDFFFE02B
:1003D000000000000000001F19FFC0000000000026
:1003E00000003F3CFF00000000000000007E7CF8A1
:1003F00000000000000000007FFE7C000000000004
:10040000000000FFFFFC0000000000000000FFFFF4
:10041000FE0000000000000000FFFFFE00000000E2
:1004200000000001FFEFFE0000000000000001FFDF
:10043000CFFE0000000000000003FF07FE000000E8
:100440000000000003FC07FE0000000000000003A5
:10045000F003FE00000000000000018000FE00002C
:1004600000000000000000007E000000000000000E
:100470000000003E000000000000000000000C0032
:100480000000000000078000FC000003C000000026
:10049000078001FC000003C0000000078001FC0091
:1004A0000003C0000000078001E00000001E000003
:1004B00000078001E00000001E007FE3F79FF9FDC8
:1004C000E7787BDFC0FFF7FFBFFDFDFF787BDFC074
:1004D000FFF7FFBFFDFDFF787BDFC0F0F787BC3D76
:1004E000E1FF787BDE00F0F787BC3DE1F0787BDE52
:1004F0000000F787803DE1E0787BDE007FF7879F93
:10050000FDE1E0787BDE00FFF787BFFDE1E0787B6F
:10051000DE00F0F787BC3DE1E0787BDE00F0F78796
:10052000BC3DE1E0787BDE00F0F787BC3DE1E078A0
:100530007BDE00FFF7FFBFFDE1E07FFBDFC0FFF7E1
:10054000FFBFFDE1E07FFBDFC07CF3F39F3DE1E017
:100550003E7BCFC00000000000000000000000FF54
:10056000FFFFFFFFFFFFFFFFFFC0FFFFFFFFFD6873
:10057000DB111A31C0FFFFFFFFFD2B5AFB6AEFC0F2
:10058000FFFFFFFFFD4B5B3B1A33C0FFFFFFFFFD8B
:100590006B5BDB6AFDC05353443133303620616CF2
:1005A0006C6F636174696F6E206661696C6564006D
:1005B000000103070F1F3F7F0080C0E0F0F8FCFE42
:1005C00000000000003E5B4F5B3E3E6B4F6B3E1CED
:1005D0003E7C3E1C183C7E3C181C577D571C1C5E04
:1005E0007F5E1C00183C1800FFE7C3E7FF001824DB
:1005F0001800FFE7DBE7FF30483A060E2629792985
:1006000026407F050507407F05253F5A3CE73C5AB9
:100610007F3E1C1C08081C1C3E7F14227F22145F96
:100620005F005F5F06097F017F006689956A6060F1
:1006300060606094A2FFA29408047E040810207EEB
:10064000201008082A1C08081C2A08081E10101070
:10065000100C1E0C1E0C30383E3830060E3E0E06B6
:10066000000000000000005F000000070007001409
:100670007F147F14242A7F2A1223130864623649C8
:100680005620500008070300001C224100004122B0
:100690001C002A1C7F1C2A08083E080800807030B5
:1006A0000008080808080000606000201008040224
:1006B0003E5149453E00427F40007249494946212A
:1006C00041494D331814127F1027454545393C4A9E
:1006D00049493141211109073649494936464949B5
:1006E000291E0000140000004034000000081422FD
:1006F000411414141414004122140802015909066B
:100700003E415D594E7C1211127C7F494949363E6B
:10071000414141227F4141413E7F494949417F0951
:100720000909013E414151737F0808087F00417F5C
:1007300041002040413F017F081422417F4040405A
:10074000407F021C027F7F0408107F3E4141413EF2
:100750007F090909063E4151215E7F091929462674
:100760004949493203017F01033F4040403F1F2078
:1007700040201F3F4038403F63140814630304784F
:1007800004036159494D43007F414141020408106F
:1007900020004141417F04020102044040404040AA
:1007A000000307080020545478407F284444383818
:1007B00044444428384444287F385454541800088A
:1007C0007E090218A4A49C787F0804047800447D64
:1007D00040002040403D007F1028440000417F4001
:1007E000007C047804787C08040478384444443855
:1007F000FC1824241818242418FC7C080404084835
:100800005454542404043F44243C4040207C1C2085
:1008100040201C3C4030403C44281028444C9090E0
:10082000907C4464544C440008364100000077003A
:1008300000004136080002010204023C2623263C47
:100840001EA1A161123A4040207A385454555921D2
:1008500055557941225454784221555478402054BA
:100860005579400C1E527212395555555939545408
:10087000545939555454580000457C410002457D77
:10088000420001457C407D1211127DF0282528F0A0
:100890007C545545002054547C547C0A097F4932CD
:1008A000494949323A4444443A324A4848303A4144
:1008B00041217A3A42402078009DA0A07D3D4242ED
:1008C000423D3D4040403D3C24FF2424487E494376
:1008D000662B2FFC2F2BFF0929F620C0887E0903E9
:1008E00020545479410000447D413048484A323810
:1008F0004040227A007A0A0A727D0D19317D26293C
:10090000292F28262929292630484D402038080833
:10091000080808080808382F10C8ACBA2F10283467
:10092000FA00007B000008142A142222142A14085A
:100930005500550055AA55AA55AAFF55FF55FF0069
:100940000000FF00101010FF00141414FF0010101E
:10095000FF00FF1010F010F0141414FC001414F732
:1009600000FF0000FF00FF1414F404FC141417101F
:100970001F10101F101F1414141F00101010F0006F
:100980000000001F101010101F10101010F01000A9
:100990000000FF101010101010101010FF100000B9
:1009A00000FF140000FF00FF00001F10170000FCF4
:1009B00004F414141710171414F404F40000FF00C6
:1009C000F714141414141414F700F714141417144F
:1009D00010101F101F141414F4141010F010F00055
:1009E000001F101F0000001F14000000FC14000076
:1009F000F010F01010FF10FF141414FF141010105A
:100A00001F00000000F010FFFFFFFFFFF0F0F0F00C
:100A1000F0FFFFFF0000000000FFFF0F0F0F0F0FA0
:100A20003844443844FC4A4A4A347E0202060602EC
:100A30007E027E0263554941633844443C04407E53
:100A4000201E2006027E020299A5E7A5991C2A49CC
:100A50002A1C4C7201724C304A4D4D303048784857
:100A600030BC625A463D3E494949007E0101017E43
:100A70002A2A2A2A2A44445F444440514A44404096
:100A8000444A51400000FF0103E080FF00000808D5
:100A90006B6B083612362436060F090F0600001855
:100AA000180000001010003040FF0101001F01017C
:100AB0001E00191D1712003C3C3C3C0000000000C9
:100AC00000000A0B02090C0D0E08070304010000C8
:100AD0000000000000000000000000000000000016
:100AE00000000000000000000000000012111000D3
:100AF00000000000000000000000000000000000F6
:100B00000000000000002200FF210000002200255C
:100B10000028002B002E00310034000201000005E7
:100B20000108010B0100002100240027002A002DEC
:100B3000003000330001010000040107010A010533
:100B4000050505070508080808020202020A0A0846
:100B5000080404040401010101010101010303036C
:100B60000303030303040707070C0C0C0C0C0C0C09
:100B70000C0202020206060606060606060B0B0B10
:100B80000B0B0B0B0B01021020200808102040104B
:100B90002040800201020108040201010204081041
:100BA000204080804020100804020180040201805F
:100BB0004020100804020108040201010204081088
:100BC000204080010204081020408000011C4022C7
:100BD00011241FBECFEFD1E2DEBFCDBF00E00CBFBE
:100BE00013E0A0E0B2E0E6E2FFE400E00BBF02C0E9
:100BF00007900D92A837B107D9F725E0A8E7B3E031
:100C000001C01D92A23AB207E1F715E0C7EED5E0A8
:100C100000E006C021970109802FFE010E94762680
:100C2000C63ED10780E00807A9F70E94441D0C9436
:100C30008227E6C91F93CF93DF93182FC091370403
:100C4000D09138048A3041F4E881F9810190F08133
:100C5000E02D6DE0CE011995E881F9810190F081D8
:100C6000E02D612FCE01199521E030E0019711F4BC
:100C700030E020E0C901DF91CF911F910895CF931B
:100C8000DF93C0913704D0913804E881F981008462
:100C9000F185E02DCE011995892BB9F3E881F98111
:100CA0000284F385E02DCE01DF91CF91199490E07D
:100CB000FC01EB57F44F2491815C944FFC0184912B
:100CC000882399F090E0880F991FFC01EB5DF44FA9
:100CD000A591B491FC01E55FF44F859194918FB794
:100CE000F894EC91E22BEC938FBF08950895DC010A
:100CF000ED91FC910190F081E02D1994AF92BF929B
:100D0000CF92DF92EF92FF920F931F93CF93DF93D7
:100D10006C017B018B01040F151FEB015E01AE1806
:100D2000BF08C017D10759F06991D601ED91FC9128
:100D30000190F081E02DC6011995892B79F7C50145
:100D4000DF91CF911F910F91FF90EF90DF90CF90A7
:100D5000BF90AF900895FC01538D448D252F30E056
:100D6000842F90E0821B930B541710F0CF960895B8
:100D700001970895FC01918D828D981761F0A28DE5
:100D8000AE0FBF2FB11D5D968C91928D9F5F9F73AB
:100D9000928F90E008958FEF9FEF0895FC01918D61
:100DA000828D981731F0828DE80FF11D858D90E0CE
:100DB00008958FEF9FEF0895FC01918D228D892F6B
:100DC00090E0805C9F4F821B91098F739927089553
:100DD0008BE394E0F1DF21E0892B09F420E0822FFE
:100DE0000895FC01A48DA80FB92FB11DA35ABF4FC0
:100DF0002C91848D90E001968F739927848FA6891A
:100E0000B7892C93A089B1898C91837080648C936D
:100E1000938D848D981306C00288F389E02D80811C
:100E20008F7D80830895EF92FF920F931F93CF934E
:100E3000DF93EC0181E0888F9B8D8C8D98131AC015
:100E4000E889F989808185FF15C09FB7F894EE89FC
:100E5000FF896083E889F989808183708064808359
:100E60009FBF81E090E0DF91CF911F910F91FF90A4
:100E7000EF900895F62E0B8D10E00F5F1F4F0F734C
:100E80001127E02E8C8D8E110BC00FB607FCFACF08
:100E9000E889F989808185FFF5CFCE01A2DFF2CF05
:100EA000EB8DEC0FFD2FF11DE35AFF4FF0829FB742
:100EB000F8940B8FEA89FB8980818062D0CFCF9331
:100EC000DF93EC01888D8823B1F0AA89BB89E8897A
:100ED000F9898C9185FD03C0808186FD0CC00FB619
:100EE00007FCF7CF8C9185FFF2CF808185FFEDCF96
:100EF000CE0177DFEACFDF91CF91089580E090E0D7
:100F0000892B21F065DF81110E94000080E090E0D4
:100F1000892B49F080E090E0892B29F00E940000A5
:100F200081110E94000080E090E0892B49F080E070
:100F300090E0892B29F00E94000081110E9400009E
:100F400080E090E0892B49F080E090E0892B29F047
:100F50000E94000081110C9400000895282F30E0B9
:100F6000F901E054F54F9491F901EB57F44F449196
:100F7000215C344FF9012491222309F435C09923CF
:100F800011F191509231F8F4E92FF0E08827E45301
:100F9000F84F8F4F0C947626FD070108DE07F50702
:100FA000F907E30704080A080E08140818081C08C3
:100FB00022082608E3072A083008340880918000B8
:100FC0008F7780938000E22FF0E0EE0FFF1FE55F48
:100FD000F44FA591B4918FB7F894EC91611148C08A
:100FE00040954E234C938FBF0895809180008F7D54
:100FF000E8CF80918000877FE4CF84B58F7784BD70
:10100000E2CF84B58F7DFBCF8091B0008F77809346
:10101000B000D9CF8091B0008F7DF9CF8091900042
:101020008F7780939000CFCF809190008F7DF9CF04
:1010300080919000877FF5CF8091A0008F7780937B
:10104000A000C1CF8091A0008F7DF9CF8091A0003A
:10105000877FF5CF809120018F7780932001B3CFD8
:10106000809120018F7DF9CF80912001877FF5CF7E
:101070004E2BB8CF3FB7F89480912E0490912F0457
:10108000A0913004B091310426B5A89B05C02F3F34
:1010900019F00196A11DB11D3FBFBA2FA92F982F9E
:1010A0008827BC01CD01620F711D811D911D42E099
:1010B000660F771F881F991F4A95D1F708958F9261
:1010C0009F92AF92BF92CF92DF92EF92FF924B012D
:1010D0005C01D0DF6B017C01CDDF6C197D098E09CD
:1010E0009F09683E734081059105B0F321E0821AA3
:1010F0009108A108B10888EEC80E83E0D81EE11C53
:10110000F11C81149104A104B10431F7FF90EF9018
:10111000DF90CF90BF90AF909F908F900895CB01BC
:1011200008954F925F926F927F92BF92CF92DF921B
:10113000EF92FF920F931F93CF93DF93EC0129015E
:101140003A018B01C12CD12C7601C414D504E604DC
:10115000F7040CF03FC0F801B1908F018F8580FF3C
:101160000BC0E881F9810084F185E02D20E144E0A5
:1011700070E060E0CE011995EB85FC858D859E853C
:10118000E817F90760F4B0828B859C8501969C87EF
:101190008B872FEFC21AD20AE20AF20AD6CF6B2D42
:1011A00070E0E881F981028CF38DE02DCE01199574
:1011B000019679F7C701B601DF91CF911F910F9189
:1011C000FF90EF90DF90CF90BF907F906F905F90F7
:1011D0004F90089573016201EDCFCF93DF93EC013F
:1011E000E881F9810288F389E02D19958F3F9807EE
:1011F00031F02D813E812F5F3F4F3E832D83DF9164
:10120000CF9108958FEF9FEF089560E070E0CB01DC
:10121000089590E080E00895FF920F931F93CF937D
:10122000DF938C01EB016F3F7607A9F0F62EEAE021
:101230006E1305C06DE0F8018089918958DD6F2D2E
:10124000F8018089918953DDCE01DF91CF911F9103
:101250000F91FF900895D0E0C0E0F6CF7F928F927B
:101260009F92AF92BF92CF92DF92EF92FF920F9335
:101270001F93CF93DF938C0149015A01EB01C12CDD
:10128000D12C7601C814D904EA04FB04A4F47990A3
:101290008AE0781205C06DE0F8018089918927DD28
:1012A000672DF8018089918922DDFFEFCF1ADF0ACF
:1012B000EF0AFF0AE7CFC501B401DF91CF911F917B
:1012C0000F91FF90EF90DF90CF90BF90AF909F90E5
:1012D0008F907F900895CF93DF93EC01888999894F
:1012E000DC01ED91FC910084F185E02D1995892BAD
:1012F000A9F388899989DC01ED91FC910284F38539
:10130000E02DDF91CF911994CF93DF93EC01888981
:101310009989DC01ED91FC910084F185E02D19950E
:10132000892BA9F388899989DC01ED91FC910484CA
:10133000F585E02DDF91CF9119948F929F92AF9216
:10134000BF92CF92DF92EF92FF920F931F93CF93B2
:10135000DF938C0149015A01EB01C12CD12C76019C
:10136000D80150968D919C91DC01ED91FC91028405
:10137000F385E02D19958F3F61F0C814D904EA0474
:10138000FB043CF48993BFEFCB1ADB0AEB0AFB0AA0
:10139000E7CFC701B601DF91CF911F910F91FF9069
:1013A000EF90DF90CF90BF90AF909F908F90089577
:1013B000DC0150968D919C91DC01ED91FC910084B3
:1013C000F185E02D199490E080E0089590E080E0B0
:1013D000089590E080E0089508950895DC01ED916E
:1013E000FC9136970190F081E02DE80FF91F8AE714
:1013F00092E09183808384E892E0978386830895C6
:101400002AE732E0FC013183208324E832E037838D
:1014100026830895FB0120813181FC0131832083E3
:10142000FB014281538126503109F901208131812C
:10143000820F931FFC0151834083089526E932E017
:10144000FC013183208320EA32E0318F208F6AE86B
:1014500072E0E0CFDC01ED91FC9136972081318183
:10146000820F931FEBCF0895DC01ED91FC9136972D
:101470000190F081E02DE80FF91F86E692E091835C
:10148000808380E792E093838283089526E632E0AA
:10149000FC013183208320E732E0338322830895E7
:1014A000FB0120813181FC0131832083FB014281DA
:1014B000538126503109F90120813181820F931F18
:1014C000FC0151834083089522EB32E0FC0131831B
:1014D00020832CEB32E0358B248B66EA72E0E0CF80
:1014E000DC01ED91FC91369720813181820F931FB1
:1014F000EBCF08950895FC016370668B848195811C
:1015000026813781613039F0633029F091878087F7
:1015100033872287089531872087938782870895AC
:101520002F923F924F925F926F927F928F929F92F3
:10153000AF92BF92CF92DF92EF92FF920F931F93E1
:10154000CF93DF93CDB7DEB76A970FB6F894DEBFBF
:101550000FBECDBF9A8F898F7A8369834A01D22EBD
:1015600018870F833701BC2CDC0159962D913C91D3
:101570005A972115310509F015C118968D919C9146
:101580001997681779070CF0D7C11A968D919C911D
:10159000481759070CF0D0C14C2C512CB6E0CB9E0B
:1015A000600D711D11247C876B87161617060CF0D1
:1015B000C3C1EA2DF0E0FA87E98793E0EE0FFF1F41
:1015C0009A95E1F7F88BEF87CF01840F951F1816D6
:1015D00019060CF0B1C1A98DBA8D58968C91811164
:1015E00004C0BFEABD1508F4D394A98DBA8DED915E
:1015F000FC9111970284F385E02DCD011995B5E09A
:10160000DB9EC0011124E981FA81FC83EB83312C3C
:10161000212C9C0120543A4F388F2F8B4A2D50E0BB
:101620005E8B4D8BEF89F88DE20DF31D44919E8208
:101630008D82D12CC12C69817A81620D731D7A8BC8
:10164000698B842F90E09C8B8B8BE98DFA8DA08128
:10165000B18140FF82C0F1E0BF126FC0AF126DC018
:101660001C96ED91FC912F813885A4014C0D5D1DD8
:1016700069897A89898D9A8D1995EB89FC89F59507
:10168000E7954E2F5FEFC51AD50A6D817E818D8952
:101690009E89680F791F7E836D8398E0C916D104F7
:1016A00081F6AFEF2A1A3A0AEB81FC81E40DF51DB1
:1016B000FC83EB83F5E02F16310409F0B3CF2F81C3
:1016C000388526153705B9F0A98DBA8DED91FC91B5
:1016D000B1E0BB1257C0AB1255C069817A816B5F14
:1016E0007F4F0088F189E02D830128E030E0A401DC
:1016F000898D9A8D1995A98DBA8DED91FC911197CF
:101700000688F789E02DCD016A960FB6F894DEBF02
:101710000FBECDBFDF91CF911F910F91FF90EF9042
:10172000DF90CF90BF90AF909F908F907F906F9001
:101730005F904F903F902F9019941E96ED91FC91E1
:10174000EF80F88409851A8592014D815E816B8155
:101750007C81898D9A8D199590CF2F81388526159A
:10176000370509F48ACF31E0B31207C0A31205C0D0
:101770001C96ED91FC91930178CF1E96ED91FC9112
:101780007301E0CF6B857C85641975090684F78544
:10179000E02D73010F8518899201A401898D9A8D1E
:1017A0001995A9CFF90134969491329745915491A6
:1017B000D91AB7E0DB9E400D511D1124F901259186
:1017C00034913C8B2B8BFA0125903490FA013296A0
:1017D000749031963491398B32966490319644905E
:1017E00041E04C1518F04A1508F07FC0662D062C14
:1017F000000C770B7C836B83842D042C000C990BDD
:101800009E838D83A98DBA8DED91FC9111970284F1
:10181000F385E02DCD011995512CD12CC12CEA2D49
:10182000F0E0FA87E9872B2D30E03C872B87A40175
:10183000440D511D47FC5A95588F4F8B69817A8111
:10184000660D711D67FC7A957E876D877989C7164D
:1018500008F051CF2C2D30E04D815E81420F531F97
:10186000A985BA854A9FC0014B9F900D5A9F900D44
:101870001124FC01E80DF91DF88BEF87852D612CF3
:101880004F89588D420F531F5E8B4D8B671408F0A4
:1018900050C044244394480E877041F4C10101961E
:1018A000EB89FC89E20DF31DD4901C01D7FE19C011
:1018B000A98DBA8DED91FC91662D70E0B1E0BB125F
:1018C00019C0AB1217C02D853E85620F731F0484AB
:1018D000F585E02D2F8138854D895E89898D9A8D1A
:1018E0001995DD0C6394842DD1CF1E821D821C823C
:1018F0001B8288CF4B815C81640F751FAB85BC85D3
:101900006A9FC0016B9F900D7A9F900D1124698191
:101910007A81680F791F0684F785E02DEF80F884BF
:1019200009851A859D014F855889898D9A8D19954C
:10193000D8CF570CC3948ACF6A960FB6F894DEBFFF
:101940000FBECDBFDF91CF911F910F91FF90EF9010
:10195000DF90CF90BF90AF909F908F907F906F90CF
:101960005F904F903F902F9008958F929F92AF92EB
:10197000CF92EF92FF920F931F93CF93DF93EC01DF
:10198000262F898D9A8D009709F050C06A30D1F4C6
:101990001D861C868D8948E0849F900111248E85C8
:1019A0009F85820F931F9F878E8781E090E0DF9154
:1019B000CF911F910F91FF90EF90CF90AF909F909C
:1019C0008F9008956D3089F3CC88AD888F898823F6
:1019D000C1F08C859D8536E0C39E800D911D11243C
:1019E000488559854817590764F44E855F851D86DB
:1019F0001C8638E0A39EC0011124840F951F9F8789
:101A00008E87EA88FB88088919894E855F856C85F1
:101A10007D85CE0185DD2C898C859D8546E0249FC2
:101A2000800D911D11249D878C87BFCF6A3069F48A
:101A30001D861C86FC013696E4912D898E859F8536
:101A4000E29F800D911D1124AECF6D3009F4ADCF12
:101A5000FC0134963491631708F4A7CF3196E491D2
:101A6000E61708F4A2CFFC01329685909490462F99
:101A7000431B342F47E0349F800C911C1124F40148
:101A8000329634913196E4913323A1F1EE2391F112
:101A9000CC88F4013596E491AD884F89442301F157
:101AA0000E2E000CFF0BE30FF11DCE9EA001CF9E6A
:101AB000500D11246C857D85460F571F68857985EB
:101AC000641775076CF44E855F851D861C86FC01C6
:101AD0003696E491AE9E400D511D11245F874E87CE
:101AE000EA88FB88088919894E855F856C857D8524
:101AF000CE0116DDF4013496E4912C898C859D8508
:101B0000E29F800D911D11248ECF6F927F928F9254
:101B10009F92AF92BF92CF92DF92EF92FF920F937C
:101B20001F93CF93DF93EC016B015A0139014801F8
:101B3000E881F9810284F385E02D1995E881F98126
:101B40000288F389E02D87019301A501B601CE013A
:101B50001995A501480D591D41505109E881F98198
:101B60000288F389E02D9301B601CE011995E88131
:101B7000F9810088F189E02D9401A501B601CE011B
:101B80001995C60CD71CB60161507109E881F9811D
:101B90000088F189E02D9401A501CE011995E88115
:101BA000F9810688F789E02DCE01DF91CF911F9151
:101BB0000F91FF90EF90DF90CF90BF90AF909F90EC
:101BC0008F907F906F9019946F927F928F929F92D7
:101BD000AF92BF92CF92DF92EF92FF920F931F933B
:101BE000CF93DF935C01EB016A0149013801870162
:101BF000DC01ED91FC916217730719F56416750607
:101C00002CF0962D872D3A01C92ED82E9601261933
:101C100037092F5F3F4F048CF58DE02DA301BE01E6
:101C2000C5011995DF91CF911F910F91FF90EF9012
:101C3000DF90CF90BF90AF909F908F907F906F90EC
:101C400008954615570591F42617370724F0892D76
:101C50004B01C22FD82F9E01281939092F5F3F4F02
:101C6000068CF78DE02DA601B401DACF0284F3854E
:101C7000E02D1995D501ED91FC910488F589E02DB1
:101C800083019401A601BE01C5011995D501ED910D
:101C9000FC910688F789E02DC501DF91CF911F9156
:101CA0000F91FF90EF90DF90CF90BF90AF909F90FB
:101CB0008F907F906F901994EF92FF920F931F93E4
:101CC000DC011A960D911C911B9718962D913C9151
:101CD0001997ED91FC9100A0F1A1E02D7B0150E05E
:101CE00040E070E060E019951F910F91FF90EF9038
:101CF00008954F925F926F927F928F929F92AF92D0
:101D0000BF92CF92DF92EF92FF920F931F93CF93E8
:101D1000DF936C012B015A0139014801DC01ED917F
:101D2000FC910284F385E02D1995E201640C751C89
:101D3000D601ED91FC91C615D7055CF40088F189B8
:101D4000E02D87019401A501BE01C60119952196D8
:101D5000EFCF0688F789E02DC601DF91CF911F9163
:101D60000F91FF90EF90DF90CF90BF90AF909F903A
:101D70008F907F906F905F904F9019948F929F9269
:101D8000AF92BF92CF92DF92EF92FF920F931F9389
:101D9000CF93DF93EC015B014A016901E881F9818E
:101DA0000284F385E02D199595012C0D3D1D2150E0
:101DB0003109E881F9810488F589E02D78018401F1
:101DC000A401B501CE011995E881F9810688F7894A
:101DD000E02DCE01DF91CF911F910F91FF90EF90F9
:101DE000DF90CF90BF90AF909F908F9019948F927B
:101DF0009F92AF92BF92CF92DF92EF92FF920F939A
:101E00001F93CF93DF93EC015B014A0169017801D5
:101E1000E881F9810284F385E02D1995C80CD91C5D
:101E2000860101501109E881F9810488F589E02DC6
:101E30009501A401B501CE011995E881F9810688C3
:101E4000F789E02DCE01DF91CF911F910F91FF9087
:101E5000EF90DF90CF90BF90AF909F908F901994AC
:101E6000EF92FF920F931F93DC01ED91FC9100A084
:101E7000F1A1E02D19951F910F91FF90EF9008951A
:101E80000F931F93DC01ED91FC91068CF78DE02DF3
:101E900019951F910F9108950F931F93DC01ED91F8
:101EA000FC91048CF58DE02D19951F910F910895EB
:101EB000DC01ED91FC910084F185E02D19943F92B5
:101EC0004F925F926F927F928F929F92AF92BF924A
:101ED000CF92DF92EF92FF920F931F93CF93DF93F6
:101EE0005C017B014A016901390187E0680E711CC0
:101EF00093E0759467949A95E1F72B01400E511E7B
:101F000010E000E0312CD0E0C0E0CE0187709927CE
:101F1000330C892B59F4FE0183E0F595E7958A95FA
:101F2000E1F7E00FF11FE80DF91D349037FE09C00D
:101F300021E030E0A701B5016C0F7D1F82EF94E036
:101F4000B7DF2196CC16DD0601F78FEFE81AF80A05
:101F5000060D171DE414F504B1F6DF91CF911F9122
:101F60000F91FF90EF90DF90CF90BF90AF909F9038
:101F70008F907F906F905F904F903F9008952F9239
:101F80003F924F925F926F927F928F929F92AF9209
:101F9000BF92CF92DF92EF92FF920F931F93CF9356
:101FA000DF9300D000D0CDB7DEB73C016A013E839D
:101FB0002D83FC82EB825801A41AB50AB7FE03C038
:101FC000B194A194B1088D809E80861A970A97FEDD
:101FD00003C09194819491088A149B045CF0902F23
:101FE000812F0D811E819D838E839C2D8D2D6B01F4
:101FF000692F782F0C151D055CF09D818E817E83E5
:102000006D83692F782F902F812F8601C92ED82EAE
:102010001601201A310A2B012D813E81421A530AE2
:1020200057FE03C0519441945108710137FE03C01B
:102030003FEFE31AF30AF594E7948D819E818617AA
:1020400097075CF5A1E0B0E0BA83A983C016D1067A
:102050004CF1D301ED91FC910484F585E02D2B81A9
:102060003C81A8016D817E818A149B041CF04D8106
:102070005E81B801C3011995E418F508F7FE0AC09E
:102080002D813E8189819A81280F391F3E832D83BE
:10209000E20CF31C0F5F1F4FD9CF2FEF3FEF3A83B6
:1020A0002983D4CF26960FB6F894DEBF0FBECDBFDE
:1020B000DF91CF911F910F91FF90EF90DF90CF9024
:1020C000BF90AF909F908F907F906F905F904F9058
:1020D0003F902F90089585ED8093BC008091BC00C7
:1020E00084FDFCCF1092030408952091DD03260F98
:1020F0003327331F21323105ECF420910304FC0116
:1021000090E080E0243069F082E00895A091DD0342
:102110002191AC0145545C4FA40FB52FB11D2C93F8
:102120000196861798F38091DD03680F6093DD03B5
:1021300080E0089581E0089508950895E091BA033C
:102140008091B903E81730F4F0E0E756FC4F808146
:1021500090E008958FEF9FEF08959091BA038091DA
:10216000B9032FEF3FEF981748F4E92FF0E0E75657
:10217000FC4F208130E09F5F9093BA03C90108951E
:102180008091B9039091BA03891B990B0895CF925E
:10219000DF92EF92FF920F931F93CF93DF937C0117
:1021A000CB018A0120913604222389F0EB016B01D7
:1021B000C40ED51ECC15DD0561F06991D701ED91F6
:1021C000FC910190F081E02DC7011995F3CF642FA8
:1021D0008CDFC801DF91CF911F910F91FF90EF909D
:1021E000DF90CF900895CF93DF931F92CDB7DEB7E6
:1021F0006983209136042223F9F0209133042032A0
:1022000058F021E030E0FC013383228390E080E04D
:102210000F90DF91CF91089580913404E82FF0E082
:10222000E758FC4F998190838F5F809334048093AB
:10223000330481E090E0ECCF61E0CE01019655DF00
:10224000F8CF2091330481E0213208F044C080911E
:1022500003048111FCCF8091350492E09093030434
:1022600091E0909305049FEF90930204109227044D
:1022700020932604A9E7B3E0E6E0F4E090E0291318
:1022800031C01092280490912804880F892B8093E4
:10229000280480910404813049F51092040480914F
:1022A00028048093BB008091BC0083FDF8CF85ECAF
:1022B0008093BC00809103048230E1F3809102049A
:1022C0008F3FB1F0809102048032A1F0809102042E
:1022D000803391F084E01092340410923304109211
:1022E000360408953D9131939F5FC9CF85EEE0CFCD
:1022F00080E0F1CF82E0EFCF83E0EDCFEF92FF926D
:102300000F931F93CF93DF93EC01EC80FD806E154C
:102310007F050CF070C057FF04C0240F351F50E03C
:1023200040E08E819F81FA01E20FF31F8E179F0715
:102330001CF49C01241B350B121613060CF05BC019
:10234000922F842F8695869586958E9DD0018F9DA0
:10235000B00D11246A0F7B1FAF8DB8A1A60FB71F58
:10236000477049F188E0841B482F682F70E0FB011B
:10237000E854FA4FE491281708F063C0621B710912
:102380002FEF30E002C0359527956A95E2F7E223FA
:102390000130110539F0B0F10230110561F58C9171
:1023A000E82702C08C91E82BEC93941720F12C8144
:1023B0003D81A20FB31FE92FE41BE83078F0023013
:1023C000110521F58E2F9C9190959C932C813D8138
:1023D000A20FB31F88508830B0F7E770EE2359F092
:1023E000F0E0E055FA4FE49101301105F9F010F1F9
:1023F0000230110519F1DF91CF911F910F91FF90DC
:10240000EF900895E0958C91E823CECF81E00115FF
:10241000110509F480E081959E2F8C932C813D81DC
:10242000A20FB31F98509830C0F7D7CF8C91E82BEC
:10243000EC93E1CFE0958C91E823FACF8C91E827DB
:10244000F7CF0130110509F4ADCFE0F202301105EC
:1024500009F4A5CFAE0DBF1DAECF0F931F93CF9341
:10246000DF9377FF04C0260F371F70E060E0DC01C8
:102470001496CD91DC91FB01E20FF31FCE17DF071D
:102480001CF49E01261B370B121613064CF5FA019D
:1024900057FD3796A3E0F595E795AA95E1F7EC9FF0
:1024A000D001ED9FB00DFC9FB00D11246A0F7B1F72
:1024B000DC015F96ED91FC91E60FF71F4770552701
:1024C00081E090E001C0880F4A95EAF7482F01307B
:1024D000110559F0A8F02E0F3F1F02301105E1F051
:1024E000DF91CF911F910F9108952E0F3F1FE2179B
:1024F000F307B1F38191DF011197842B8C93F7CF10
:1025000080952E0F3F1FE217F30751F39191DF01E2
:10251000119798239C93F7CFE217F30709F3819162
:10252000DF01119784278C93F7CF0F931F93FA0144
:10253000DC0156964C9156974230E1F0433091F1D0
:10254000413059F514964D915C91DA01AE1BBF0BE9
:10255000FD01E21BF30B77FD0AC0DC0116964D91DD
:102560005C91641775071CF4AB01BF0176DF1F9106
:102570000F91089514964D915C91DA01A61BB70B4B
:10258000BD0161507109DC0116964D915C91DA0133
:10259000AE1BBF0BFD01E21BF30B77FDE8CFAF01D4
:1025A000ADDEE5CF16964D915C91DA01A61BB70B17
:1025B000BD0161507109CFCF0F931F93FA01DC0168
:1025C00056964C9156974230A1F0433081F14130FC
:1025D00011F514964D915C91DA01AE1BBF0BFD0114
:1025E0003197F7FD03C0AB01BF0188DE1F910F914A
:1025F000089514964D915C91DA01A61BB70BBD01AD
:10260000DC0116964D915C91DA01AE1BBF0BFD010A
:102610003197621B730BF7FDE9CFDC0116964D91E4
:102620005C91E417F50714F7AF0117DFDFCF1696BB
:102630004D915C91DA01A61BB70BBD01621B730BB8
:10264000D0CFFC0177FD64C080859185681779073C
:102650000CF05EC057FD5CC0828593854817590712
:102660000CF056C086898230B1F0833029F1813078
:1026700041F484819581841B950BAB01BC016150B1
:1026800071092130310509F108F443C022303105C8
:1026900009F463C0089584819581DC01A61BB70B02
:1026A000BD016150710986819781DC01A41BB50BC6
:1026B000AD0141505109E5CF86819781861B970B6B
:1026C000BA01AC0141505109DCCFCA0157FD079650
:1026D000A3E095958795AA95E1F7A481B5818A9F96
:1026E00090018B9F300D9A9F300D1124620F731F44
:1026F000078CF0A1E02DE60FF71F4770552721E06A
:1027000030E001C0220F4A95EAF78081822B808356
:102710000895CA0157FD079633E0959587953A9538
:10272000E1F7A481B5818A9F90018B9F300D9A9F1C
:10273000300D1124620F731F078CF0A1E02DE60FFE
:10274000F71F4770552781E090E001C0880F4A9538
:10275000EAF7809590818923DACFCA0157FD079661
:1027600023E0959587952A95E1F7A481B5818A9F05
:1027700090018B9F300D9A9F300D1124620F731FB3
:10278000078CF0A1E02DE60FF71F4770552721E0D9
:1027900030E001C0220F4A95EAF780818227B7CF47
:1027A00008958EBD00000DB407FEFDCF8EB50895CF
:1027B000FF920F931F93CF93DF93F82ED92FC62F3D
:1027C00080910F0590911005009709F450C0209159
:1027D000130531E03093360420933504109234040D
:1027E00010923304DC01ED91FC910190F081E02D19
:1027F00060E019950F2D1D2FD1E0FF24F394C150F7
:1028000080910F0590911005CF3F59F1D032C0F063
:1028100018DD80910F059091100520911305F0921D
:102820003604209335041092340410923304DC01F2
:10283000ED91FC910190F081E02D60E01995D1E0DF
:1028400080910F0590911005F8016491DC01ED91E4
:10285000FC910190F081E02D1995DF5F0F5F1F4F14
:10286000CECFDF91CF911F910F91FF90EACCE091F5
:102870001F05F09120059081809125058095892381
:1028800080830F2D1D2FC15008F437C0F8018491AB
:1028900020910D0530910E05232B21F082DF0F5F73
:1028A0001F4FF1CF28E030E040E8E0911B05F091A8
:1028B0001C0590912305582F5423D9F05081952B56
:1028C0009083E0911D05F0911E05908150912405A3
:1028D000952B9083E0911D05F0911E0550819091FC
:1028E0002405909595239083469521503109E9F66A
:1028F000D6CF508190959523E3CFDF91CF911F9153
:102900000F91FF9008951F93CF93DF93EC018D8D6E
:102910009E8D009719F1162F29A131E030933604CE
:10292000209335041092340410923304DC01ED91AD
:10293000FC910190F081E02D60E019958D8D9E8DC8
:10294000DC01ED91FC910190F081E02D612F199552
:102950008D8D9E8DDF91CF911F9173CCADA5BEA5BE
:102960009C918BA9809589238C938B8D9C8D892B31
:1029700029F0862FDF91CF911F9113CF28E030E00F
:1029800080E8A9A5BAA599A9462F4823C1F04C9182
:10299000942B9C93ABA5BCA59C914AA9942B9C938A
:1029A000ABA5BCA54C919AA9909594239C93869530
:1029B0002150310931F7DF91CF911F9108954C914A
:1029C00090959423E6CF8CBD9DBD08951F93CF9322
:1029D000DF93EC01162F8D8D9E8D892BA9F12DA9EA
:1029E0003EA94FA958AD60E074E284EF90E00E94E8
:1029F000542620513109410951095695479537957B
:102A000027952093B80066EA111167EACE017BDFB3
:102A10008D8D9E8D892B39F129AD3AAD4BAD5CADD5
:102A200060E074E284EF90E00E9454262051310966
:102A30004109510956954795379527952093B80038
:102A4000DF91CF911F9108958B8D9C8D892B19F06B
:102A50008EAD9FADB8DFEFA5F8A990818CA98095C8
:102A600089238083D0CFEFA5F8A980819CA9892BE9
:102A70008083E6CF0895CF93DF93EC010E94640A30
:102A8000CE01DF91CF910C948223DC01ED91FC917A
:102A9000369720813181820F931FEDCFCF93DF9343
:102AA000EC0188819981009711F00E94822319829C
:102AB00018821D821C821B821A82DF91CF91089599
:102AC000FC0180819181009711F00C94822308957C
:102AD000CF93DF93EC010E941E0ACE01DF91CF91CC
:102AE0000C948223DC01ED91FC9136972081318199
:102AF000820F931FEDCF0C9482230C948223DC0170
:102B0000ED91FC91369720813181820F931FF5CF93
:102B10000C9482230C948223DC01ED91FC91369776
:102B200020813181820F931FF5CF0C948223FB010A
:102B300001900020E9F73197AF01461B570BDC01EC
:102B4000ED91FC910280F381E02D19948F929F9278
:102B5000AF92BF920F931F93CF93DF93CDB7DEB7A2
:102B6000A1970FB6F894DEBF0FBECDBF19A24230B9
:102B700008F44AE08E010F5D1F4F842E912CB12C7A
:102B8000A12CA50194010E945426E62FB901CA0187
:102B9000EA30FCF4E05DD801EE938D01232B242B69
:102BA000252B79F790E080E0109721F0BD0182EFAE
:102BB00094E0BDDFA1960FB6F894DEBF0FBECDBF87
:102BC000DF91CF911F910F91BF90AF909F908F9009
:102BD0000895E95CE0CF0F931F93CF93DF93EC014F
:102BE000FB014481558160817181E881F981028016
:102BF000F381E02D19958C0160E173E0CE0197DF40
:102C0000800F911FDF91CF911F910F910895209117
:102C1000F8043091F904C901079697FD079623E05F
:102C2000959587952A95E1F72091F6043091F70460
:102C3000829FA001839F500D929F500D112470E040
:102C400060E080911105909112050C940B240F9374
:102C50001F93CF93DF938091110590911205892BDB
:102C600009F1D5DF2091F8043091F9048091F60440
:102C70009091F704213231050CF049C0B90160523E
:102C8000710977FF02C06F5F7F4F75956795835716
:102C9000910997FD019600E210E023E730E046EF4E
:102CA00050E048C02091F8043091F904C90107961A
:102CB00097FD0796B3E095958795BA95E1F7209132
:102CC000F6043091F704AC01429FC001439F900D80
:102CD000529F900D11240E94E6229093120580933A
:102CE0001105892B09F0BDCFC6E9D5E0FE0164913D
:102CF000662339F08BE394E00E9413072196892B19
:102D0000A9F760E173E08BE394E011DFFFCFB90135
:102D10006054710977FF02C06F5F7F4F75956795AB
:102D20008255910997FD019600E410E022E530E01C
:102D300046ED52E095958795C2D882E080931405C0
:102D400080910F0590911005892B09F4F6C08CE352
:102D5000809313051092BA031092B90310923404B1
:102D6000109233041092030481E0809305041092C2
:102D7000040461E084E10E94AE0761E085E10E9405
:102D8000AE078091B9008E7F8093B9008091B90021
:102D90008D7F8093B90088E48093B80085E48093A8
:102DA000BC008CE990E19093DC038093DB038DE918
:102DB00090E19093E0038093DF0380911A0587FDF3
:102DC0001DC00E94570661E080911A050E94AE075F
:102DD00061E070E080E090E00E945F0860E0809138
:102DE0001A050E94AE076AE070E080E090E00E9461
:102DF0005F0861E080911A050E94AE0780910F057F
:102E000090911005892B09F44FC12091270530912D
:102E100028054091290550912A0560E074E284EF6D
:102E200090E00E94542620513109410951095695DC
:102E30004795379527952093B80064E082EF90E09E
:102E4000B7DC6091F804615082EF94E05CDD64E0EF
:102E50008EEE90E0ADDC8091140564E1813009F4E0
:102E600060E182EF94E04FDD64E08AEE90E0A0DC68
:102E70008FE880932F058091F6049091F7048038B5
:102E8000910509F029C18091F8049091F9048034EA
:102E9000910509F031C180911405813009F41AC1FE
:102EA0008FEC80932F05C2E16AED82EF94E02BDD79
:102EB0006C2F82EF94E027DD61E882EF94E023DD60
:102EC00060912F0582EF94E01EDD69ED82EF94E0C2
:102ED0001ADD8091140561EF813009F462E282EF1E
:102EE00094E011DD66E084EE90E062DC80910F05F5
:102EF00090911005892B09F403C120912B05309185
:102F00002C0540912D0550912E0560E074E284EF70
:102F100090E00E94542620513109410951095695EB
:102F20004795379527952093B80081E08093320428
:102F3000DF91CF911F910F910895809118050E9404
:102F40005706809119050E94570680911805082E92
:102F5000000C990BFC01E15CF44FE491F0E0EE0F02
:102F6000FF1FE55FF44F25913491309320052093A6
:102F70001F05FC01EB57F44FE491E0932505809188
:102F80001905082E000C990BFC01E15CF44FE4914B
:102F9000F0E0EE0FFF1FE55FF44FA591B491B09301
:102FA0002205A0932105FC01EB57F44FE491E09337
:102FB00026058C91E82BEC9380910D0590910E05E0
:102FC000892B89F1CFB7F89480917803811124C0BF
:102FD000E4E7FBE08491EAEBFBE09491E82FF0E07A
:102FE000EE0FFF1FEB5DF44FA591B491EC91E92337
:102FF00021F461E085E30E94AE0785E30E94570655
:103000008CB580618CBD8CB580648CBD84E30E94DE
:10301000570683E30E945706809178038F5F809361
:103020007803CFBFCACE809116050E9457068091C3
:1030300017050E94570680911605082E000C990B63
:10304000FC01E15CF44FE491F0E0EE0FFF1FE55F5F
:10305000F44F2591349130931C0520931B05FC01FE
:10306000EB57F44FE491E093230580911705082E68
:10307000000C990BFC01E15CF44FE491F0E0EE0FE1
:10308000FF1FE55FF44FA591B491B0931E05A09387
:103090001D05FC01EB57F44FE491E09324058C915E
:1030A000E095E823EC9389CE80910D0590910E0573
:1030B000892B29F0809130059091310584DCE091D5
:1030C0002105F09122059081809126058095892324
:1030D0008083B3CE8FE9E5CE8036910569F4809187
:1030E000F8049091F904409739F4809114058130E7
:1030F00029F08FEA80932F05C2E0D6CE80E1FACF87
:10310000E0912105F0912205808190912605892B7F
:1031100080830BCF0E946E270F931F93CF93DF9373
:10312000EC0188819981009759F02A813B8126170B
:10313000370730F081E0DF91CF911F910F91089513
:103140008B016F5F7F4F0E949226009759F0998301
:1031500088831B830A832C813D81232B59F7FC0133
:103160001082E8CF80E0E7CFEF92FF920F931F939A
:10317000CF93DF936115710541F480E0DF91CF912A
:103180001F910F91FF90EF90089541155105A9F0FF
:103190007B01EC010C811D81040F151FB801BCDF00
:1031A000882359F3288139818C819D81B701820F51
:1031B000931F0E947B271D830C8381E0DFCFCF9379
:1031C000DF93EC01FB0101900020E9F73197AF019B
:1031D000461B570BC9DF811102C0CE015FDCCE0157
:1031E000DF91CF910895CF93DF93EC01FB014481F0
:1031F000558160817181B8DF811102C0CE014EDC42
:10320000CE01DF91CF910895EF92FF920F931F931C
:10321000CF93DF93EC017B018A01BA017DDF81113D
:103220000AC0CE013BDCCE01DF91CF911F910F91FF
:10323000FF90EF9008951D830C83B70188819981D9
:103240000E947B27F0CFEF92FF920F931F93CF93B3
:10325000DF93CDB7DEB762970FB6F894DEBF0FBE2F
:10326000CDBF8C01CB01F801118210821382128232
:10327000158214824AE09E012F5F3F4F7901B90108
:103280000E945F22F70101900020E9F73197AF011A
:103290004E195F09B701C801B7DF62960FB6F894FF
:1032A000DEBF0FBECDBFDF91CF911F910F91FF9079
:1032B000EF9008951F920F920FB60F9211240BB644
:1032C0000F922F933F934F935F936F937F938F93BF
:1032D0009F93AF93BF93EF93FF938BE394E00E9490
:1032E000F106FF91EF91BF91AF919F918F917F91E7
:1032F0006F915F914F913F912F910F900BBE0F9067
:103300000FBE0F901F9018951F920F920FB60F923D
:1033100011240BB60F922F938F939F93EF93FF93EC
:10332000E0914B04F0914C048081E0915104F091C4
:10333000520482FD1DC09081809154048F5F8F7371
:1033400020915504821741F0E0915404F0E0E55CCF
:10335000FB4F958F80935404FF91EF919F918F9134
:103360002F910F900BBE0F900FBE0F901F901895CE
:103370008081F2CF1F920F920FB60F9211242F93DC
:103380003F938F939F93AF93BF9380912A04909123
:103390002B04A0912C04B0912D043091290423E03A
:1033A000230F2D3758F50196A11DB11D2093290437
:1033B00080932A0490932B04A0932C04B0932D04A3
:1033C00080912E0490912F04A0913004B09131048B
:1033D0000196A11DB11D80932E0490932F04A093FC
:1033E0003004B0933104BF91AF919F918F913F9181
:1033F0002F910F900FBE0F901F90189526E8230F66
:103400000296A11DB11DD2CF1F920F920FB60F923F
:1034100011240BB60F922F933F934F935F936F93AB
:103420007F938F939F93AF93BF93EF93FF9380917D
:10343000B900887F803609F44DC008F040C088325A
:1034400009F4A9C028F5803109F49DC0C8F4882387
:1034500009F4FBC0883009F496C0FF91EF91BF9149
:10346000AF919F918F917F916F915F914F913F911C
:103470002F910F900BBE0F900FBE0F901F901895BD
:10348000883109F488C0803241F78093020414C067
:10349000803409F49DC040F48033B9F38833E9F6F1
:1034A0008093020485ECB0C0803509F485C088356E
:1034B00009F496C0883489F60E946B10CECF883903
:1034C00009F48CC038F5883729F050F4883611F0AB
:1034D000803719F683E0809303041092010457C0EB
:1034E000883809F47BC0803919F0803809F0B5CFED
:1034F00080910104803208F071C0E091010481E004
:103500008E0F809301048091BB00F0E0EF51FC4FDF
:1035100080833DC0803B39F0E0F4803A09F479C003
:10352000883A09F09ACF84E0809303041092DE0376
:103530001092DD03E091DB03F091DC03199580919B
:10354000DD0381110FC081E08093DD031092BB0386
:1035500009C0803C09F4A6CF883C09F4A3CF883B7E
:1035600009F07BCFE091DE0381E08E0F8093DE03D4
:10357000F0E0E554FC4F80818093BB009091DE0326
:103580008091DD0329C0809128048093BB0085ECE5
:103590008093BC0062CF90912704809126049817F5
:1035A00058F5E091270481E08E0F80932704F0E026
:1035B000EA5FFB4F8081E9CFE091270481E08E0F25
:1035C000809327048091BB00F0E0EA5FFB4F80838B
:1035D00090912704809126049817C8F285E8D8CFE7
:1035E000E091270481E08E0F809327048091BB0037
:1035F000F0E0EA5FFB4F80838091050481115CCF8E
:1036000081E08093040484EA8093BC001092030458
:1036100024CF85EC8093BC001092030480910104B8
:10362000803230F4E0910104F0E0EF51FC4F108261
:103630006091010470E0E091DF03F091E00381EE1E
:1036400093E019951092010408CF1092020434CF30
:10365000CF93DF93EB0188819981AAE6B5E01196BB
:103660009C938E932A813B810697EC01E881F98136
:10367000E659FA4F3183208312961D921D921D92B6
:103680001C92159781E290E09483838380E795E014
:10369000948B838B1582158ADF91CF910895CF93F8
:1036A000DF93CAE6D5E081E290E09C8F8B8F1D8E80
:1036B0001E8E1F8E86E090E0A0E0B0E088A399A364
:1036C000AAA3BBA31CA21DA21EA21FA28CE392E070
:1036D000998F888F80E288A71AA619A680E795E0BF
:1036E0009CA78BA71DA6AC016AE872E0CE01B0DFF3
:1036F00086E992E09983888380EA92E0998F888FA7
:103700001A8619861C861B861E861D86188A1F86A9
:103710001A8A198A1C8A1B8A84E492E09F838E830A
:103720008BE394E09F8B8E8B88E08D8BDF91CF9124
:103730000895DB018D919C911197909341058093A1
:10374000400512962D913C910697DC01ED91FC917C
:10375000E05CFA4F3183208381E290E0948383839D
:1037600082E495E0948B838B1582158A0895CF931C
:10377000DF93C0E4D5E081E290E0988F8F8B198EC3
:103780001A8E1B8E86E090E0A0E0B0E08C8F9D8FBB
:10379000AE8FBF8F18A219A21AA21BA28CE392E0CF
:1037A0009D8B8C8B80E28CA31EA21DA282E495E0EF
:1037B00098A78FA319A6AC0166EA72E0CE01B9DF23
:1037C00082EB92E0998388838CEB92E09D8B8C8BCB
:1037D0001E821D8218861F821A8619861C861B86E9
:1037E0001E861D86188A1F8684E492E09B838A8346
:1037F0008BE394E09B8B8A8B80E1898BDF91CF9167
:103800000895CF92DF92EF92FF9210923E041092B1
:103810003D0488EEC82E83E0D82EE12CF12CC09216
:103820003F04D0924004E0924104F092420484ECC0
:1038300092E090933C0480933B0485EC90E090935D
:1038400048048093470484EC90E090934A0480936A
:10385000490480EC90E090934C0480934B0481ECFD
:1038600090E090934E0480934D0482EC90E090930E
:10387000500480934F0486EC90E090935204809320
:103880005104109254041092550410925604109250
:1038900057046BE374E080E495E069DF6BE374E068
:1038A0008AE695E0FCDE10923A04109239048BE32C
:1038B00094E090933804809337046FE376E08AE1D4
:1038C00096E020D690933A04809339041092E9044C
:1038D0001092E804C092EA04D092EB04E092EC0467
:1038E000F092ED0486ED92E09093E7048093E60475
:1038F0001092F5041092F40420E830E03093F704BD
:103900002093F60480E490E09093F9048093F80407
:103910003093FB042093FA049093FD048093FC04FD
:10392000109208051092FF041092FE0410920105F7
:103930001092000581E080930705809306052FEF24
:103940003FEF309305052093040530930305209342
:1039500002058093090510920A0510920C05109239
:103960000B0588EE92E09093F3048093F20410929A
:103970000E0510920D0586EE94E09093100580934D
:103980000F0510921205109211058FEF8093160506
:1039900080931705809318058093190580931A0565
:1039A00080E89AE1A6E0B0E080932705909328058F
:1039B000A0932905B0932A0580EA96E8A1E0B0E03B
:1039C00080932B0590932C05A0932D05B0932E0585
:1039D00080E5809330051092310580E090E8A9E2FF
:1039E000B4E48093DA049093DB04A093DC04B093F6
:1039F000DD0480E090E0A0E7B3E48093DE049093E0
:103A0000DF04A093E004B093E10486E390E0909398
:103A1000D9048093D80488E090E090933505809392
:103A20003405109237051092360580E790E0CED528
:103A300090933305809332058DE090E090933C05A0
:103A400080933B0585E090E090933E0580933D0593
:103A50008AE190E0BBD58093390590933A05FC014B
:103A6000AEE2B2E00A96309729F02D913C91119781
:103A700031832083329612968E179F07A1F7FF900D
:103A8000EF90DF90CF900895CF93DF93CDB7DEB75F
:103A9000A8970FB6F894DEBF0FBECDBF789484B55B
:103AA000826084BD84B5816084BD85B5826085BD3A
:103AB00085B5816085BD80916E00816080936E00C8
:103AC00010928100809181008260809381008091BA
:103AD000810081608093810080918000816080936B
:103AE00080008091B10084608093B1008091B0002B
:103AF00081608093B00080919100826080939100FA
:103B0000809191008160809391008091900081600C
:103B1000809390008091A10082608093A1008091A9
:103B2000A10081608093A1008091A00081608093BA
:103B3000A000809121018260809321018091210168
:103B40008160809321018091200181608093200118
:103B500080917A00846080937A0080917A008260FC
:103B600080937A0080917A00816080937A008091BE
:103B70007A00806880937A001092C100E0914B0433
:103B8000F0914C0482E08083E0914704F091480476
:103B90001082E0914904F0914A0480E18083109200
:103BA0005304E0914F04F091500486E08083E0914B
:103BB0004D04F0914E04808180618083E0914D043A
:103BC000F0914E04808188608083E0914D04F091F3
:103BD0004E04808180688083E0914D04F0914E0412
:103BE00080818F7D808363E173E08BE394E00E94AA
:103BF000971560E173E08BE394E00E949715D12C58
:103C0000C12C812C80E8982E89E2A82E84E4B82E5D
:103C1000412C512C90E7692E93E4792E80913D053B
:103C200090913E05C816D90608F094C0E091390578
:103C3000F0913A05C601880F991FE80FF91F00811E
:103C400011818EE090E0C2D41C01DC0112968D92AD
:103C50009D92AD92BC921597FC0146825782608678
:103C6000718611830083E0903605F0903705870157
:103C70000F5F1F4FE016F10608F067C02091340572
:103C80003091350520173107B0F5C701099628177F
:103C9000390788F5F0913205FCA32091330528A758
:103CA0009093350580933405EEE0DC01EA9FC00176
:103CB000EB9F900D11248AD48093320590933305A5
:103CC0004CA158A59C0190E080E0E816F90681F02F
:103CD0002115310539F06EE0FA01D90101900D92FC
:103CE0006A95E1F70196425F5F4F225F3F4FEDCF4C
:103CF0008CA198A507D58091360590913705FEE0F7
:103D0000F89F9001F99F300D1124E0913205F09158
:103D10003305E20FF31F8017910778F4309751F0C5
:103D20003182208282829382A482B5824682578227
:103D30006086718601963E96EECF1093370500930C
:103D400036052FEFC21AD20A69CF109237051092AA
:103D50003605F7CF0E942716CE0101966C01882404
:103D60008394912C80913204811102C00E94271605
:103D700080913605909137051B8A1A8A1D8A1C8A04
:103D80001F8A1E8A4AE0B601A4D3F60101900020E2
:103D9000E9F73197AF014C195D09B601CE014296A2
:103DA00033DA1A8219821C821B821E821D8242E231
:103DB00050E06FE173E0C60127DABE016E5E7F4F0F
:103DC000C60111DABC018BE394E00E94EB15C60139
:103DD0000E946015CE0142960E946015B12CA12C64
:103DE00010E000E08091360590913705081719071B
:103DF00008F059C0B801C60126DA1B8A1A8A1D8A42
:103E00001C8A1F8A1E8A44E150E062E473E0CE01FE
:103E10004296FAD9B601CE014296E5D96DE173E03A
:103E2000CED9BC018BE394E00E94EB15CE01429603
:103E30000E946015C6010E946015E0903205F09066
:103E40003305EA0CFB1CD7018C91863308F08653AE
:103E500020917B00982F9870277F922B90937B0066
:103E60008770806480937C0080917A008064809366
:103E70007A0080917A0086FDFCCF80917800609175
:103E80007900762F682F072E000C880B990BE0D451
:103E9000F70162877387848795870F5F1F4FFEE066
:103EA000AF0EB11C9FCF1A8219821C821B821E8208
:103EB0001D824AE050E067E573E0C601A5D922E023
:103EC000209306052093070590920505809204052E
:103ED00090920305809202051092FF041092FE0456
:103EE0001092010510920005B60182EF94E00E9445
:103EF000EB15C6010E94601581E080930605809352
:103F00000705909205058092040590920305809222
:103F10000205312C212CB12CA12C809136059091D9
:103F20003705A816B90608F081C1C10162E370E047
:103F3000A8D68C010C5E1F4FB801C60184D9C501FB
:103F400065E070E09ED632E3369F7001379FF00C3B
:103F50001124B701CE01429676D9B501CE014E9615
:103F600072D9198E188E1B8E1A8E1D8E1C8E6E8D18
:103F70007F8D6115710529F04AA15BA1CE0148969C
:103F800043D962E673E0CE01489619D9BE016E5E50
:103F90007F4F29D966E673E012D9B60124D969E6C4
:103FA00073E00DD9BC018BE394E00E94EB15CE01C8
:103FB00048960E946015CE014E960E946015CE0173
:103FC00042960E946015C6010E946015F092FF049F
:103FD000E092FE04109301050093000580913605E0
:103FE00090913705A816B90608F078D74EE04A9D9B
:103FF00080014B9D100D1124E0913205F0913305A5
:10400000E00FF11F4284538464847584A3019201FC
:10401000C301B20132D66BE673E081111EC0D30139
:10402000C201BF778CA39DA3AEA3BFA32FEF3FEF29
:104030004FE75FE7BC01CD0120D6811181C02FEF92
:104040003FEF4FE75FE76CA17DA18EA19FA1FAD35F
:1040500018160CF075C06FE673E082EF94E00E94D2
:10406000971560E173E082EF94E00E9497158091CC
:10407000360590913705A816B90608F0B6CF80919D
:10408000320590913305080F191FD80112964D90F3
:104090005D906D907C9015971A962D913D914D9164
:1040A0005C911D97C301B201E6D46CA37DA38EA3DE
:1040B0009FA3F8012681378140855185C301B20154
:1040C000DAD49B01AC016CA17DA18EA19FA138D552
:1040D00020E030E040E452E41AD42B013C0120E01F
:1040E00030E040E85FE3C5D5181634F0412C512C80
:1040F000B0E86B2EBFE37B2EC301B20189D540919E
:10410000FC045091FD04461B570BF6E0FA9D90010C
:10411000FB9D300D1124F901E65AFF4FEE24E39484
:10412000F12C8B0125E030E0BF0182EF94E00E948A
:10413000790E2FEFA21AB20A3AE0230E311CEDCE0F
:104140002FEF3FEF4FE75FE4C301B20192D518169E
:104150001CF463E773E081CF2FEF3FEF4FE75FEC95
:10416000C301B2016FD387FDF4CF20E030E0A90195
:10417000C301B20167D387FF09C06DE282EF94E00B
:104180000E94770677FA709477F870942AE037EDFA
:1041900043EA5BE3C301B2016FD46CA37DA38EA39A
:1041A0009FA33BD52B013C0151D39B01AC016CA1DA
:1041B0007DA18EA19FA15FD46CA37DA38EA39FA39D
:1041C0004AE0C301B2010E94A6156EE282EF94E0BC
:1041D0000E94770620E030E040E251E46CA17DA12E
:1041E0008EA19FA194D36CA37DA38EA39FA315D56D
:1041F0002B01712C612C4AE0C301B2010E94A6156B
:10420000C301B20123D39B01AC016CA17DA18EA19E
:104210009FA131D420E030E040E251E478D3FDD4D6
:1042200090E080E04AE00E94A6151BCF80910F0528
:1042300090911005892B09F494C0209127053091A5
:1042400028054091290550912A0560E074E284EF29
:1042500090E02AD5205131094109510956954795D9
:10426000379527952093B80065E086E09BE00E9493
:10427000D8136091F604615082EF94E00E94831499
:104280002091F8043091F904C901079697FD07962B
:1042900023E0959587952A95E1F72091F6043091D2
:1042A000F704829F7001839FF00C929FF00C112401
:1042B000009111051091120580910F059091100544
:1042C000E00EF11E009709F48EC02091130531E035
:1042D0003093360420933504109234041092330442
:1042E000DC01ED91FC910190F081E02D60E41995E5
:1042F000BB24B394AA24A39480910F059091100538
:10430000E016F10609F444C0BFE1BB15D0F40E94E9
:10431000211180910F059091100520911305A09215
:104320003604209335041092340410923304DC01D7
:10433000ED91FC910190F081E02D60E41995BB2492
:10434000B39480910F0590911005F80161918F0150
:10435000DC01ED91FC910190F081E02D1995B39471
:10436000CBCF80910D0590910E05892B31F0809176
:104370003005909131050E94E314E0912105F09100
:1043800022059081809126058095892380836CCFBA
:104390000E94211180910F0590911005892B09F43D
:1043A00065C020912B0530912C0540912D05509131
:1043B0002E0560E074E284EF90E076D4205131095C
:1043C0004109510956954795379527952093B8008F
:1043D0006AEF70E080E090E00E945F080E9407169C
:1043E0000E947E07BFCCE0911F05F09120058081DF
:1043F00090912505892B8083E016F10659F2F8018A
:1044000081918F0120910D0530910E05232B19F01C
:104410000E94D113F1CF28E030E040E8E0911B0585
:10442000F0911C0590912305582F5423D9F0508109
:10443000952B9083E0911D05F0911E059081509180
:104440002405952B9083E0911D05F0911E05508168
:10445000909124059095952390834695215031099C
:10446000E9F6CACF508190959523E3CFE0912105DD
:10447000F0912205808190912605892B8083A8CF19
:104480008091390590913A053DD180913205909106
:10449000330538D188EE92E09093F3048093F204D0
:1044A0008091110590911205009709F02BD18AE6B1
:1044B00095E00E941E0A80E495E00C94640ABB27F4
:1044C0004A3031F4992322F4BDE2909581959F4FB3
:1044D00001C0BB27FB015527AA27880F991FAA1FD8
:1044E000A41710F0A41B83955051B9F7A05DAA330F
:1044F00008F0A95DA193009779F7B111B1931192DA
:10450000CB0190C10F931F93CF93DF93009759F482
:104510006115710541F4F0E0E0E0CF01DF91CF914A
:104520001F910F9108958B01EC016EE070E081E026
:1045300090E032D0FC01892B71F380E88383011570
:10454000110571F01387028781E8838380919805B4
:1045500090919905892B21F4F0939905E0939805A2
:104560002097D9F2D187C08783818260838380912D
:104570009A0590919B05892B81F6F0939B05E0931A
:104580009A0580919C0590919D05892B31F6F093B9
:104590009D05E0939C05C1CF0F931F93CF93DF93AD
:1045A000869F8001879F100D969F100D1124C801D2
:1045B0000DD0EC01009721F0A80170E060E02BD154
:1045C000CE01DF91CF911F910F9108950F931F930B
:1045D000CF93DF938230910510F482E090E0E09178
:1045E000A005F091A10530E020E0B0E0A0E0309718
:1045F00099F42115310509F44AC0281B390B2430E0
:104600003105D8F58A819B816115710589F1FB011E
:1046100093838283FE0111C0408151810281138105
:1046200048175907E0F04817590799F4109761F0B7
:1046300012960C93129713961C933296CF01DF912A
:10464000CF911F910F9108950093A0051093A1059C
:10465000F4CF2115310551F04217530738F0A90165
:10466000DB019A01BD01DF01F801C1CFEF01F9CFF4
:104670009093A1058093A005CDCFFE01E20FF31F1B
:10468000819391932250310939832883D7CF209188
:104690009E0530919F05232B41F420910202309119
:1046A000030230939F0520939E05209100023091D4
:1046B00001022115310541F42DB73EB740910402A6
:1046C00050910502241B350BE0919E05F0919F054A
:1046D000E217F307A0F42E1B3F0B2817390778F0D9
:1046E000AC014E5F5F4F2417350748F04E0F5F1F38
:1046F00050939F0540939E05819391939FCFF0E047
:10470000E0E09CCFCF93DF930097E9F0FC01329774
:1047100013821282A091A005B091A105ED0130E0B5
:1047200020E01097A1F420813181820F931F209106
:104730009E0530919F052817390709F061C0F09355
:104740009F05E0939E05DF91CF910895EA01CE1772
:10475000DF07E8F54A815B819E0141155105B1F7FC
:10476000E901FB83EA8349915991C40FD51FEC17E6
:10477000FD0761F4808191810296840F951FE90104
:1047800099838883828193819B838A83F0E0E0E030
:1047900012968D919C9113970097B9F52D913C91AC
:1047A0001197CD010296820F931F20919E053091A3
:1047B0009F052817390739F6309751F51092A10552
:1047C0001092A005B0939F05A0939E05BCCFD38304
:1047D000C28340815181840F951FC817D90761F4A6
:1047E0004E5F5F4F88819981480F591F51834083E5
:1047F0008A819B81938382832115310509F0B0CF93
:10480000F093A105E093A0059ECFFD01DC01C0CF90
:1048100013821282D7CFDC0101C06D93415050400A
:10482000E0F70895DC01FC01672F71917723E1F730
:10483000329704C07C916D9370836291AE17BF076D
:10484000C8F3089540D008F481E00895E89409C0C1
:1048500097FB3EF490958095709561957F4F8F4FB3
:104860009F4F9923A9F0F92F96E9BB279395F695C9
:10487000879577956795B795F111F8CFFAF4BB0F47
:1048800011F460FF1BC06F5F7F4F8F4F9F4F16C0AB
:10489000882311F096E911C0772321F09EE8872F35
:1048A000762F05C0662371F096E8862F70E060E0F1
:1048B0002AF09A95660F771F881FDAF7880F96956A
:1048C000879597F90895990F0008550FAA0BE0E80E
:1048D000FEEF16161706E807F907C0F012161306C2
:1048E000E407F50798F0621B730B840B950B39F402
:1048F0000A2661F0232B242B252B21F408950A2668
:1049000009F4A140A6958FEF811D811D08950BD05C
:1049100078C069D028F06ED018F0952309F05AC0FD
:104920005FC01124A2C07ED0A0F3959FD1F3950F54
:1049300050E0551F629FF001729FBB27F00DB11D23
:10494000639FAA27F00DB11DAA1F649F6627B00DB3
:10495000A11D661F829F2227B00DA11D621F739F9C
:10496000B00DA11D621F839FA00D611D221F749FAA
:104970003327A00D611D231F849F600D211D822FF1
:10498000762F6A2F11249F5750408AF0E1F0882338
:104990004AF0EE0FFF1FBB1F661F771F881F915045
:1049A0005040A9F79E3F510570F014C05EC05F3FB4
:1049B000ECF3983EDCF3869577956795B795F79578
:1049C000E7959F5FC1F7FE2B880F911D9695879500
:1049D00097F9089597F99F6780E870E060E008957F
:1049E0009FEF80EC089500240A9416161706180607
:1049F0000906089500240A941216130614060506E3
:104A00000895092E0394000C11F4882352F0BB0F73
:104A100040F4BF2B11F460FF04C06F5F7F4F8F4FD6
:104A20009F4F089557FD9058440F551F59F05F3F11
:104A300071F04795880F97FB991F61F09F3F79F0C0
:104A400087950895121613061406551FF2CF469542
:104A5000F1DF08C0161617061806991FF1CF8695C4
:104A60007105610508940895E894BB2766277727A8
:104A7000CB0197F908955058BB27AA270ED0C1CF74
:104A8000B2DF30F0B7DF20F031F49F3F11F41EF4B5
:104A9000A7CF0EF4E095E7FB9DCFE92FC3DF80F3AE
:104AA000BA17620773078407950718F071F49EF52B
:104AB000DBCF0EF4E0950B2EBA2FA02D0B01B90120
:104AC00090010C01CA01A0011124FF27591B99F084
:104AD000593F50F4503E68F11A16F040A22F232F90
:104AE000342F4427585FF3CF469537952795A795E0
:104AF000F0405395C9F77EF41F16BA0B620B730B87
:104B0000840BBAF09150A1F0FF0FBB1F661F771FF7
:104B1000881FC2F70EC0BA0F621F731F841F48F4AC
:104B2000879577956795B795F7959E3F08F0B3CF32
:104B30009395880F08F09927EE0F9795879508951C
:104B40000CD05FCF57DF40F04EDF30F021F45F3FF5
:104B500019F040CF511189CF43CF64DF98F39923E7
:104B6000C9F35523B1F3951B550BBB27AA27621731
:104B70007307840738F09F5F5F4F220F331F441F76
:104B8000AA1FA9F333D00E2E3AF0E0E830D09150AE
:104B90005040E695001CCAF729D0FE2F27D0660F9B
:104BA000771F881FBB1F261737074807AB07B0E8DA
:104BB00009F0BB0B802DBF01FF2793585F4F2AF0F0
:104BC0009E3F510568F006CF50CF5F3FECF3983E13
:104BD000DCF3869577956795B795F7959F5FC9F74D
:104BE000880F911D9695879597F90895E1E0660FD6
:104BF000771F881FBB1F621773078407BA0720F04F
:104C0000621B730B840BBA0BEE1F88F7E0950895B7
:104C100004D06894B11129CF08950CDF88F09F5714
:104C200090F0B92F9927B751A0F0D1F0660F771FF8
:104C3000881F991F1AF0BA95C9F712C0B13081F0D8
:104C400013DFB1E0089510CF672F782F8827B85F62
:104C500039F0B93FCCF3869577956795B395D9F739
:104C60003EF490958095709561957F4F8F4F9F4F43
:104C7000089529DE08F48FEF089525DE880B990B3F
:104C8000089597FB072E16F4009406D077FD08D000
:104C900035D007FC05D03EF4909581959F4F08953F
:104CA000709561957F4F0895A1E21A2EAA1BBB1B38
:104CB000FD010DC0AA1FBB1FEE1FFF1FA217B307E8
:104CC000E407F50720F0A21BB30BE40BF50B661FFE
:104CD000771F881F991F1A9469F7609570958095C2
:104CE00090959B01AC01BD01CF010895EE0FFF1F10
:104CF000881F8BBF0790F691E02D1994AA1BBB1B50
:104D000051E107C0AA1FBB1FA617B70710F0A61BCB
:104D1000B70B881F991F5A95A9F780959095BC01EC
:104D2000CD0108954F925F926F927F928F929F92E2
:104D3000AF92BF92CF92DF92EF92FF920F931F93A9
:104D4000CF93DF938C01009791F4CB01DF91CF914A
:104D50001F910F91FF90EF90DF90CF90BF90AF9099
:104D60009F908F907F906F905F904F902FCCFC0121
:104D7000E60FF71F9C0122503109E217F30708F4F0
:104D8000AAC0D901CD91DC911197C617D70718F1A8
:104D9000C530D10570F0CE0104978617970748F00B
:104DA000C61BD70B2297C193D1936D937C93CF01F0
:104DB000A9DCC801DF91CF911F910F91FF90EF9077
:104DC000DF90CF90BF90AF909F908F907F906F902B
:104DD0005F904F9008955B01AC1ABD0A4C018C0E98
:104DE0009D1EA091A005B091A105512C412CF12C44
:104DF000E12C109731F580919E0590919F058815C3
:104E0000990509F05CC04616570608F058C0809115
:104E1000000290910102009741F48DB79EB7409136
:104E2000040250910502841B950BE817F90708F05E
:104E300052C0F0939F05E0939E05F9017183608352
:104E4000B8CF8D919C91119712966C9012971396F2
:104E50007C901397A815B90559F56C0142E0C40E72
:104E6000D11CCA14DB0420F1AC014A195B09DA0138
:104E70001296159780F06282738251834083D90124
:104E80006D937C93E114F10471F0D7011396FC93B8
:104E9000EE9312978ECF22968C0F9D1FF90191836E
:104EA0008083F301EFCFF093A105E093A00581CFBC
:104EB0004816590608F42C017D01D3019ACFCB0185
:104EC00085DB7C01009739F0AE01B8010BD0C80139
:104ED00019DC87016ECF10E000E06BCF81E090E03D
:104EE000F89410C0FB01DC0102C001900D9241500A
:104EF0005040D8F70895FB01DC0101900D9200208D
:104F0000E1F7089515E0C7EED5E000E005C0802F79
:104F1000FE01ECDE2196011DC83ED10780E00807A6
:064F2000B1F7F894FFCF89
:104F26000000A2058000180000000000000000003C
:104F3600E8FFE8FF00000000000014000000000089
:104F460000000000ECFFECFF00000000000036004F
:104F56003700380039003A0000000000790A95153C
:104F660000000000330A8815EC09E909E609E3099F
:104F76000909D8099D0984096B098F082E090C09AE
:104F8600020000000000460A8A15FEFFFEFF000030
:104F9600340A8C15060000000000000A7D15FAFF91
:104FA600FAFF0000EE097F1596020C021602A00217
:104FB6001800000000001E0A6815E8FFE8FF000060
:104FC6002A0A7215B20220022A02BC02140000004C
:104FD6000000640A3B15ECFFECFF0000700A451563
:104FE6000000000013077E06AB065F07DC06BA0664
:104FF600CE0600000000F310C71009097606C0109F
:10500600AD109E1000000000B50C7E0609093A1589
:1050160021137606580F300F4C0F400FBF0F760640
:105026007B0AE6149512DC12790E5C0EE40D850DF2
:105036000D0A005374617274696E672E2E2E00522B
:10504600656164696E672066726F6D20616C6C20A5
:1050560073656E736F72732C206C656E6774683A35
:10506600200052656164696E672066726F6D2073F9
:10507600656E736F722000485944524F20393030A4
:1050860030003A2028002C200029006E616E00694D
:085096006E66006F76660000F3
:00000001FF
